{"contracts/Rebalancer.sol":{"Rebalancer":{"abi":[{"inputs":[{"internalType":"address","name":"_pyth","type":"address"},{"internalType":"bytes32","name":"_audUsdPriceId","type":"bytes32"},{"internalType":"address","name":"_audb","type":"address"}],"stateMutability":"nonpayable","type":"constructor"},{"anonymous":false,"inputs":[{"indexed":true,"internalType":"address","name":"previousOwner","type":"address"},{"indexed":true,"internalType":"address","name":"newOwner","type":"address"}],"name":"OwnershipTransferred","type":"event"},{"anonymous":false,"inputs":[{"indexed":false,"internalType":"uint256","name":"currentPrice","type":"uint256"},{"indexed":false,"internalType":"uint256","name":"adjustment","type":"uint256"},{"indexed":false,"internalType":"bool","name":"isMint","type":"bool"}],"name":"Rebalanced","type":"event"},{"inputs":[],"name":"audUsdPriceId","outputs":[{"internalType":"bytes32","name":"","type":"bytes32"}],"stateMutability":"view","type":"function"},{"inputs":[],"name":"audb","outputs":[{"internalType":"contract AUDB","name":"","type":"address"}],"stateMutability":"view","type":"function"},{"inputs":[],"name":"deviationThreshold","outputs":[{"internalType":"uint256","name":"","type":"uint256"}],"stateMutability":"view","type":"function"},{"inputs":[],"name":"getMarketPrice","outputs":[{"internalType":"uint256","name":"","type":"uint256"}],"stateMutability":"view","type":"function"},{"inputs":[],"name":"owner","outputs":[{"internalType":"address","name":"","type":"address"}],"stateMutability":"view","type":"function"},{"inputs":[],"name":"peg","outputs":[{"internalType":"uint256","name":"","type":"uint256"}],"stateMutability":"view","type":"function"},{"inputs":[],"name":"pyth","outputs":[{"internalType":"contract IPyth","name":"","type":"address"}],"stateMutability":"view","type":"function"},{"inputs":[],"name":"rebalance","outputs":[],"stateMutability":"nonpayable","type":"function"},{"inputs":[],"name":"renounceOwnership","outputs":[],"stateMutability":"nonpayable","type":"function"},{"inputs":[{"internalType":"address","name":"newOwner","type":"address"}],"name":"transferOwnership","outputs":[],"stateMutability":"nonpayable","type":"function"}],"evm":{"bytecode":{"linkReferences":{},"object":"6080604052670de0b6b3a7640000600555662386f26fc100006006553480156200002857600080fd5b50604051620016d1380380620016d183398181016040528101906200004e919062000278565b6200006e620000626200010760201b60201c565b6200010f60201b60201c565b6001808190555082600260006101000a81548173ffffffffffffffffffffffffffffffffffffffff021916908373ffffffffffffffffffffffffffffffffffffffff1602179055508160048190555080600360006101000a81548173ffffffffffffffffffffffffffffffffffffffff021916908373ffffffffffffffffffffffffffffffffffffffff160217905550505050620002d4565b600033905090565b60008060009054906101000a900473ffffffffffffffffffffffffffffffffffffffff169050816000806101000a81548173ffffffffffffffffffffffffffffffffffffffff021916908373ffffffffffffffffffffffffffffffffffffffff1602179055508173ffffffffffffffffffffffffffffffffffffffff168173ffffffffffffffffffffffffffffffffffffffff167f8be0079c531659141344cd1fd0a4f28419497f9722a3daafe3b4186f6b6457e060405160405180910390a35050565b600080fd5b600073ffffffffffffffffffffffffffffffffffffffff82169050919050565b60006200020582620001d8565b9050919050565b6200021781620001f8565b81146200022357600080fd5b50565b60008151905062000237816200020c565b92915050565b6000819050919050565b62000252816200023d565b81146200025e57600080fd5b50565b600081519050620002728162000247565b92915050565b600080600060608486031215620002945762000293620001d3565b5b6000620002a48682870162000226565b9350506020620002b78682870162000261565b9250506040620002ca8682870162000226565b9150509250925092565b6113ed80620002e46000396000f3fe608060405234801561001057600080fd5b506004361061009e5760003560e01c80639c4282ed116100665780639c4282ed14610111578063c775659f1461012f578063d94ad8371461014d578063f2fde38b1461016b578063f98d06f0146101875761009e565b80631f1cb62b146100a3578063660e16c3146100c1578063715018a6146100df5780637d7c2a1c146100e95780638da5cb5b146100f3575b600080fd5b6100ab6101a5565b6040516100b89190610a15565b60405180910390f35b6100c96101ab565b6040516100d69190610a15565b60405180910390f35b6100e7610265565b005b6100f1610279565b005b6100fb61061a565b6040516101089190610a71565b60405180910390f35b610119610643565b6040516101269190610aeb565b60405180910390f35b610137610669565b6040516101449190610b1f565b60405180910390f35b61015561066f565b6040516101629190610a15565b60405180910390f35b61018560048036038101906101809190610b75565b610675565b005b61018f6106f8565b60405161019c9190610bc3565b60405180910390f35b60055481565b600080600260009054906101000a900473ffffffffffffffffffffffffffffffffffffffff1673ffffffffffffffffffffffffffffffffffffffff166396834ad36004546040518263ffffffff1660e01b815260040161020b9190610b1f565b608060405180830381865afa158015610228573d6000803e3d6000fd5b505050506040513d601f19601f8201168201806040525081019061024c9190610dc5565b9050600061025b82601261071e565b9050809250505090565b61026d61085a565b61027760006108d8565b565b61028161085a565b61028961099c565b60006102936101ab565b90506000600360009054906101000a900473ffffffffffffffffffffffffffffffffffffffff1673ffffffffffffffffffffffffffffffffffffffff166318160ddd6040518163ffffffff1660e01b8152600401602060405180830381865afa158015610304573d6000803e3d6000fd5b505050506040513d601f19601f820116820180604052508101906103289190610df2565b905060065460055461033a9190610e4e565b821115610442576000600554836103519190610e82565b9050600060055483836103649190610eb6565b61036e9190610f27565b9050600360009054906101000a900473ffffffffffffffffffffffffffffffffffffffff1673ffffffffffffffffffffffffffffffffffffffff166340c10f1930836040518363ffffffff1660e01b81526004016103cd929190610f58565b600060405180830381600087803b1580156103e757600080fd5b505af11580156103fb573d6000803e3d6000fd5b505050507fdc0059e80d42df4720e3b192305597f0caca2c3d12687fd62c1bb75d60666f428482600160405161043393929190610f9c565b60405180910390a1505061060e565b6006546005546104529190610e82565b82101561060d576000826005546104699190610e82565b90506000600554838361047c9190610eb6565b6104869190610f27565b90506000600360009054906101000a900473ffffffffffffffffffffffffffffffffffffffff1673ffffffffffffffffffffffffffffffffffffffff166370a08231306040518263ffffffff1660e01b81526004016104e59190610a71565b602060405180830381865afa158015610502573d6000803e3d6000fd5b505050506040513d601f19601f820116820180604052508101906105269190610df2565b905081811015610534578091505b600082111561060957600360009054906101000a900473ffffffffffffffffffffffffffffffffffffffff1673ffffffffffffffffffffffffffffffffffffffff16639dc29fac30846040518363ffffffff1660e01b815260040161059a929190610f58565b600060405180830381600087803b1580156105b457600080fd5b505af11580156105c8573d6000803e3d6000fd5b505050507fdc0059e80d42df4720e3b192305597f0caca2c3d12687fd62c1bb75d60666f428583600060405161060093929190610f9c565b60405180910390a15b5050505b5b50506106186109eb565b565b60008060009054906101000a900473ffffffffffffffffffffffffffffffffffffffff16905090565b600360009054906101000a900473ffffffffffffffffffffffffffffffffffffffff1681565b60045481565b60065481565b61067d61085a565b600073ffffffffffffffffffffffffffffffffffffffff168173ffffffffffffffffffffffffffffffffffffffff16036106ec576040517f08c379a00000000000000000000000000000000000000000000000000000000081526004016106e390611056565b60405180910390fd5b6106f5816108d8565b50565b600260009054906101000a900473ffffffffffffffffffffffffffffffffffffffff1681565b600080836000015160070b128061073c57506000836040015160030b135b8061076d57507fffffffffffffffffffffffffffffffffffffffffffffffffffffffffffffff01836040015160030b125b156107ad576040517f08c379a00000000000000000000000000000000000000000000000000000000081526004016107a4906110c2565b60405180910390fd5b600083604001517fffffffffffffffffffffffffffffffffffffffffffffffffffffffffffffffff6107df91906110e2565b90508060ff168360ff16106108235780836107fa919061112c565b60ff16600a6108099190611294565b846000015160070b61081b9190610eb6565b915050610854565b828161082f919061112c565b60ff16600a61083e9190611294565b846000015160070b6108509190610f27565b9150505b92915050565b6108626109f4565b73ffffffffffffffffffffffffffffffffffffffff1661088061061a565b73ffffffffffffffffffffffffffffffffffffffff16146108d6576040517f08c379a00000000000000000000000000000000000000000000000000000000081526004016108cd9061132b565b60405180910390fd5b565b60008060009054906101000a900473ffffffffffffffffffffffffffffffffffffffff169050816000806101000a81548173ffffffffffffffffffffffffffffffffffffffff021916908373ffffffffffffffffffffffffffffffffffffffff1602179055508173ffffffffffffffffffffffffffffffffffffffff168173ffffffffffffffffffffffffffffffffffffffff167f8be0079c531659141344cd1fd0a4f28419497f9722a3daafe3b4186f6b6457e060405160405180910390a35050565b6002600154036109e1576040517f08c379a00000000000000000000000000000000000000000000000000000000081526004016109d890611397565b60405180910390fd5b6002600181905550565b60018081905550565b600033905090565b6000819050919050565b610a0f816109fc565b82525050565b6000602082019050610a2a6000830184610a06565b92915050565b600073ffffffffffffffffffffffffffffffffffffffff82169050919050565b6000610a5b82610a30565b9050919050565b610a6b81610a50565b82525050565b6000602082019050610a866000830184610a62565b92915050565b6000819050919050565b6000610ab1610aac610aa784610a30565b610a8c565b610a30565b9050919050565b6000610ac382610a96565b9050919050565b6000610ad582610ab8565b9050919050565b610ae581610aca565b82525050565b6000602082019050610b006000830184610adc565b92915050565b6000819050919050565b610b1981610b06565b82525050565b6000602082019050610b346000830184610b10565b92915050565b6000604051905090565b600080fd5b610b5281610a50565b8114610b5d57600080fd5b50565b600081359050610b6f81610b49565b92915050565b600060208284031215610b8b57610b8a610b44565b5b6000610b9984828501610b60565b91505092915050565b6000610bad82610ab8565b9050919050565b610bbd81610ba2565b82525050565b6000602082019050610bd86000830184610bb4565b92915050565b600080fd5b6000601f19601f8301169050919050565b7f4e487b7100000000000000000000000000000000000000000000000000000000600052604160045260246000fd5b610c2c82610be3565b810181811067ffffffffffffffff82111715610c4b57610c4a610bf4565b5b80604052505050565b6000610c5e610b3a565b9050610c6a8282610c23565b919050565b60008160070b9050919050565b610c8581610c6f565b8114610c9057600080fd5b50565b600081519050610ca281610c7c565b92915050565b600067ffffffffffffffff82169050919050565b610cc581610ca8565b8114610cd057600080fd5b50565b600081519050610ce281610cbc565b92915050565b60008160030b9050919050565b610cfe81610ce8565b8114610d0957600080fd5b50565b600081519050610d1b81610cf5565b92915050565b610d2a816109fc565b8114610d3557600080fd5b50565b600081519050610d4781610d21565b92915050565b600060808284031215610d6357610d62610bde565b5b610d6d6080610c54565b90506000610d7d84828501610c93565b6000830152506020610d9184828501610cd3565b6020830152506040610da584828501610d0c565b6040830152506060610db984828501610d38565b60608301525092915050565b600060808284031215610ddb57610dda610b44565b5b6000610de984828501610d4d565b91505092915050565b600060208284031215610e0857610e07610b44565b5b6000610e1684828501610d38565b91505092915050565b7f4e487b7100000000000000000000000000000000000000000000000000000000600052601160045260246000fd5b6000610e59826109fc565b9150610e64836109fc565b9250828201905080821115610e7c57610e7b610e1f565b5b92915050565b6000610e8d826109fc565b9150610e98836109fc565b9250828203905081811115610eb057610eaf610e1f565b5b92915050565b6000610ec1826109fc565b9150610ecc836109fc565b9250828202610eda816109fc565b91508282048414831517610ef157610ef0610e1f565b5b5092915050565b7f4e487b7100000000000000000000000000000000000000000000000000000000600052601260045260246000fd5b6000610f32826109fc565b9150610f3d836109fc565b925082610f4d57610f4c610ef8565b5b828204905092915050565b6000604082019050610f6d6000830185610a62565b610f7a6020830184610a06565b9392505050565b60008115159050919050565b610f9681610f81565b82525050565b6000606082019050610fb16000830186610a06565b610fbe6020830185610a06565b610fcb6040830184610f8d565b949350505050565b600082825260208201905092915050565b7f4f776e61626c653a206e6577206f776e657220697320746865207a65726f206160008201527f6464726573730000000000000000000000000000000000000000000000000000602082015250565b6000611040602683610fd3565b915061104b82610fe4565b604082019050919050565b6000602082019050818103600083015261106f81611033565b9050919050565b7f496e76616c696420707269636500000000000000000000000000000000000000600082015250565b60006110ac600d83610fd3565b91506110b782611076565b602082019050919050565b600060208201905081810360008301526110db8161109f565b9050919050565b60006110ed82610ce8565b91506110f883610ce8565b925082820261110681610ce8565b915080821461111857611117610e1f565b5b5092915050565b600060ff82169050919050565b60006111378261111f565b91506111428361111f565b9250828203905060ff81111561115b5761115a610e1f565b5b92915050565b60008160011c9050919050565b6000808291508390505b60018511156111b85780860481111561119457611193610e1f565b5b60018516156111a35780820291505b80810290506111b185611161565b9450611178565b94509492505050565b6000826111d1576001905061128d565b816111df576000905061128d565b81600181146111f557600281146111ff5761122e565b600191505061128d565b60ff84111561121157611210610e1f565b5b8360020a91508482111561122857611227610e1f565b5b5061128d565b5060208310610133831016604e8410600b84101617156112635782820a90508381111561125e5761125d610e1f565b5b61128d565b611270848484600161116e565b9250905081840481111561128757611286610e1f565b5b81810290505b9392505050565b600061129f826109fc565b91506112aa836109fc565b92506112d77fffffffffffffffffffffffffffffffffffffffffffffffffffffffffffffffff84846111c1565b905092915050565b7f4f776e61626c653a2063616c6c6572206973206e6f7420746865206f776e6572600082015250565b6000611315602083610fd3565b9150611320826112df565b602082019050919050565b6000602082019050818103600083015261134481611308565b9050919050565b7f5265656e7472616e637947756172643a207265656e7472616e742063616c6c00600082015250565b6000611381601f83610fd3565b915061138c8261134b565b602082019050919050565b600060208201905081810360008301526113b081611374565b905091905056fea264697066735822122016708c17b2f06679f7a839c2f233b0a4ead7d97ca69e1317439580e82fa6edff64736f6c63430008140033","opcodes":"PUSH1 0x80 PUSH1 0x40 MSTORE PUSH8 0xDE0B6B3A7640000 PUSH1 0x5 SSTORE PUSH7 0x2386F26FC10000 PUSH1 0x6 SSTORE CALLVALUE DUP1 ISZERO PUSH3 0x28 JUMPI PUSH1 0x0 DUP1 REVERT JUMPDEST POP PUSH1 0x40 MLOAD PUSH3 0x16D1 CODESIZE SUB DUP1 PUSH3 0x16D1 DUP4 CODECOPY DUP2 DUP2 ADD PUSH1 0x40 MSTORE DUP2 ADD SWAP1 PUSH3 0x4E SWAP2 SWAP1 PUSH3 0x278 JUMP JUMPDEST PUSH3 0x6E PUSH3 0x62 PUSH3 0x107 PUSH1 0x20 SHL PUSH1 0x20 SHR JUMP JUMPDEST PUSH3 0x10F PUSH1 0x20 SHL PUSH1 0x20 SHR JUMP JUMPDEST PUSH1 0x1 DUP1 DUP2 SWAP1 SSTORE POP DUP3 PUSH1 0x2 PUSH1 0x0 PUSH2 0x100 EXP DUP2 SLOAD DUP2 PUSH20 0xFFFFFFFFFFFFFFFFFFFFFFFFFFFFFFFFFFFFFFFF MUL NOT AND SWAP1 DUP4 PUSH20 0xFFFFFFFFFFFFFFFFFFFFFFFFFFFFFFFFFFFFFFFF AND MUL OR SWAP1 SSTORE POP DUP2 PUSH1 0x4 DUP2 SWAP1 SSTORE POP DUP1 PUSH1 0x3 PUSH1 0x0 PUSH2 0x100 EXP DUP2 SLOAD DUP2 PUSH20 0xFFFFFFFFFFFFFFFFFFFFFFFFFFFFFFFFFFFFFFFF MUL NOT AND SWAP1 DUP4 PUSH20 0xFFFFFFFFFFFFFFFFFFFFFFFFFFFFFFFFFFFFFFFF AND MUL OR SWAP1 SSTORE POP POP POP POP PUSH3 0x2D4 JUMP JUMPDEST PUSH1 0x0 CALLER SWAP1 POP SWAP1 JUMP JUMPDEST PUSH1 0x0 DUP1 PUSH1 0x0 SWAP1 SLOAD SWAP1 PUSH2 0x100 EXP SWAP1 DIV PUSH20 0xFFFFFFFFFFFFFFFFFFFFFFFFFFFFFFFFFFFFFFFF AND SWAP1 POP DUP2 PUSH1 0x0 DUP1 PUSH2 0x100 EXP DUP2 SLOAD DUP2 PUSH20 0xFFFFFFFFFFFFFFFFFFFFFFFFFFFFFFFFFFFFFFFF MUL NOT AND SWAP1 DUP4 PUSH20 0xFFFFFFFFFFFFFFFFFFFFFFFFFFFFFFFFFFFFFFFF AND MUL OR SWAP1 SSTORE POP DUP2 PUSH20 0xFFFFFFFFFFFFFFFFFFFFFFFFFFFFFFFFFFFFFFFF AND DUP2 PUSH20 0xFFFFFFFFFFFFFFFFFFFFFFFFFFFFFFFFFFFFFFFF AND PUSH32 0x8BE0079C531659141344CD1FD0A4F28419497F9722A3DAAFE3B4186F6B6457E0 PUSH1 0x40 MLOAD PUSH1 0x40 MLOAD DUP1 SWAP2 SUB SWAP1 LOG3 POP POP JUMP JUMPDEST PUSH1 0x0 DUP1 REVERT JUMPDEST PUSH1 0x0 PUSH20 0xFFFFFFFFFFFFFFFFFFFFFFFFFFFFFFFFFFFFFFFF DUP3 AND SWAP1 POP SWAP2 SWAP1 POP JUMP JUMPDEST PUSH1 0x0 PUSH3 0x205 DUP3 PUSH3 0x1D8 JUMP JUMPDEST SWAP1 POP SWAP2 SWAP1 POP JUMP JUMPDEST PUSH3 0x217 DUP2 PUSH3 0x1F8 JUMP JUMPDEST DUP2 EQ PUSH3 0x223 JUMPI PUSH1 0x0 DUP1 REVERT JUMPDEST POP JUMP JUMPDEST PUSH1 0x0 DUP2 MLOAD SWAP1 POP PUSH3 0x237 DUP2 PUSH3 0x20C JUMP JUMPDEST SWAP3 SWAP2 POP POP JUMP JUMPDEST PUSH1 0x0 DUP2 SWAP1 POP SWAP2 SWAP1 POP JUMP JUMPDEST PUSH3 0x252 DUP2 PUSH3 0x23D JUMP JUMPDEST DUP2 EQ PUSH3 0x25E JUMPI PUSH1 0x0 DUP1 REVERT JUMPDEST POP JUMP JUMPDEST PUSH1 0x0 DUP2 MLOAD SWAP1 POP PUSH3 0x272 DUP2 PUSH3 0x247 JUMP JUMPDEST SWAP3 SWAP2 POP POP JUMP JUMPDEST PUSH1 0x0 DUP1 PUSH1 0x0 PUSH1 0x60 DUP5 DUP7 SUB SLT ISZERO PUSH3 0x294 JUMPI PUSH3 0x293 PUSH3 0x1D3 JUMP JUMPDEST JUMPDEST PUSH1 0x0 PUSH3 0x2A4 DUP7 DUP3 DUP8 ADD PUSH3 0x226 JUMP JUMPDEST SWAP4 POP POP PUSH1 0x20 PUSH3 0x2B7 DUP7 DUP3 DUP8 ADD PUSH3 0x261 JUMP JUMPDEST SWAP3 POP POP PUSH1 0x40 PUSH3 0x2CA DUP7 DUP3 DUP8 ADD PUSH3 0x226 JUMP JUMPDEST SWAP2 POP POP SWAP3 POP SWAP3 POP SWAP3 JUMP JUMPDEST PUSH2 0x13ED DUP1 PUSH3 0x2E4 PUSH1 0x0 CODECOPY PUSH1 0x0 RETURN INVALID PUSH1 0x80 PUSH1 0x40 MSTORE CALLVALUE DUP1 ISZERO PUSH2 0x10 JUMPI PUSH1 0x0 DUP1 REVERT JUMPDEST POP PUSH1 0x4 CALLDATASIZE LT PUSH2 0x9E JUMPI PUSH1 0x0 CALLDATALOAD PUSH1 0xE0 SHR DUP1 PUSH4 0x9C4282ED GT PUSH2 0x66 JUMPI DUP1 PUSH4 0x9C4282ED EQ PUSH2 0x111 JUMPI DUP1 PUSH4 0xC775659F EQ PUSH2 0x12F JUMPI DUP1 PUSH4 0xD94AD837 EQ PUSH2 0x14D JUMPI DUP1 PUSH4 0xF2FDE38B EQ PUSH2 0x16B JUMPI DUP1 PUSH4 0xF98D06F0 EQ PUSH2 0x187 JUMPI PUSH2 0x9E JUMP JUMPDEST DUP1 PUSH4 0x1F1CB62B EQ PUSH2 0xA3 JUMPI DUP1 PUSH4 0x660E16C3 EQ PUSH2 0xC1 JUMPI DUP1 PUSH4 0x715018A6 EQ PUSH2 0xDF JUMPI DUP1 PUSH4 0x7D7C2A1C EQ PUSH2 0xE9 JUMPI DUP1 PUSH4 0x8DA5CB5B EQ PUSH2 0xF3 JUMPI JUMPDEST PUSH1 0x0 DUP1 REVERT JUMPDEST PUSH2 0xAB PUSH2 0x1A5 JUMP JUMPDEST PUSH1 0x40 MLOAD PUSH2 0xB8 SWAP2 SWAP1 PUSH2 0xA15 JUMP JUMPDEST PUSH1 0x40 MLOAD DUP1 SWAP2 SUB SWAP1 RETURN JUMPDEST PUSH2 0xC9 PUSH2 0x1AB JUMP JUMPDEST PUSH1 0x40 MLOAD PUSH2 0xD6 SWAP2 SWAP1 PUSH2 0xA15 JUMP JUMPDEST PUSH1 0x40 MLOAD DUP1 SWAP2 SUB SWAP1 RETURN JUMPDEST PUSH2 0xE7 PUSH2 0x265 JUMP JUMPDEST STOP JUMPDEST PUSH2 0xF1 PUSH2 0x279 JUMP JUMPDEST STOP JUMPDEST PUSH2 0xFB PUSH2 0x61A JUMP JUMPDEST PUSH1 0x40 MLOAD PUSH2 0x108 SWAP2 SWAP1 PUSH2 0xA71 JUMP JUMPDEST PUSH1 0x40 MLOAD DUP1 SWAP2 SUB SWAP1 RETURN JUMPDEST PUSH2 0x119 PUSH2 0x643 JUMP JUMPDEST PUSH1 0x40 MLOAD PUSH2 0x126 SWAP2 SWAP1 PUSH2 0xAEB JUMP JUMPDEST PUSH1 0x40 MLOAD DUP1 SWAP2 SUB SWAP1 RETURN JUMPDEST PUSH2 0x137 PUSH2 0x669 JUMP JUMPDEST PUSH1 0x40 MLOAD PUSH2 0x144 SWAP2 SWAP1 PUSH2 0xB1F JUMP JUMPDEST PUSH1 0x40 MLOAD DUP1 SWAP2 SUB SWAP1 RETURN JUMPDEST PUSH2 0x155 PUSH2 0x66F JUMP JUMPDEST PUSH1 0x40 MLOAD PUSH2 0x162 SWAP2 SWAP1 PUSH2 0xA15 JUMP JUMPDEST PUSH1 0x40 MLOAD DUP1 SWAP2 SUB SWAP1 RETURN JUMPDEST PUSH2 0x185 PUSH1 0x4 DUP1 CALLDATASIZE SUB DUP2 ADD SWAP1 PUSH2 0x180 SWAP2 SWAP1 PUSH2 0xB75 JUMP JUMPDEST PUSH2 0x675 JUMP JUMPDEST STOP JUMPDEST PUSH2 0x18F PUSH2 0x6F8 JUMP JUMPDEST PUSH1 0x40 MLOAD PUSH2 0x19C SWAP2 SWAP1 PUSH2 0xBC3 JUMP JUMPDEST PUSH1 0x40 MLOAD DUP1 SWAP2 SUB SWAP1 RETURN JUMPDEST PUSH1 0x5 SLOAD DUP2 JUMP JUMPDEST PUSH1 0x0 DUP1 PUSH1 0x2 PUSH1 0x0 SWAP1 SLOAD SWAP1 PUSH2 0x100 EXP SWAP1 DIV PUSH20 0xFFFFFFFFFFFFFFFFFFFFFFFFFFFFFFFFFFFFFFFF AND PUSH20 0xFFFFFFFFFFFFFFFFFFFFFFFFFFFFFFFFFFFFFFFF AND PUSH4 0x96834AD3 PUSH1 0x4 SLOAD PUSH1 0x40 MLOAD DUP3 PUSH4 0xFFFFFFFF AND PUSH1 0xE0 SHL DUP2 MSTORE PUSH1 0x4 ADD PUSH2 0x20B SWAP2 SWAP1 PUSH2 0xB1F JUMP JUMPDEST PUSH1 0x80 PUSH1 0x40 MLOAD DUP1 DUP4 SUB DUP2 DUP7 GAS STATICCALL ISZERO DUP1 ISZERO PUSH2 0x228 JUMPI RETURNDATASIZE PUSH1 0x0 DUP1 RETURNDATACOPY RETURNDATASIZE PUSH1 0x0 REVERT JUMPDEST POP POP POP POP PUSH1 0x40 MLOAD RETURNDATASIZE PUSH1 0x1F NOT PUSH1 0x1F DUP3 ADD AND DUP3 ADD DUP1 PUSH1 0x40 MSTORE POP DUP2 ADD SWAP1 PUSH2 0x24C SWAP2 SWAP1 PUSH2 0xDC5 JUMP JUMPDEST SWAP1 POP PUSH1 0x0 PUSH2 0x25B DUP3 PUSH1 0x12 PUSH2 0x71E JUMP JUMPDEST SWAP1 POP DUP1 SWAP3 POP POP POP SWAP1 JUMP JUMPDEST PUSH2 0x26D PUSH2 0x85A JUMP JUMPDEST PUSH2 0x277 PUSH1 0x0 PUSH2 0x8D8 JUMP JUMPDEST JUMP JUMPDEST PUSH2 0x281 PUSH2 0x85A JUMP JUMPDEST PUSH2 0x289 PUSH2 0x99C JUMP JUMPDEST PUSH1 0x0 PUSH2 0x293 PUSH2 0x1AB JUMP JUMPDEST SWAP1 POP PUSH1 0x0 PUSH1 0x3 PUSH1 0x0 SWAP1 SLOAD SWAP1 PUSH2 0x100 EXP SWAP1 DIV PUSH20 0xFFFFFFFFFFFFFFFFFFFFFFFFFFFFFFFFFFFFFFFF AND PUSH20 0xFFFFFFFFFFFFFFFFFFFFFFFFFFFFFFFFFFFFFFFF AND PUSH4 0x18160DDD PUSH1 0x40 MLOAD DUP2 PUSH4 0xFFFFFFFF AND PUSH1 0xE0 SHL DUP2 MSTORE PUSH1 0x4 ADD PUSH1 0x20 PUSH1 0x40 MLOAD DUP1 DUP4 SUB DUP2 DUP7 GAS STATICCALL ISZERO DUP1 ISZERO PUSH2 0x304 JUMPI RETURNDATASIZE PUSH1 0x0 DUP1 RETURNDATACOPY RETURNDATASIZE PUSH1 0x0 REVERT JUMPDEST POP POP POP POP PUSH1 0x40 MLOAD RETURNDATASIZE PUSH1 0x1F NOT PUSH1 0x1F DUP3 ADD AND DUP3 ADD DUP1 PUSH1 0x40 MSTORE POP DUP2 ADD SWAP1 PUSH2 0x328 SWAP2 SWAP1 PUSH2 0xDF2 JUMP JUMPDEST SWAP1 POP PUSH1 0x6 SLOAD PUSH1 0x5 SLOAD PUSH2 0x33A SWAP2 SWAP1 PUSH2 0xE4E JUMP JUMPDEST DUP3 GT ISZERO PUSH2 0x442 JUMPI PUSH1 0x0 PUSH1 0x5 SLOAD DUP4 PUSH2 0x351 SWAP2 SWAP1 PUSH2 0xE82 JUMP JUMPDEST SWAP1 POP PUSH1 0x0 PUSH1 0x5 SLOAD DUP4 DUP4 PUSH2 0x364 SWAP2 SWAP1 PUSH2 0xEB6 JUMP JUMPDEST PUSH2 0x36E SWAP2 SWAP1 PUSH2 0xF27 JUMP JUMPDEST SWAP1 POP PUSH1 0x3 PUSH1 0x0 SWAP1 SLOAD SWAP1 PUSH2 0x100 EXP SWAP1 DIV PUSH20 0xFFFFFFFFFFFFFFFFFFFFFFFFFFFFFFFFFFFFFFFF AND PUSH20 0xFFFFFFFFFFFFFFFFFFFFFFFFFFFFFFFFFFFFFFFF AND PUSH4 0x40C10F19 ADDRESS DUP4 PUSH1 0x40 MLOAD DUP4 PUSH4 0xFFFFFFFF AND PUSH1 0xE0 SHL DUP2 MSTORE PUSH1 0x4 ADD PUSH2 0x3CD SWAP3 SWAP2 SWAP1 PUSH2 0xF58 JUMP JUMPDEST PUSH1 0x0 PUSH1 0x40 MLOAD DUP1 DUP4 SUB DUP2 PUSH1 0x0 DUP8 DUP1 EXTCODESIZE ISZERO DUP1 ISZERO PUSH2 0x3E7 JUMPI PUSH1 0x0 DUP1 REVERT JUMPDEST POP GAS CALL ISZERO DUP1 ISZERO PUSH2 0x3FB JUMPI RETURNDATASIZE PUSH1 0x0 DUP1 RETURNDATACOPY RETURNDATASIZE PUSH1 0x0 REVERT JUMPDEST POP POP POP POP PUSH32 0xDC0059E80D42DF4720E3B192305597F0CACA2C3D12687FD62C1BB75D60666F42 DUP5 DUP3 PUSH1 0x1 PUSH1 0x40 MLOAD PUSH2 0x433 SWAP4 SWAP3 SWAP2 SWAP1 PUSH2 0xF9C JUMP JUMPDEST PUSH1 0x40 MLOAD DUP1 SWAP2 SUB SWAP1 LOG1 POP POP PUSH2 0x60E JUMP JUMPDEST PUSH1 0x6 SLOAD PUSH1 0x5 SLOAD PUSH2 0x452 SWAP2 SWAP1 PUSH2 0xE82 JUMP JUMPDEST DUP3 LT ISZERO PUSH2 0x60D JUMPI PUSH1 0x0 DUP3 PUSH1 0x5 SLOAD PUSH2 0x469 SWAP2 SWAP1 PUSH2 0xE82 JUMP JUMPDEST SWAP1 POP PUSH1 0x0 PUSH1 0x5 SLOAD DUP4 DUP4 PUSH2 0x47C SWAP2 SWAP1 PUSH2 0xEB6 JUMP JUMPDEST PUSH2 0x486 SWAP2 SWAP1 PUSH2 0xF27 JUMP JUMPDEST SWAP1 POP PUSH1 0x0 PUSH1 0x3 PUSH1 0x0 SWAP1 SLOAD SWAP1 PUSH2 0x100 EXP SWAP1 DIV PUSH20 0xFFFFFFFFFFFFFFFFFFFFFFFFFFFFFFFFFFFFFFFF AND PUSH20 0xFFFFFFFFFFFFFFFFFFFFFFFFFFFFFFFFFFFFFFFF AND PUSH4 0x70A08231 ADDRESS PUSH1 0x40 MLOAD DUP3 PUSH4 0xFFFFFFFF AND PUSH1 0xE0 SHL DUP2 MSTORE PUSH1 0x4 ADD PUSH2 0x4E5 SWAP2 SWAP1 PUSH2 0xA71 JUMP JUMPDEST PUSH1 0x20 PUSH1 0x40 MLOAD DUP1 DUP4 SUB DUP2 DUP7 GAS STATICCALL ISZERO DUP1 ISZERO PUSH2 0x502 JUMPI RETURNDATASIZE PUSH1 0x0 DUP1 RETURNDATACOPY RETURNDATASIZE PUSH1 0x0 REVERT JUMPDEST POP POP POP POP PUSH1 0x40 MLOAD RETURNDATASIZE PUSH1 0x1F NOT PUSH1 0x1F DUP3 ADD AND DUP3 ADD DUP1 PUSH1 0x40 MSTORE POP DUP2 ADD SWAP1 PUSH2 0x526 SWAP2 SWAP1 PUSH2 0xDF2 JUMP JUMPDEST SWAP1 POP DUP2 DUP2 LT ISZERO PUSH2 0x534 JUMPI DUP1 SWAP2 POP JUMPDEST PUSH1 0x0 DUP3 GT ISZERO PUSH2 0x609 JUMPI PUSH1 0x3 PUSH1 0x0 SWAP1 SLOAD SWAP1 PUSH2 0x100 EXP SWAP1 DIV PUSH20 0xFFFFFFFFFFFFFFFFFFFFFFFFFFFFFFFFFFFFFFFF AND PUSH20 0xFFFFFFFFFFFFFFFFFFFFFFFFFFFFFFFFFFFFFFFF AND PUSH4 0x9DC29FAC ADDRESS DUP5 PUSH1 0x40 MLOAD DUP4 PUSH4 0xFFFFFFFF AND PUSH1 0xE0 SHL DUP2 MSTORE PUSH1 0x4 ADD PUSH2 0x59A SWAP3 SWAP2 SWAP1 PUSH2 0xF58 JUMP JUMPDEST PUSH1 0x0 PUSH1 0x40 MLOAD DUP1 DUP4 SUB DUP2 PUSH1 0x0 DUP8 DUP1 EXTCODESIZE ISZERO DUP1 ISZERO PUSH2 0x5B4 JUMPI PUSH1 0x0 DUP1 REVERT JUMPDEST POP GAS CALL ISZERO DUP1 ISZERO PUSH2 0x5C8 JUMPI RETURNDATASIZE PUSH1 0x0 DUP1 RETURNDATACOPY RETURNDATASIZE PUSH1 0x0 REVERT JUMPDEST POP POP POP POP PUSH32 0xDC0059E80D42DF4720E3B192305597F0CACA2C3D12687FD62C1BB75D60666F42 DUP6 DUP4 PUSH1 0x0 PUSH1 0x40 MLOAD PUSH2 0x600 SWAP4 SWAP3 SWAP2 SWAP1 PUSH2 0xF9C JUMP JUMPDEST PUSH1 0x40 MLOAD DUP1 SWAP2 SUB SWAP1 LOG1 JUMPDEST POP POP POP JUMPDEST JUMPDEST POP POP PUSH2 0x618 PUSH2 0x9EB JUMP JUMPDEST JUMP JUMPDEST PUSH1 0x0 DUP1 PUSH1 0x0 SWAP1 SLOAD SWAP1 PUSH2 0x100 EXP SWAP1 DIV PUSH20 0xFFFFFFFFFFFFFFFFFFFFFFFFFFFFFFFFFFFFFFFF AND SWAP1 POP SWAP1 JUMP JUMPDEST PUSH1 0x3 PUSH1 0x0 SWAP1 SLOAD SWAP1 PUSH2 0x100 EXP SWAP1 DIV PUSH20 0xFFFFFFFFFFFFFFFFFFFFFFFFFFFFFFFFFFFFFFFF AND DUP2 JUMP JUMPDEST PUSH1 0x4 SLOAD DUP2 JUMP JUMPDEST PUSH1 0x6 SLOAD DUP2 JUMP JUMPDEST PUSH2 0x67D PUSH2 0x85A JUMP JUMPDEST PUSH1 0x0 PUSH20 0xFFFFFFFFFFFFFFFFFFFFFFFFFFFFFFFFFFFFFFFF AND DUP2 PUSH20 0xFFFFFFFFFFFFFFFFFFFFFFFFFFFFFFFFFFFFFFFF AND SUB PUSH2 0x6EC JUMPI PUSH1 0x40 MLOAD PUSH32 0x8C379A000000000000000000000000000000000000000000000000000000000 DUP2 MSTORE PUSH1 0x4 ADD PUSH2 0x6E3 SWAP1 PUSH2 0x1056 JUMP JUMPDEST PUSH1 0x40 MLOAD DUP1 SWAP2 SUB SWAP1 REVERT JUMPDEST PUSH2 0x6F5 DUP2 PUSH2 0x8D8 JUMP JUMPDEST POP JUMP JUMPDEST PUSH1 0x2 PUSH1 0x0 SWAP1 SLOAD SWAP1 PUSH2 0x100 EXP SWAP1 DIV PUSH20 0xFFFFFFFFFFFFFFFFFFFFFFFFFFFFFFFFFFFFFFFF AND DUP2 JUMP JUMPDEST PUSH1 0x0 DUP1 DUP4 PUSH1 0x0 ADD MLOAD PUSH1 0x7 SIGNEXTEND SLT DUP1 PUSH2 0x73C JUMPI POP PUSH1 0x0 DUP4 PUSH1 0x40 ADD MLOAD PUSH1 0x3 SIGNEXTEND SGT JUMPDEST DUP1 PUSH2 0x76D JUMPI POP PUSH32 0xFFFFFFFFFFFFFFFFFFFFFFFFFFFFFFFFFFFFFFFFFFFFFFFFFFFFFFFFFFFFFF01 DUP4 PUSH1 0x40 ADD MLOAD PUSH1 0x3 SIGNEXTEND SLT JUMPDEST ISZERO PUSH2 0x7AD JUMPI PUSH1 0x40 MLOAD PUSH32 0x8C379A000000000000000000000000000000000000000000000000000000000 DUP2 MSTORE PUSH1 0x4 ADD PUSH2 0x7A4 SWAP1 PUSH2 0x10C2 JUMP JUMPDEST PUSH1 0x40 MLOAD DUP1 SWAP2 SUB SWAP1 REVERT JUMPDEST PUSH1 0x0 DUP4 PUSH1 0x40 ADD MLOAD PUSH32 0xFFFFFFFFFFFFFFFFFFFFFFFFFFFFFFFFFFFFFFFFFFFFFFFFFFFFFFFFFFFFFFFF PUSH2 0x7DF SWAP2 SWAP1 PUSH2 0x10E2 JUMP JUMPDEST SWAP1 POP DUP1 PUSH1 0xFF AND DUP4 PUSH1 0xFF AND LT PUSH2 0x823 JUMPI DUP1 DUP4 PUSH2 0x7FA SWAP2 SWAP1 PUSH2 0x112C JUMP JUMPDEST PUSH1 0xFF AND PUSH1 0xA PUSH2 0x809 SWAP2 SWAP1 PUSH2 0x1294 JUMP JUMPDEST DUP5 PUSH1 0x0 ADD MLOAD PUSH1 0x7 SIGNEXTEND PUSH2 0x81B SWAP2 SWAP1 PUSH2 0xEB6 JUMP JUMPDEST SWAP2 POP POP PUSH2 0x854 JUMP JUMPDEST DUP3 DUP2 PUSH2 0x82F SWAP2 SWAP1 PUSH2 0x112C JUMP JUMPDEST PUSH1 0xFF AND PUSH1 0xA PUSH2 0x83E SWAP2 SWAP1 PUSH2 0x1294 JUMP JUMPDEST DUP5 PUSH1 0x0 ADD MLOAD PUSH1 0x7 SIGNEXTEND PUSH2 0x850 SWAP2 SWAP1 PUSH2 0xF27 JUMP JUMPDEST SWAP2 POP POP JUMPDEST SWAP3 SWAP2 POP POP JUMP JUMPDEST PUSH2 0x862 PUSH2 0x9F4 JUMP JUMPDEST PUSH20 0xFFFFFFFFFFFFFFFFFFFFFFFFFFFFFFFFFFFFFFFF AND PUSH2 0x880 PUSH2 0x61A JUMP JUMPDEST PUSH20 0xFFFFFFFFFFFFFFFFFFFFFFFFFFFFFFFFFFFFFFFF AND EQ PUSH2 0x8D6 JUMPI PUSH1 0x40 MLOAD PUSH32 0x8C379A000000000000000000000000000000000000000000000000000000000 DUP2 MSTORE PUSH1 0x4 ADD PUSH2 0x8CD SWAP1 PUSH2 0x132B JUMP JUMPDEST PUSH1 0x40 MLOAD DUP1 SWAP2 SUB SWAP1 REVERT JUMPDEST JUMP JUMPDEST PUSH1 0x0 DUP1 PUSH1 0x0 SWAP1 SLOAD SWAP1 PUSH2 0x100 EXP SWAP1 DIV PUSH20 0xFFFFFFFFFFFFFFFFFFFFFFFFFFFFFFFFFFFFFFFF AND SWAP1 POP DUP2 PUSH1 0x0 DUP1 PUSH2 0x100 EXP DUP2 SLOAD DUP2 PUSH20 0xFFFFFFFFFFFFFFFFFFFFFFFFFFFFFFFFFFFFFFFF MUL NOT AND SWAP1 DUP4 PUSH20 0xFFFFFFFFFFFFFFFFFFFFFFFFFFFFFFFFFFFFFFFF AND MUL OR SWAP1 SSTORE POP DUP2 PUSH20 0xFFFFFFFFFFFFFFFFFFFFFFFFFFFFFFFFFFFFFFFF AND DUP2 PUSH20 0xFFFFFFFFFFFFFFFFFFFFFFFFFFFFFFFFFFFFFFFF AND PUSH32 0x8BE0079C531659141344CD1FD0A4F28419497F9722A3DAAFE3B4186F6B6457E0 PUSH1 0x40 MLOAD PUSH1 0x40 MLOAD DUP1 SWAP2 SUB SWAP1 LOG3 POP POP JUMP JUMPDEST PUSH1 0x2 PUSH1 0x1 SLOAD SUB PUSH2 0x9E1 JUMPI PUSH1 0x40 MLOAD PUSH32 0x8C379A000000000000000000000000000000000000000000000000000000000 DUP2 MSTORE PUSH1 0x4 ADD PUSH2 0x9D8 SWAP1 PUSH2 0x1397 JUMP JUMPDEST PUSH1 0x40 MLOAD DUP1 SWAP2 SUB SWAP1 REVERT JUMPDEST PUSH1 0x2 PUSH1 0x1 DUP2 SWAP1 SSTORE POP JUMP JUMPDEST PUSH1 0x1 DUP1 DUP2 SWAP1 SSTORE POP JUMP JUMPDEST PUSH1 0x0 CALLER SWAP1 POP SWAP1 JUMP JUMPDEST PUSH1 0x0 DUP2 SWAP1 POP SWAP2 SWAP1 POP JUMP JUMPDEST PUSH2 0xA0F DUP2 PUSH2 0x9FC JUMP JUMPDEST DUP3 MSTORE POP POP JUMP JUMPDEST PUSH1 0x0 PUSH1 0x20 DUP3 ADD SWAP1 POP PUSH2 0xA2A PUSH1 0x0 DUP4 ADD DUP5 PUSH2 0xA06 JUMP JUMPDEST SWAP3 SWAP2 POP POP JUMP JUMPDEST PUSH1 0x0 PUSH20 0xFFFFFFFFFFFFFFFFFFFFFFFFFFFFFFFFFFFFFFFF DUP3 AND SWAP1 POP SWAP2 SWAP1 POP JUMP JUMPDEST PUSH1 0x0 PUSH2 0xA5B DUP3 PUSH2 0xA30 JUMP JUMPDEST SWAP1 POP SWAP2 SWAP1 POP JUMP JUMPDEST PUSH2 0xA6B DUP2 PUSH2 0xA50 JUMP JUMPDEST DUP3 MSTORE POP POP JUMP JUMPDEST PUSH1 0x0 PUSH1 0x20 DUP3 ADD SWAP1 POP PUSH2 0xA86 PUSH1 0x0 DUP4 ADD DUP5 PUSH2 0xA62 JUMP JUMPDEST SWAP3 SWAP2 POP POP JUMP JUMPDEST PUSH1 0x0 DUP2 SWAP1 POP SWAP2 SWAP1 POP JUMP JUMPDEST PUSH1 0x0 PUSH2 0xAB1 PUSH2 0xAAC PUSH2 0xAA7 DUP5 PUSH2 0xA30 JUMP JUMPDEST PUSH2 0xA8C JUMP JUMPDEST PUSH2 0xA30 JUMP JUMPDEST SWAP1 POP SWAP2 SWAP1 POP JUMP JUMPDEST PUSH1 0x0 PUSH2 0xAC3 DUP3 PUSH2 0xA96 JUMP JUMPDEST SWAP1 POP SWAP2 SWAP1 POP JUMP JUMPDEST PUSH1 0x0 PUSH2 0xAD5 DUP3 PUSH2 0xAB8 JUMP JUMPDEST SWAP1 POP SWAP2 SWAP1 POP JUMP JUMPDEST PUSH2 0xAE5 DUP2 PUSH2 0xACA JUMP JUMPDEST DUP3 MSTORE POP POP JUMP JUMPDEST PUSH1 0x0 PUSH1 0x20 DUP3 ADD SWAP1 POP PUSH2 0xB00 PUSH1 0x0 DUP4 ADD DUP5 PUSH2 0xADC JUMP JUMPDEST SWAP3 SWAP2 POP POP JUMP JUMPDEST PUSH1 0x0 DUP2 SWAP1 POP SWAP2 SWAP1 POP JUMP JUMPDEST PUSH2 0xB19 DUP2 PUSH2 0xB06 JUMP JUMPDEST DUP3 MSTORE POP POP JUMP JUMPDEST PUSH1 0x0 PUSH1 0x20 DUP3 ADD SWAP1 POP PUSH2 0xB34 PUSH1 0x0 DUP4 ADD DUP5 PUSH2 0xB10 JUMP JUMPDEST SWAP3 SWAP2 POP POP JUMP JUMPDEST PUSH1 0x0 PUSH1 0x40 MLOAD SWAP1 POP SWAP1 JUMP JUMPDEST PUSH1 0x0 DUP1 REVERT JUMPDEST PUSH2 0xB52 DUP2 PUSH2 0xA50 JUMP JUMPDEST DUP2 EQ PUSH2 0xB5D JUMPI PUSH1 0x0 DUP1 REVERT JUMPDEST POP JUMP JUMPDEST PUSH1 0x0 DUP2 CALLDATALOAD SWAP1 POP PUSH2 0xB6F DUP2 PUSH2 0xB49 JUMP JUMPDEST SWAP3 SWAP2 POP POP JUMP JUMPDEST PUSH1 0x0 PUSH1 0x20 DUP3 DUP5 SUB SLT ISZERO PUSH2 0xB8B JUMPI PUSH2 0xB8A PUSH2 0xB44 JUMP JUMPDEST JUMPDEST PUSH1 0x0 PUSH2 0xB99 DUP5 DUP3 DUP6 ADD PUSH2 0xB60 JUMP JUMPDEST SWAP2 POP POP SWAP3 SWAP2 POP POP JUMP JUMPDEST PUSH1 0x0 PUSH2 0xBAD DUP3 PUSH2 0xAB8 JUMP JUMPDEST SWAP1 POP SWAP2 SWAP1 POP JUMP JUMPDEST PUSH2 0xBBD DUP2 PUSH2 0xBA2 JUMP JUMPDEST DUP3 MSTORE POP POP JUMP JUMPDEST PUSH1 0x0 PUSH1 0x20 DUP3 ADD SWAP1 POP PUSH2 0xBD8 PUSH1 0x0 DUP4 ADD DUP5 PUSH2 0xBB4 JUMP JUMPDEST SWAP3 SWAP2 POP POP JUMP JUMPDEST PUSH1 0x0 DUP1 REVERT JUMPDEST PUSH1 0x0 PUSH1 0x1F NOT PUSH1 0x1F DUP4 ADD AND SWAP1 POP SWAP2 SWAP1 POP JUMP JUMPDEST PUSH32 0x4E487B7100000000000000000000000000000000000000000000000000000000 PUSH1 0x0 MSTORE PUSH1 0x41 PUSH1 0x4 MSTORE PUSH1 0x24 PUSH1 0x0 REVERT JUMPDEST PUSH2 0xC2C DUP3 PUSH2 0xBE3 JUMP JUMPDEST DUP2 ADD DUP2 DUP2 LT PUSH8 0xFFFFFFFFFFFFFFFF DUP3 GT OR ISZERO PUSH2 0xC4B JUMPI PUSH2 0xC4A PUSH2 0xBF4 JUMP JUMPDEST JUMPDEST DUP1 PUSH1 0x40 MSTORE POP POP POP JUMP JUMPDEST PUSH1 0x0 PUSH2 0xC5E PUSH2 0xB3A JUMP JUMPDEST SWAP1 POP PUSH2 0xC6A DUP3 DUP3 PUSH2 0xC23 JUMP JUMPDEST SWAP2 SWAP1 POP JUMP JUMPDEST PUSH1 0x0 DUP2 PUSH1 0x7 SIGNEXTEND SWAP1 POP SWAP2 SWAP1 POP JUMP JUMPDEST PUSH2 0xC85 DUP2 PUSH2 0xC6F JUMP JUMPDEST DUP2 EQ PUSH2 0xC90 JUMPI PUSH1 0x0 DUP1 REVERT JUMPDEST POP JUMP JUMPDEST PUSH1 0x0 DUP2 MLOAD SWAP1 POP PUSH2 0xCA2 DUP2 PUSH2 0xC7C JUMP JUMPDEST SWAP3 SWAP2 POP POP JUMP JUMPDEST PUSH1 0x0 PUSH8 0xFFFFFFFFFFFFFFFF DUP3 AND SWAP1 POP SWAP2 SWAP1 POP JUMP JUMPDEST PUSH2 0xCC5 DUP2 PUSH2 0xCA8 JUMP JUMPDEST DUP2 EQ PUSH2 0xCD0 JUMPI PUSH1 0x0 DUP1 REVERT JUMPDEST POP JUMP JUMPDEST PUSH1 0x0 DUP2 MLOAD SWAP1 POP PUSH2 0xCE2 DUP2 PUSH2 0xCBC JUMP JUMPDEST SWAP3 SWAP2 POP POP JUMP JUMPDEST PUSH1 0x0 DUP2 PUSH1 0x3 SIGNEXTEND SWAP1 POP SWAP2 SWAP1 POP JUMP JUMPDEST PUSH2 0xCFE DUP2 PUSH2 0xCE8 JUMP JUMPDEST DUP2 EQ PUSH2 0xD09 JUMPI PUSH1 0x0 DUP1 REVERT JUMPDEST POP JUMP JUMPDEST PUSH1 0x0 DUP2 MLOAD SWAP1 POP PUSH2 0xD1B DUP2 PUSH2 0xCF5 JUMP JUMPDEST SWAP3 SWAP2 POP POP JUMP JUMPDEST PUSH2 0xD2A DUP2 PUSH2 0x9FC JUMP JUMPDEST DUP2 EQ PUSH2 0xD35 JUMPI PUSH1 0x0 DUP1 REVERT JUMPDEST POP JUMP JUMPDEST PUSH1 0x0 DUP2 MLOAD SWAP1 POP PUSH2 0xD47 DUP2 PUSH2 0xD21 JUMP JUMPDEST SWAP3 SWAP2 POP POP JUMP JUMPDEST PUSH1 0x0 PUSH1 0x80 DUP3 DUP5 SUB SLT ISZERO PUSH2 0xD63 JUMPI PUSH2 0xD62 PUSH2 0xBDE JUMP JUMPDEST JUMPDEST PUSH2 0xD6D PUSH1 0x80 PUSH2 0xC54 JUMP JUMPDEST SWAP1 POP PUSH1 0x0 PUSH2 0xD7D DUP5 DUP3 DUP6 ADD PUSH2 0xC93 JUMP JUMPDEST PUSH1 0x0 DUP4 ADD MSTORE POP PUSH1 0x20 PUSH2 0xD91 DUP5 DUP3 DUP6 ADD PUSH2 0xCD3 JUMP JUMPDEST PUSH1 0x20 DUP4 ADD MSTORE POP PUSH1 0x40 PUSH2 0xDA5 DUP5 DUP3 DUP6 ADD PUSH2 0xD0C JUMP JUMPDEST PUSH1 0x40 DUP4 ADD MSTORE POP PUSH1 0x60 PUSH2 0xDB9 DUP5 DUP3 DUP6 ADD PUSH2 0xD38 JUMP JUMPDEST PUSH1 0x60 DUP4 ADD MSTORE POP SWAP3 SWAP2 POP POP JUMP JUMPDEST PUSH1 0x0 PUSH1 0x80 DUP3 DUP5 SUB SLT ISZERO PUSH2 0xDDB JUMPI PUSH2 0xDDA PUSH2 0xB44 JUMP JUMPDEST JUMPDEST PUSH1 0x0 PUSH2 0xDE9 DUP5 DUP3 DUP6 ADD PUSH2 0xD4D JUMP JUMPDEST SWAP2 POP POP SWAP3 SWAP2 POP POP JUMP JUMPDEST PUSH1 0x0 PUSH1 0x20 DUP3 DUP5 SUB SLT ISZERO PUSH2 0xE08 JUMPI PUSH2 0xE07 PUSH2 0xB44 JUMP JUMPDEST JUMPDEST PUSH1 0x0 PUSH2 0xE16 DUP5 DUP3 DUP6 ADD PUSH2 0xD38 JUMP JUMPDEST SWAP2 POP POP SWAP3 SWAP2 POP POP JUMP JUMPDEST PUSH32 0x4E487B7100000000000000000000000000000000000000000000000000000000 PUSH1 0x0 MSTORE PUSH1 0x11 PUSH1 0x4 MSTORE PUSH1 0x24 PUSH1 0x0 REVERT JUMPDEST PUSH1 0x0 PUSH2 0xE59 DUP3 PUSH2 0x9FC JUMP JUMPDEST SWAP2 POP PUSH2 0xE64 DUP4 PUSH2 0x9FC JUMP JUMPDEST SWAP3 POP DUP3 DUP3 ADD SWAP1 POP DUP1 DUP3 GT ISZERO PUSH2 0xE7C JUMPI PUSH2 0xE7B PUSH2 0xE1F JUMP JUMPDEST JUMPDEST SWAP3 SWAP2 POP POP JUMP JUMPDEST PUSH1 0x0 PUSH2 0xE8D DUP3 PUSH2 0x9FC JUMP JUMPDEST SWAP2 POP PUSH2 0xE98 DUP4 PUSH2 0x9FC JUMP JUMPDEST SWAP3 POP DUP3 DUP3 SUB SWAP1 POP DUP2 DUP2 GT ISZERO PUSH2 0xEB0 JUMPI PUSH2 0xEAF PUSH2 0xE1F JUMP JUMPDEST JUMPDEST SWAP3 SWAP2 POP POP JUMP JUMPDEST PUSH1 0x0 PUSH2 0xEC1 DUP3 PUSH2 0x9FC JUMP JUMPDEST SWAP2 POP PUSH2 0xECC DUP4 PUSH2 0x9FC JUMP JUMPDEST SWAP3 POP DUP3 DUP3 MUL PUSH2 0xEDA DUP2 PUSH2 0x9FC JUMP JUMPDEST SWAP2 POP DUP3 DUP3 DIV DUP5 EQ DUP4 ISZERO OR PUSH2 0xEF1 JUMPI PUSH2 0xEF0 PUSH2 0xE1F JUMP JUMPDEST JUMPDEST POP SWAP3 SWAP2 POP POP JUMP JUMPDEST PUSH32 0x4E487B7100000000000000000000000000000000000000000000000000000000 PUSH1 0x0 MSTORE PUSH1 0x12 PUSH1 0x4 MSTORE PUSH1 0x24 PUSH1 0x0 REVERT JUMPDEST PUSH1 0x0 PUSH2 0xF32 DUP3 PUSH2 0x9FC JUMP JUMPDEST SWAP2 POP PUSH2 0xF3D DUP4 PUSH2 0x9FC JUMP JUMPDEST SWAP3 POP DUP3 PUSH2 0xF4D JUMPI PUSH2 0xF4C PUSH2 0xEF8 JUMP JUMPDEST JUMPDEST DUP3 DUP3 DIV SWAP1 POP SWAP3 SWAP2 POP POP JUMP JUMPDEST PUSH1 0x0 PUSH1 0x40 DUP3 ADD SWAP1 POP PUSH2 0xF6D PUSH1 0x0 DUP4 ADD DUP6 PUSH2 0xA62 JUMP JUMPDEST PUSH2 0xF7A PUSH1 0x20 DUP4 ADD DUP5 PUSH2 0xA06 JUMP JUMPDEST SWAP4 SWAP3 POP POP POP JUMP JUMPDEST PUSH1 0x0 DUP2 ISZERO ISZERO SWAP1 POP SWAP2 SWAP1 POP JUMP JUMPDEST PUSH2 0xF96 DUP2 PUSH2 0xF81 JUMP JUMPDEST DUP3 MSTORE POP POP JUMP JUMPDEST PUSH1 0x0 PUSH1 0x60 DUP3 ADD SWAP1 POP PUSH2 0xFB1 PUSH1 0x0 DUP4 ADD DUP7 PUSH2 0xA06 JUMP JUMPDEST PUSH2 0xFBE PUSH1 0x20 DUP4 ADD DUP6 PUSH2 0xA06 JUMP JUMPDEST PUSH2 0xFCB PUSH1 0x40 DUP4 ADD DUP5 PUSH2 0xF8D JUMP JUMPDEST SWAP5 SWAP4 POP POP POP POP JUMP JUMPDEST PUSH1 0x0 DUP3 DUP3 MSTORE PUSH1 0x20 DUP3 ADD SWAP1 POP SWAP3 SWAP2 POP POP JUMP JUMPDEST PUSH32 0x4F776E61626C653A206E6577206F776E657220697320746865207A65726F2061 PUSH1 0x0 DUP3 ADD MSTORE PUSH32 0x6464726573730000000000000000000000000000000000000000000000000000 PUSH1 0x20 DUP3 ADD MSTORE POP JUMP JUMPDEST PUSH1 0x0 PUSH2 0x1040 PUSH1 0x26 DUP4 PUSH2 0xFD3 JUMP JUMPDEST SWAP2 POP PUSH2 0x104B DUP3 PUSH2 0xFE4 JUMP JUMPDEST PUSH1 0x40 DUP3 ADD SWAP1 POP SWAP2 SWAP1 POP JUMP JUMPDEST PUSH1 0x0 PUSH1 0x20 DUP3 ADD SWAP1 POP DUP2 DUP2 SUB PUSH1 0x0 DUP4 ADD MSTORE PUSH2 0x106F DUP2 PUSH2 0x1033 JUMP JUMPDEST SWAP1 POP SWAP2 SWAP1 POP JUMP JUMPDEST PUSH32 0x496E76616C696420707269636500000000000000000000000000000000000000 PUSH1 0x0 DUP3 ADD MSTORE POP JUMP JUMPDEST PUSH1 0x0 PUSH2 0x10AC PUSH1 0xD DUP4 PUSH2 0xFD3 JUMP JUMPDEST SWAP2 POP PUSH2 0x10B7 DUP3 PUSH2 0x1076 JUMP JUMPDEST PUSH1 0x20 DUP3 ADD SWAP1 POP SWAP2 SWAP1 POP JUMP JUMPDEST PUSH1 0x0 PUSH1 0x20 DUP3 ADD SWAP1 POP DUP2 DUP2 SUB PUSH1 0x0 DUP4 ADD MSTORE PUSH2 0x10DB DUP2 PUSH2 0x109F JUMP JUMPDEST SWAP1 POP SWAP2 SWAP1 POP JUMP JUMPDEST PUSH1 0x0 PUSH2 0x10ED DUP3 PUSH2 0xCE8 JUMP JUMPDEST SWAP2 POP PUSH2 0x10F8 DUP4 PUSH2 0xCE8 JUMP JUMPDEST SWAP3 POP DUP3 DUP3 MUL PUSH2 0x1106 DUP2 PUSH2 0xCE8 JUMP JUMPDEST SWAP2 POP DUP1 DUP3 EQ PUSH2 0x1118 JUMPI PUSH2 0x1117 PUSH2 0xE1F JUMP JUMPDEST JUMPDEST POP SWAP3 SWAP2 POP POP JUMP JUMPDEST PUSH1 0x0 PUSH1 0xFF DUP3 AND SWAP1 POP SWAP2 SWAP1 POP JUMP JUMPDEST PUSH1 0x0 PUSH2 0x1137 DUP3 PUSH2 0x111F JUMP JUMPDEST SWAP2 POP PUSH2 0x1142 DUP4 PUSH2 0x111F JUMP JUMPDEST SWAP3 POP DUP3 DUP3 SUB SWAP1 POP PUSH1 0xFF DUP2 GT ISZERO PUSH2 0x115B JUMPI PUSH2 0x115A PUSH2 0xE1F JUMP JUMPDEST JUMPDEST SWAP3 SWAP2 POP POP JUMP JUMPDEST PUSH1 0x0 DUP2 PUSH1 0x1 SHR SWAP1 POP SWAP2 SWAP1 POP JUMP JUMPDEST PUSH1 0x0 DUP1 DUP3 SWAP2 POP DUP4 SWAP1 POP JUMPDEST PUSH1 0x1 DUP6 GT ISZERO PUSH2 0x11B8 JUMPI DUP1 DUP7 DIV DUP2 GT ISZERO PUSH2 0x1194 JUMPI PUSH2 0x1193 PUSH2 0xE1F JUMP JUMPDEST JUMPDEST PUSH1 0x1 DUP6 AND ISZERO PUSH2 0x11A3 JUMPI DUP1 DUP3 MUL SWAP2 POP JUMPDEST DUP1 DUP2 MUL SWAP1 POP PUSH2 0x11B1 DUP6 PUSH2 0x1161 JUMP JUMPDEST SWAP5 POP PUSH2 0x1178 JUMP JUMPDEST SWAP5 POP SWAP5 SWAP3 POP POP POP JUMP JUMPDEST PUSH1 0x0 DUP3 PUSH2 0x11D1 JUMPI PUSH1 0x1 SWAP1 POP PUSH2 0x128D JUMP JUMPDEST DUP2 PUSH2 0x11DF JUMPI PUSH1 0x0 SWAP1 POP PUSH2 0x128D JUMP JUMPDEST DUP2 PUSH1 0x1 DUP2 EQ PUSH2 0x11F5 JUMPI PUSH1 0x2 DUP2 EQ PUSH2 0x11FF JUMPI PUSH2 0x122E JUMP JUMPDEST PUSH1 0x1 SWAP2 POP POP PUSH2 0x128D JUMP JUMPDEST PUSH1 0xFF DUP5 GT ISZERO PUSH2 0x1211 JUMPI PUSH2 0x1210 PUSH2 0xE1F JUMP JUMPDEST JUMPDEST DUP4 PUSH1 0x2 EXP SWAP2 POP DUP5 DUP3 GT ISZERO PUSH2 0x1228 JUMPI PUSH2 0x1227 PUSH2 0xE1F JUMP JUMPDEST JUMPDEST POP PUSH2 0x128D JUMP JUMPDEST POP PUSH1 0x20 DUP4 LT PUSH2 0x133 DUP4 LT AND PUSH1 0x4E DUP5 LT PUSH1 0xB DUP5 LT AND OR ISZERO PUSH2 0x1263 JUMPI DUP3 DUP3 EXP SWAP1 POP DUP4 DUP2 GT ISZERO PUSH2 0x125E JUMPI PUSH2 0x125D PUSH2 0xE1F JUMP JUMPDEST JUMPDEST PUSH2 0x128D JUMP JUMPDEST PUSH2 0x1270 DUP5 DUP5 DUP5 PUSH1 0x1 PUSH2 0x116E JUMP JUMPDEST SWAP3 POP SWAP1 POP DUP2 DUP5 DIV DUP2 GT ISZERO PUSH2 0x1287 JUMPI PUSH2 0x1286 PUSH2 0xE1F JUMP JUMPDEST JUMPDEST DUP2 DUP2 MUL SWAP1 POP JUMPDEST SWAP4 SWAP3 POP POP POP JUMP JUMPDEST PUSH1 0x0 PUSH2 0x129F DUP3 PUSH2 0x9FC JUMP JUMPDEST SWAP2 POP PUSH2 0x12AA DUP4 PUSH2 0x9FC JUMP JUMPDEST SWAP3 POP PUSH2 0x12D7 PUSH32 0xFFFFFFFFFFFFFFFFFFFFFFFFFFFFFFFFFFFFFFFFFFFFFFFFFFFFFFFFFFFFFFFF DUP5 DUP5 PUSH2 0x11C1 JUMP JUMPDEST SWAP1 POP SWAP3 SWAP2 POP POP JUMP JUMPDEST PUSH32 0x4F776E61626C653A2063616C6C6572206973206E6F7420746865206F776E6572 PUSH1 0x0 DUP3 ADD MSTORE POP JUMP JUMPDEST PUSH1 0x0 PUSH2 0x1315 PUSH1 0x20 DUP4 PUSH2 0xFD3 JUMP JUMPDEST SWAP2 POP PUSH2 0x1320 DUP3 PUSH2 0x12DF JUMP JUMPDEST PUSH1 0x20 DUP3 ADD SWAP1 POP SWAP2 SWAP1 POP JUMP JUMPDEST PUSH1 0x0 PUSH1 0x20 DUP3 ADD SWAP1 POP DUP2 DUP2 SUB PUSH1 0x0 DUP4 ADD MSTORE PUSH2 0x1344 DUP2 PUSH2 0x1308 JUMP JUMPDEST SWAP1 POP SWAP2 SWAP1 POP JUMP JUMPDEST PUSH32 0x5265656E7472616E637947756172643A207265656E7472616E742063616C6C00 PUSH1 0x0 DUP3 ADD MSTORE POP JUMP JUMPDEST PUSH1 0x0 PUSH2 0x1381 PUSH1 0x1F DUP4 PUSH2 0xFD3 JUMP JUMPDEST SWAP2 POP PUSH2 0x138C DUP3 PUSH2 0x134B JUMP JUMPDEST PUSH1 0x20 DUP3 ADD SWAP1 POP SWAP2 SWAP1 POP JUMP JUMPDEST PUSH1 0x0 PUSH1 0x20 DUP3 ADD SWAP1 POP DUP2 DUP2 SUB PUSH1 0x0 DUP4 ADD MSTORE PUSH2 0x13B0 DUP2 PUSH2 0x1374 JUMP JUMPDEST SWAP1 POP SWAP2 SWAP1 POP JUMP INVALID LOG2 PUSH5 0x6970667358 0x22 SLT KECCAK256 AND PUSH17 0x8C17B2F06679F7A839C2F233B0A4EAD7D9 PUSH29 0xA69E1317439580E82FA6EDFF64736F6C63430008140033000000000000 "},"methodIdentifiers":{"audUsdPriceId()":"c775659f","audb()":"9c4282ed","deviationThreshold()":"d94ad837","getMarketPrice()":"660e16c3","owner()":"8da5cb5b","peg()":"1f1cb62b","pyth()":"f98d06f0","rebalance()":"7d7c2a1c","renounceOwnership()":"715018a6","transferOwnership(address)":"f2fde38b"}}}}}