{"contracts/LiquidityManager.sol":{"LiquidityManager":{"abi":[{"inputs":[{"internalType":"address","name":"_router","type":"address"},{"internalType":"address","name":"_audb","type":"address"},{"internalType":"address","name":"_collateral","type":"address"}],"stateMutability":"nonpayable","type":"constructor"},{"anonymous":false,"inputs":[{"indexed":true,"internalType":"address","name":"previousOwner","type":"address"},{"indexed":true,"internalType":"address","name":"newOwner","type":"address"}],"name":"OwnershipTransferred","type":"event"},{"inputs":[{"internalType":"uint256","name":"audbAmount","type":"uint256"},{"internalType":"uint256","name":"collateralAmount","type":"uint256"}],"name":"addLiquidity","outputs":[],"stateMutability":"nonpayable","type":"function"},{"inputs":[],"name":"audb","outputs":[{"internalType":"address","name":"","type":"address"}],"stateMutability":"view","type":"function"},{"inputs":[],"name":"collateral","outputs":[{"internalType":"address","name":"","type":"address"}],"stateMutability":"view","type":"function"},{"inputs":[],"name":"owner","outputs":[{"internalType":"address","name":"","type":"address"}],"stateMutability":"view","type":"function"},{"inputs":[],"name":"renounceOwnership","outputs":[],"stateMutability":"nonpayable","type":"function"},{"inputs":[],"name":"router","outputs":[{"internalType":"contract IJoeRouter02","name":"","type":"address"}],"stateMutability":"view","type":"function"},{"inputs":[{"internalType":"address","name":"newOwner","type":"address"}],"name":"transferOwnership","outputs":[],"stateMutability":"nonpayable","type":"function"},{"inputs":[{"internalType":"address","name":"token","type":"address"},{"internalType":"uint256","name":"amount","type":"uint256"}],"name":"withdraw","outputs":[],"stateMutability":"nonpayable","type":"function"}],"evm":{"bytecode":{"linkReferences":{},"object":"60806040523480156200001157600080fd5b506040516200108f3803806200108f833981810160405281019062000037919062000259565b620000576200004b6200012360201b60201c565b6200012b60201b60201c565b82600160006101000a81548173ffffffffffffffffffffffffffffffffffffffff021916908373ffffffffffffffffffffffffffffffffffffffff16021790555081600260006101000a81548173ffffffffffffffffffffffffffffffffffffffff021916908373ffffffffffffffffffffffffffffffffffffffff16021790555080600360006101000a81548173ffffffffffffffffffffffffffffffffffffffff021916908373ffffffffffffffffffffffffffffffffffffffff160217905550505050620002b5565b600033905090565b60008060009054906101000a900473ffffffffffffffffffffffffffffffffffffffff169050816000806101000a81548173ffffffffffffffffffffffffffffffffffffffff021916908373ffffffffffffffffffffffffffffffffffffffff1602179055508173ffffffffffffffffffffffffffffffffffffffff168173ffffffffffffffffffffffffffffffffffffffff167f8be0079c531659141344cd1fd0a4f28419497f9722a3daafe3b4186f6b6457e060405160405180910390a35050565b600080fd5b600073ffffffffffffffffffffffffffffffffffffffff82169050919050565b60006200022182620001f4565b9050919050565b620002338162000214565b81146200023f57600080fd5b50565b600081519050620002538162000228565b92915050565b600080600060608486031215620002755762000274620001ef565b5b6000620002858682870162000242565b9350506020620002988682870162000242565b9250506040620002ab8682870162000242565b9150509250925092565b610dca80620002c56000396000f3fe608060405234801561001057600080fd5b50600436106100885760003560e01c8063d8dfeb451161005b578063d8dfeb45146100ef578063f2fde38b1461010d578063f3fef3a314610129578063f887ea401461014557610088565b8063715018a61461008d5780638da5cb5b146100975780639c4282ed146100b55780639cd441da146100d3575b600080fd5b610095610163565b005b61009f610177565b6040516100ac9190610884565b60405180910390f35b6100bd6101a0565b6040516100ca9190610884565b60405180910390f35b6100ed60048036038101906100e891906108da565b6101c6565b005b6100f761059f565b6040516101049190610884565b60405180910390f35b61012760048036038101906101229190610946565b6105c5565b005b610143600480360381019061013e9190610973565b610648565b005b61014d6106d3565b60405161015a9190610a12565b60405180910390f35b61016b6106f9565b6101756000610777565b565b60008060009054906101000a900473ffffffffffffffffffffffffffffffffffffffff16905090565b600260009054906101000a900473ffffffffffffffffffffffffffffffffffffffff1681565b6101ce6106f9565b600260009054906101000a900473ffffffffffffffffffffffffffffffffffffffff1673ffffffffffffffffffffffffffffffffffffffff166323b872dd3330856040518463ffffffff1660e01b815260040161022d93929190610a3c565b6020604051808303816000875af115801561024c573d6000803e3d6000fd5b505050506040513d601f19601f820116820180604052508101906102709190610aab565b50600360009054906101000a900473ffffffffffffffffffffffffffffffffffffffff1673ffffffffffffffffffffffffffffffffffffffff166323b872dd3330846040518463ffffffff1660e01b81526004016102d093929190610a3c565b6020604051808303816000875af11580156102ef573d6000803e3d6000fd5b505050506040513d601f19601f820116820180604052508101906103139190610aab565b50600260009054906101000a900473ffffffffffffffffffffffffffffffffffffffff1673ffffffffffffffffffffffffffffffffffffffff1663095ea7b3600160009054906101000a900473ffffffffffffffffffffffffffffffffffffffff16846040518363ffffffff1660e01b8152600401610393929190610ad8565b6020604051808303816000875af11580156103b2573d6000803e3d6000fd5b505050506040513d601f19601f820116820180604052508101906103d69190610aab565b50600360009054906101000a900473ffffffffffffffffffffffffffffffffffffffff1673ffffffffffffffffffffffffffffffffffffffff1663095ea7b3600160009054906101000a900473ffffffffffffffffffffffffffffffffffffffff16836040518363ffffffff1660e01b8152600401610456929190610ad8565b6020604051808303816000875af1158015610475573d6000803e3d6000fd5b505050506040513d601f19601f820116820180604052508101906104999190610aab565b50600160009054906101000a900473ffffffffffffffffffffffffffffffffffffffff1673ffffffffffffffffffffffffffffffffffffffff1663e8e33700600260009054906101000a900473ffffffffffffffffffffffffffffffffffffffff16600360009054906101000a900473ffffffffffffffffffffffffffffffffffffffff1685856000803061012c426105329190610b30565b6040518963ffffffff1660e01b8152600401610555989796959493929190610b9f565b6060604051808303816000875af1158015610574573d6000803e3d6000fd5b505050506040513d601f19601f820116820180604052508101906105989190610c32565b5050505050565b600360009054906101000a900473ffffffffffffffffffffffffffffffffffffffff1681565b6105cd6106f9565b600073ffffffffffffffffffffffffffffffffffffffff168173ffffffffffffffffffffffffffffffffffffffff160361063c576040517f08c379a000000000000000000000000000000000000000000000000000000000815260040161063390610d08565b60405180910390fd5b61064581610777565b50565b6106506106f9565b8173ffffffffffffffffffffffffffffffffffffffff1663a9059cbb33836040518363ffffffff1660e01b815260040161068b929190610ad8565b6020604051808303816000875af11580156106aa573d6000803e3d6000fd5b505050506040513d601f19601f820116820180604052508101906106ce9190610aab565b505050565b600160009054906101000a900473ffffffffffffffffffffffffffffffffffffffff1681565b61070161083b565b73ffffffffffffffffffffffffffffffffffffffff1661071f610177565b73ffffffffffffffffffffffffffffffffffffffff1614610775576040517f08c379a000000000000000000000000000000000000000000000000000000000815260040161076c90610d74565b60405180910390fd5b565b60008060009054906101000a900473ffffffffffffffffffffffffffffffffffffffff169050816000806101000a81548173ffffffffffffffffffffffffffffffffffffffff021916908373ffffffffffffffffffffffffffffffffffffffff1602179055508173ffffffffffffffffffffffffffffffffffffffff168173ffffffffffffffffffffffffffffffffffffffff167f8be0079c531659141344cd1fd0a4f28419497f9722a3daafe3b4186f6b6457e060405160405180910390a35050565b600033905090565b600073ffffffffffffffffffffffffffffffffffffffff82169050919050565b600061086e82610843565b9050919050565b61087e81610863565b82525050565b60006020820190506108996000830184610875565b92915050565b600080fd5b6000819050919050565b6108b7816108a4565b81146108c257600080fd5b50565b6000813590506108d4816108ae565b92915050565b600080604083850312156108f1576108f061089f565b5b60006108ff858286016108c5565b9250506020610910858286016108c5565b9150509250929050565b61092381610863565b811461092e57600080fd5b50565b6000813590506109408161091a565b92915050565b60006020828403121561095c5761095b61089f565b5b600061096a84828501610931565b91505092915050565b6000806040838503121561098a5761098961089f565b5b600061099885828601610931565b92505060206109a9858286016108c5565b9150509250929050565b6000819050919050565b60006109d86109d36109ce84610843565b6109b3565b610843565b9050919050565b60006109ea826109bd565b9050919050565b60006109fc826109df565b9050919050565b610a0c816109f1565b82525050565b6000602082019050610a276000830184610a03565b92915050565b610a36816108a4565b82525050565b6000606082019050610a516000830186610875565b610a5e6020830185610875565b610a6b6040830184610a2d565b949350505050565b60008115159050919050565b610a8881610a73565b8114610a9357600080fd5b50565b600081519050610aa581610a7f565b92915050565b600060208284031215610ac157610ac061089f565b5b6000610acf84828501610a96565b91505092915050565b6000604082019050610aed6000830185610875565b610afa6020830184610a2d565b9392505050565b7f4e487b7100000000000000000000000000000000000000000000000000000000600052601160045260246000fd5b6000610b3b826108a4565b9150610b46836108a4565b9250828201905080821115610b5e57610b5d610b01565b5b92915050565b6000819050919050565b6000610b89610b84610b7f84610b64565b6109b3565b6108a4565b9050919050565b610b9981610b6e565b82525050565b600061010082019050610bb5600083018b610875565b610bc2602083018a610875565b610bcf6040830189610a2d565b610bdc6060830188610a2d565b610be96080830187610b90565b610bf660a0830186610b90565b610c0360c0830185610875565b610c1060e0830184610a2d565b9998505050505050505050565b600081519050610c2c816108ae565b92915050565b600080600060608486031215610c4b57610c4a61089f565b5b6000610c5986828701610c1d565b9350506020610c6a86828701610c1d565b9250506040610c7b86828701610c1d565b9150509250925092565b600082825260208201905092915050565b7f4f776e61626c653a206e6577206f776e657220697320746865207a65726f206160008201527f6464726573730000000000000000000000000000000000000000000000000000602082015250565b6000610cf2602683610c85565b9150610cfd82610c96565b604082019050919050565b60006020820190508181036000830152610d2181610ce5565b9050919050565b7f4f776e61626c653a2063616c6c6572206973206e6f7420746865206f776e6572600082015250565b6000610d5e602083610c85565b9150610d6982610d28565b602082019050919050565b60006020820190508181036000830152610d8d81610d51565b905091905056fea26469706673582212206a1e8cbc0ea32254b0437d300507697773a48f7c9fedcd2843d7e2479d76863e64736f6c63430008140033","opcodes":"PUSH1 0x80 PUSH1 0x40 MSTORE CALLVALUE DUP1 ISZERO PUSH3 0x11 JUMPI PUSH1 0x0 DUP1 REVERT JUMPDEST POP PUSH1 0x40 MLOAD PUSH3 0x108F CODESIZE SUB DUP1 PUSH3 0x108F DUP4 CODECOPY DUP2 DUP2 ADD PUSH1 0x40 MSTORE DUP2 ADD SWAP1 PUSH3 0x37 SWAP2 SWAP1 PUSH3 0x259 JUMP JUMPDEST PUSH3 0x57 PUSH3 0x4B PUSH3 0x123 PUSH1 0x20 SHL PUSH1 0x20 SHR JUMP JUMPDEST PUSH3 0x12B PUSH1 0x20 SHL PUSH1 0x20 SHR JUMP JUMPDEST DUP3 PUSH1 0x1 PUSH1 0x0 PUSH2 0x100 EXP DUP2 SLOAD DUP2 PUSH20 0xFFFFFFFFFFFFFFFFFFFFFFFFFFFFFFFFFFFFFFFF MUL NOT AND SWAP1 DUP4 PUSH20 0xFFFFFFFFFFFFFFFFFFFFFFFFFFFFFFFFFFFFFFFF AND MUL OR SWAP1 SSTORE POP DUP2 PUSH1 0x2 PUSH1 0x0 PUSH2 0x100 EXP DUP2 SLOAD DUP2 PUSH20 0xFFFFFFFFFFFFFFFFFFFFFFFFFFFFFFFFFFFFFFFF MUL NOT AND SWAP1 DUP4 PUSH20 0xFFFFFFFFFFFFFFFFFFFFFFFFFFFFFFFFFFFFFFFF AND MUL OR SWAP1 SSTORE POP DUP1 PUSH1 0x3 PUSH1 0x0 PUSH2 0x100 EXP DUP2 SLOAD DUP2 PUSH20 0xFFFFFFFFFFFFFFFFFFFFFFFFFFFFFFFFFFFFFFFF MUL NOT AND SWAP1 DUP4 PUSH20 0xFFFFFFFFFFFFFFFFFFFFFFFFFFFFFFFFFFFFFFFF AND MUL OR SWAP1 SSTORE POP POP POP POP PUSH3 0x2B5 JUMP JUMPDEST PUSH1 0x0 CALLER SWAP1 POP SWAP1 JUMP JUMPDEST PUSH1 0x0 DUP1 PUSH1 0x0 SWAP1 SLOAD SWAP1 PUSH2 0x100 EXP SWAP1 DIV PUSH20 0xFFFFFFFFFFFFFFFFFFFFFFFFFFFFFFFFFFFFFFFF AND SWAP1 POP DUP2 PUSH1 0x0 DUP1 PUSH2 0x100 EXP DUP2 SLOAD DUP2 PUSH20 0xFFFFFFFFFFFFFFFFFFFFFFFFFFFFFFFFFFFFFFFF MUL NOT AND SWAP1 DUP4 PUSH20 0xFFFFFFFFFFFFFFFFFFFFFFFFFFFFFFFFFFFFFFFF AND MUL OR SWAP1 SSTORE POP DUP2 PUSH20 0xFFFFFFFFFFFFFFFFFFFFFFFFFFFFFFFFFFFFFFFF AND DUP2 PUSH20 0xFFFFFFFFFFFFFFFFFFFFFFFFFFFFFFFFFFFFFFFF AND PUSH32 0x8BE0079C531659141344CD1FD0A4F28419497F9722A3DAAFE3B4186F6B6457E0 PUSH1 0x40 MLOAD PUSH1 0x40 MLOAD DUP1 SWAP2 SUB SWAP1 LOG3 POP POP JUMP JUMPDEST PUSH1 0x0 DUP1 REVERT JUMPDEST PUSH1 0x0 PUSH20 0xFFFFFFFFFFFFFFFFFFFFFFFFFFFFFFFFFFFFFFFF DUP3 AND SWAP1 POP SWAP2 SWAP1 POP JUMP JUMPDEST PUSH1 0x0 PUSH3 0x221 DUP3 PUSH3 0x1F4 JUMP JUMPDEST SWAP1 POP SWAP2 SWAP1 POP JUMP JUMPDEST PUSH3 0x233 DUP2 PUSH3 0x214 JUMP JUMPDEST DUP2 EQ PUSH3 0x23F JUMPI PUSH1 0x0 DUP1 REVERT JUMPDEST POP JUMP JUMPDEST PUSH1 0x0 DUP2 MLOAD SWAP1 POP PUSH3 0x253 DUP2 PUSH3 0x228 JUMP JUMPDEST SWAP3 SWAP2 POP POP JUMP JUMPDEST PUSH1 0x0 DUP1 PUSH1 0x0 PUSH1 0x60 DUP5 DUP7 SUB SLT ISZERO PUSH3 0x275 JUMPI PUSH3 0x274 PUSH3 0x1EF JUMP JUMPDEST JUMPDEST PUSH1 0x0 PUSH3 0x285 DUP7 DUP3 DUP8 ADD PUSH3 0x242 JUMP JUMPDEST SWAP4 POP POP PUSH1 0x20 PUSH3 0x298 DUP7 DUP3 DUP8 ADD PUSH3 0x242 JUMP JUMPDEST SWAP3 POP POP PUSH1 0x40 PUSH3 0x2AB DUP7 DUP3 DUP8 ADD PUSH3 0x242 JUMP JUMPDEST SWAP2 POP POP SWAP3 POP SWAP3 POP SWAP3 JUMP JUMPDEST PUSH2 0xDCA DUP1 PUSH3 0x2C5 PUSH1 0x0 CODECOPY PUSH1 0x0 RETURN INVALID PUSH1 0x80 PUSH1 0x40 MSTORE CALLVALUE DUP1 ISZERO PUSH2 0x10 JUMPI PUSH1 0x0 DUP1 REVERT JUMPDEST POP PUSH1 0x4 CALLDATASIZE LT PUSH2 0x88 JUMPI PUSH1 0x0 CALLDATALOAD PUSH1 0xE0 SHR DUP1 PUSH4 0xD8DFEB45 GT PUSH2 0x5B JUMPI DUP1 PUSH4 0xD8DFEB45 EQ PUSH2 0xEF JUMPI DUP1 PUSH4 0xF2FDE38B EQ PUSH2 0x10D JUMPI DUP1 PUSH4 0xF3FEF3A3 EQ PUSH2 0x129 JUMPI DUP1 PUSH4 0xF887EA40 EQ PUSH2 0x145 JUMPI PUSH2 0x88 JUMP JUMPDEST DUP1 PUSH4 0x715018A6 EQ PUSH2 0x8D JUMPI DUP1 PUSH4 0x8DA5CB5B EQ PUSH2 0x97 JUMPI DUP1 PUSH4 0x9C4282ED EQ PUSH2 0xB5 JUMPI DUP1 PUSH4 0x9CD441DA EQ PUSH2 0xD3 JUMPI JUMPDEST PUSH1 0x0 DUP1 REVERT JUMPDEST PUSH2 0x95 PUSH2 0x163 JUMP JUMPDEST STOP JUMPDEST PUSH2 0x9F PUSH2 0x177 JUMP JUMPDEST PUSH1 0x40 MLOAD PUSH2 0xAC SWAP2 SWAP1 PUSH2 0x884 JUMP JUMPDEST PUSH1 0x40 MLOAD DUP1 SWAP2 SUB SWAP1 RETURN JUMPDEST PUSH2 0xBD PUSH2 0x1A0 JUMP JUMPDEST PUSH1 0x40 MLOAD PUSH2 0xCA SWAP2 SWAP1 PUSH2 0x884 JUMP JUMPDEST PUSH1 0x40 MLOAD DUP1 SWAP2 SUB SWAP1 RETURN JUMPDEST PUSH2 0xED PUSH1 0x4 DUP1 CALLDATASIZE SUB DUP2 ADD SWAP1 PUSH2 0xE8 SWAP2 SWAP1 PUSH2 0x8DA JUMP JUMPDEST PUSH2 0x1C6 JUMP JUMPDEST STOP JUMPDEST PUSH2 0xF7 PUSH2 0x59F JUMP JUMPDEST PUSH1 0x40 MLOAD PUSH2 0x104 SWAP2 SWAP1 PUSH2 0x884 JUMP JUMPDEST PUSH1 0x40 MLOAD DUP1 SWAP2 SUB SWAP1 RETURN JUMPDEST PUSH2 0x127 PUSH1 0x4 DUP1 CALLDATASIZE SUB DUP2 ADD SWAP1 PUSH2 0x122 SWAP2 SWAP1 PUSH2 0x946 JUMP JUMPDEST PUSH2 0x5C5 JUMP JUMPDEST STOP JUMPDEST PUSH2 0x143 PUSH1 0x4 DUP1 CALLDATASIZE SUB DUP2 ADD SWAP1 PUSH2 0x13E SWAP2 SWAP1 PUSH2 0x973 JUMP JUMPDEST PUSH2 0x648 JUMP JUMPDEST STOP JUMPDEST PUSH2 0x14D PUSH2 0x6D3 JUMP JUMPDEST PUSH1 0x40 MLOAD PUSH2 0x15A SWAP2 SWAP1 PUSH2 0xA12 JUMP JUMPDEST PUSH1 0x40 MLOAD DUP1 SWAP2 SUB SWAP1 RETURN JUMPDEST PUSH2 0x16B PUSH2 0x6F9 JUMP JUMPDEST PUSH2 0x175 PUSH1 0x0 PUSH2 0x777 JUMP JUMPDEST JUMP JUMPDEST PUSH1 0x0 DUP1 PUSH1 0x0 SWAP1 SLOAD SWAP1 PUSH2 0x100 EXP SWAP1 DIV PUSH20 0xFFFFFFFFFFFFFFFFFFFFFFFFFFFFFFFFFFFFFFFF AND SWAP1 POP SWAP1 JUMP JUMPDEST PUSH1 0x2 PUSH1 0x0 SWAP1 SLOAD SWAP1 PUSH2 0x100 EXP SWAP1 DIV PUSH20 0xFFFFFFFFFFFFFFFFFFFFFFFFFFFFFFFFFFFFFFFF AND DUP2 JUMP JUMPDEST PUSH2 0x1CE PUSH2 0x6F9 JUMP JUMPDEST PUSH1 0x2 PUSH1 0x0 SWAP1 SLOAD SWAP1 PUSH2 0x100 EXP SWAP1 DIV PUSH20 0xFFFFFFFFFFFFFFFFFFFFFFFFFFFFFFFFFFFFFFFF AND PUSH20 0xFFFFFFFFFFFFFFFFFFFFFFFFFFFFFFFFFFFFFFFF AND PUSH4 0x23B872DD CALLER ADDRESS DUP6 PUSH1 0x40 MLOAD DUP5 PUSH4 0xFFFFFFFF AND PUSH1 0xE0 SHL DUP2 MSTORE PUSH1 0x4 ADD PUSH2 0x22D SWAP4 SWAP3 SWAP2 SWAP1 PUSH2 0xA3C JUMP JUMPDEST PUSH1 0x20 PUSH1 0x40 MLOAD DUP1 DUP4 SUB DUP2 PUSH1 0x0 DUP8 GAS CALL ISZERO DUP1 ISZERO PUSH2 0x24C JUMPI RETURNDATASIZE PUSH1 0x0 DUP1 RETURNDATACOPY RETURNDATASIZE PUSH1 0x0 REVERT JUMPDEST POP POP POP POP PUSH1 0x40 MLOAD RETURNDATASIZE PUSH1 0x1F NOT PUSH1 0x1F DUP3 ADD AND DUP3 ADD DUP1 PUSH1 0x40 MSTORE POP DUP2 ADD SWAP1 PUSH2 0x270 SWAP2 SWAP1 PUSH2 0xAAB JUMP JUMPDEST POP PUSH1 0x3 PUSH1 0x0 SWAP1 SLOAD SWAP1 PUSH2 0x100 EXP SWAP1 DIV PUSH20 0xFFFFFFFFFFFFFFFFFFFFFFFFFFFFFFFFFFFFFFFF AND PUSH20 0xFFFFFFFFFFFFFFFFFFFFFFFFFFFFFFFFFFFFFFFF AND PUSH4 0x23B872DD CALLER ADDRESS DUP5 PUSH1 0x40 MLOAD DUP5 PUSH4 0xFFFFFFFF AND PUSH1 0xE0 SHL DUP2 MSTORE PUSH1 0x4 ADD PUSH2 0x2D0 SWAP4 SWAP3 SWAP2 SWAP1 PUSH2 0xA3C JUMP JUMPDEST PUSH1 0x20 PUSH1 0x40 MLOAD DUP1 DUP4 SUB DUP2 PUSH1 0x0 DUP8 GAS CALL ISZERO DUP1 ISZERO PUSH2 0x2EF JUMPI RETURNDATASIZE PUSH1 0x0 DUP1 RETURNDATACOPY RETURNDATASIZE PUSH1 0x0 REVERT JUMPDEST POP POP POP POP PUSH1 0x40 MLOAD RETURNDATASIZE PUSH1 0x1F NOT PUSH1 0x1F DUP3 ADD AND DUP3 ADD DUP1 PUSH1 0x40 MSTORE POP DUP2 ADD SWAP1 PUSH2 0x313 SWAP2 SWAP1 PUSH2 0xAAB JUMP JUMPDEST POP PUSH1 0x2 PUSH1 0x0 SWAP1 SLOAD SWAP1 PUSH2 0x100 EXP SWAP1 DIV PUSH20 0xFFFFFFFFFFFFFFFFFFFFFFFFFFFFFFFFFFFFFFFF AND PUSH20 0xFFFFFFFFFFFFFFFFFFFFFFFFFFFFFFFFFFFFFFFF AND PUSH4 0x95EA7B3 PUSH1 0x1 PUSH1 0x0 SWAP1 SLOAD SWAP1 PUSH2 0x100 EXP SWAP1 DIV PUSH20 0xFFFFFFFFFFFFFFFFFFFFFFFFFFFFFFFFFFFFFFFF AND DUP5 PUSH1 0x40 MLOAD DUP4 PUSH4 0xFFFFFFFF AND PUSH1 0xE0 SHL DUP2 MSTORE PUSH1 0x4 ADD PUSH2 0x393 SWAP3 SWAP2 SWAP1 PUSH2 0xAD8 JUMP JUMPDEST PUSH1 0x20 PUSH1 0x40 MLOAD DUP1 DUP4 SUB DUP2 PUSH1 0x0 DUP8 GAS CALL ISZERO DUP1 ISZERO PUSH2 0x3B2 JUMPI RETURNDATASIZE PUSH1 0x0 DUP1 RETURNDATACOPY RETURNDATASIZE PUSH1 0x0 REVERT JUMPDEST POP POP POP POP PUSH1 0x40 MLOAD RETURNDATASIZE PUSH1 0x1F NOT PUSH1 0x1F DUP3 ADD AND DUP3 ADD DUP1 PUSH1 0x40 MSTORE POP DUP2 ADD SWAP1 PUSH2 0x3D6 SWAP2 SWAP1 PUSH2 0xAAB JUMP JUMPDEST POP PUSH1 0x3 PUSH1 0x0 SWAP1 SLOAD SWAP1 PUSH2 0x100 EXP SWAP1 DIV PUSH20 0xFFFFFFFFFFFFFFFFFFFFFFFFFFFFFFFFFFFFFFFF AND PUSH20 0xFFFFFFFFFFFFFFFFFFFFFFFFFFFFFFFFFFFFFFFF AND PUSH4 0x95EA7B3 PUSH1 0x1 PUSH1 0x0 SWAP1 SLOAD SWAP1 PUSH2 0x100 EXP SWAP1 DIV PUSH20 0xFFFFFFFFFFFFFFFFFFFFFFFFFFFFFFFFFFFFFFFF AND DUP4 PUSH1 0x40 MLOAD DUP4 PUSH4 0xFFFFFFFF AND PUSH1 0xE0 SHL DUP2 MSTORE PUSH1 0x4 ADD PUSH2 0x456 SWAP3 SWAP2 SWAP1 PUSH2 0xAD8 JUMP JUMPDEST PUSH1 0x20 PUSH1 0x40 MLOAD DUP1 DUP4 SUB DUP2 PUSH1 0x0 DUP8 GAS CALL ISZERO DUP1 ISZERO PUSH2 0x475 JUMPI RETURNDATASIZE PUSH1 0x0 DUP1 RETURNDATACOPY RETURNDATASIZE PUSH1 0x0 REVERT JUMPDEST POP POP POP POP PUSH1 0x40 MLOAD RETURNDATASIZE PUSH1 0x1F NOT PUSH1 0x1F DUP3 ADD AND DUP3 ADD DUP1 PUSH1 0x40 MSTORE POP DUP2 ADD SWAP1 PUSH2 0x499 SWAP2 SWAP1 PUSH2 0xAAB JUMP JUMPDEST POP PUSH1 0x1 PUSH1 0x0 SWAP1 SLOAD SWAP1 PUSH2 0x100 EXP SWAP1 DIV PUSH20 0xFFFFFFFFFFFFFFFFFFFFFFFFFFFFFFFFFFFFFFFF AND PUSH20 0xFFFFFFFFFFFFFFFFFFFFFFFFFFFFFFFFFFFFFFFF AND PUSH4 0xE8E33700 PUSH1 0x2 PUSH1 0x0 SWAP1 SLOAD SWAP1 PUSH2 0x100 EXP SWAP1 DIV PUSH20 0xFFFFFFFFFFFFFFFFFFFFFFFFFFFFFFFFFFFFFFFF AND PUSH1 0x3 PUSH1 0x0 SWAP1 SLOAD SWAP1 PUSH2 0x100 EXP SWAP1 DIV PUSH20 0xFFFFFFFFFFFFFFFFFFFFFFFFFFFFFFFFFFFFFFFF AND DUP6 DUP6 PUSH1 0x0 DUP1 ADDRESS PUSH2 0x12C TIMESTAMP PUSH2 0x532 SWAP2 SWAP1 PUSH2 0xB30 JUMP JUMPDEST PUSH1 0x40 MLOAD DUP10 PUSH4 0xFFFFFFFF AND PUSH1 0xE0 SHL DUP2 MSTORE PUSH1 0x4 ADD PUSH2 0x555 SWAP9 SWAP8 SWAP7 SWAP6 SWAP5 SWAP4 SWAP3 SWAP2 SWAP1 PUSH2 0xB9F JUMP JUMPDEST PUSH1 0x60 PUSH1 0x40 MLOAD DUP1 DUP4 SUB DUP2 PUSH1 0x0 DUP8 GAS CALL ISZERO DUP1 ISZERO PUSH2 0x574 JUMPI RETURNDATASIZE PUSH1 0x0 DUP1 RETURNDATACOPY RETURNDATASIZE PUSH1 0x0 REVERT JUMPDEST POP POP POP POP PUSH1 0x40 MLOAD RETURNDATASIZE PUSH1 0x1F NOT PUSH1 0x1F DUP3 ADD AND DUP3 ADD DUP1 PUSH1 0x40 MSTORE POP DUP2 ADD SWAP1 PUSH2 0x598 SWAP2 SWAP1 PUSH2 0xC32 JUMP JUMPDEST POP POP POP POP POP JUMP JUMPDEST PUSH1 0x3 PUSH1 0x0 SWAP1 SLOAD SWAP1 PUSH2 0x100 EXP SWAP1 DIV PUSH20 0xFFFFFFFFFFFFFFFFFFFFFFFFFFFFFFFFFFFFFFFF AND DUP2 JUMP JUMPDEST PUSH2 0x5CD PUSH2 0x6F9 JUMP JUMPDEST PUSH1 0x0 PUSH20 0xFFFFFFFFFFFFFFFFFFFFFFFFFFFFFFFFFFFFFFFF AND DUP2 PUSH20 0xFFFFFFFFFFFFFFFFFFFFFFFFFFFFFFFFFFFFFFFF AND SUB PUSH2 0x63C JUMPI PUSH1 0x40 MLOAD PUSH32 0x8C379A000000000000000000000000000000000000000000000000000000000 DUP2 MSTORE PUSH1 0x4 ADD PUSH2 0x633 SWAP1 PUSH2 0xD08 JUMP JUMPDEST PUSH1 0x40 MLOAD DUP1 SWAP2 SUB SWAP1 REVERT JUMPDEST PUSH2 0x645 DUP2 PUSH2 0x777 JUMP JUMPDEST POP JUMP JUMPDEST PUSH2 0x650 PUSH2 0x6F9 JUMP JUMPDEST DUP2 PUSH20 0xFFFFFFFFFFFFFFFFFFFFFFFFFFFFFFFFFFFFFFFF AND PUSH4 0xA9059CBB CALLER DUP4 PUSH1 0x40 MLOAD DUP4 PUSH4 0xFFFFFFFF AND PUSH1 0xE0 SHL DUP2 MSTORE PUSH1 0x4 ADD PUSH2 0x68B SWAP3 SWAP2 SWAP1 PUSH2 0xAD8 JUMP JUMPDEST PUSH1 0x20 PUSH1 0x40 MLOAD DUP1 DUP4 SUB DUP2 PUSH1 0x0 DUP8 GAS CALL ISZERO DUP1 ISZERO PUSH2 0x6AA JUMPI RETURNDATASIZE PUSH1 0x0 DUP1 RETURNDATACOPY RETURNDATASIZE PUSH1 0x0 REVERT JUMPDEST POP POP POP POP PUSH1 0x40 MLOAD RETURNDATASIZE PUSH1 0x1F NOT PUSH1 0x1F DUP3 ADD AND DUP3 ADD DUP1 PUSH1 0x40 MSTORE POP DUP2 ADD SWAP1 PUSH2 0x6CE SWAP2 SWAP1 PUSH2 0xAAB JUMP JUMPDEST POP POP POP JUMP JUMPDEST PUSH1 0x1 PUSH1 0x0 SWAP1 SLOAD SWAP1 PUSH2 0x100 EXP SWAP1 DIV PUSH20 0xFFFFFFFFFFFFFFFFFFFFFFFFFFFFFFFFFFFFFFFF AND DUP2 JUMP JUMPDEST PUSH2 0x701 PUSH2 0x83B JUMP JUMPDEST PUSH20 0xFFFFFFFFFFFFFFFFFFFFFFFFFFFFFFFFFFFFFFFF AND PUSH2 0x71F PUSH2 0x177 JUMP JUMPDEST PUSH20 0xFFFFFFFFFFFFFFFFFFFFFFFFFFFFFFFFFFFFFFFF AND EQ PUSH2 0x775 JUMPI PUSH1 0x40 MLOAD PUSH32 0x8C379A000000000000000000000000000000000000000000000000000000000 DUP2 MSTORE PUSH1 0x4 ADD PUSH2 0x76C SWAP1 PUSH2 0xD74 JUMP JUMPDEST PUSH1 0x40 MLOAD DUP1 SWAP2 SUB SWAP1 REVERT JUMPDEST JUMP JUMPDEST PUSH1 0x0 DUP1 PUSH1 0x0 SWAP1 SLOAD SWAP1 PUSH2 0x100 EXP SWAP1 DIV PUSH20 0xFFFFFFFFFFFFFFFFFFFFFFFFFFFFFFFFFFFFFFFF AND SWAP1 POP DUP2 PUSH1 0x0 DUP1 PUSH2 0x100 EXP DUP2 SLOAD DUP2 PUSH20 0xFFFFFFFFFFFFFFFFFFFFFFFFFFFFFFFFFFFFFFFF MUL NOT AND SWAP1 DUP4 PUSH20 0xFFFFFFFFFFFFFFFFFFFFFFFFFFFFFFFFFFFFFFFF AND MUL OR SWAP1 SSTORE POP DUP2 PUSH20 0xFFFFFFFFFFFFFFFFFFFFFFFFFFFFFFFFFFFFFFFF AND DUP2 PUSH20 0xFFFFFFFFFFFFFFFFFFFFFFFFFFFFFFFFFFFFFFFF AND PUSH32 0x8BE0079C531659141344CD1FD0A4F28419497F9722A3DAAFE3B4186F6B6457E0 PUSH1 0x40 MLOAD PUSH1 0x40 MLOAD DUP1 SWAP2 SUB SWAP1 LOG3 POP POP JUMP JUMPDEST PUSH1 0x0 CALLER SWAP1 POP SWAP1 JUMP JUMPDEST PUSH1 0x0 PUSH20 0xFFFFFFFFFFFFFFFFFFFFFFFFFFFFFFFFFFFFFFFF DUP3 AND SWAP1 POP SWAP2 SWAP1 POP JUMP JUMPDEST PUSH1 0x0 PUSH2 0x86E DUP3 PUSH2 0x843 JUMP JUMPDEST SWAP1 POP SWAP2 SWAP1 POP JUMP JUMPDEST PUSH2 0x87E DUP2 PUSH2 0x863 JUMP JUMPDEST DUP3 MSTORE POP POP JUMP JUMPDEST PUSH1 0x0 PUSH1 0x20 DUP3 ADD SWAP1 POP PUSH2 0x899 PUSH1 0x0 DUP4 ADD DUP5 PUSH2 0x875 JUMP JUMPDEST SWAP3 SWAP2 POP POP JUMP JUMPDEST PUSH1 0x0 DUP1 REVERT JUMPDEST PUSH1 0x0 DUP2 SWAP1 POP SWAP2 SWAP1 POP JUMP JUMPDEST PUSH2 0x8B7 DUP2 PUSH2 0x8A4 JUMP JUMPDEST DUP2 EQ PUSH2 0x8C2 JUMPI PUSH1 0x0 DUP1 REVERT JUMPDEST POP JUMP JUMPDEST PUSH1 0x0 DUP2 CALLDATALOAD SWAP1 POP PUSH2 0x8D4 DUP2 PUSH2 0x8AE JUMP JUMPDEST SWAP3 SWAP2 POP POP JUMP JUMPDEST PUSH1 0x0 DUP1 PUSH1 0x40 DUP4 DUP6 SUB SLT ISZERO PUSH2 0x8F1 JUMPI PUSH2 0x8F0 PUSH2 0x89F JUMP JUMPDEST JUMPDEST PUSH1 0x0 PUSH2 0x8FF DUP6 DUP3 DUP7 ADD PUSH2 0x8C5 JUMP JUMPDEST SWAP3 POP POP PUSH1 0x20 PUSH2 0x910 DUP6 DUP3 DUP7 ADD PUSH2 0x8C5 JUMP JUMPDEST SWAP2 POP POP SWAP3 POP SWAP3 SWAP1 POP JUMP JUMPDEST PUSH2 0x923 DUP2 PUSH2 0x863 JUMP JUMPDEST DUP2 EQ PUSH2 0x92E JUMPI PUSH1 0x0 DUP1 REVERT JUMPDEST POP JUMP JUMPDEST PUSH1 0x0 DUP2 CALLDATALOAD SWAP1 POP PUSH2 0x940 DUP2 PUSH2 0x91A JUMP JUMPDEST SWAP3 SWAP2 POP POP JUMP JUMPDEST PUSH1 0x0 PUSH1 0x20 DUP3 DUP5 SUB SLT ISZERO PUSH2 0x95C JUMPI PUSH2 0x95B PUSH2 0x89F JUMP JUMPDEST JUMPDEST PUSH1 0x0 PUSH2 0x96A DUP5 DUP3 DUP6 ADD PUSH2 0x931 JUMP JUMPDEST SWAP2 POP POP SWAP3 SWAP2 POP POP JUMP JUMPDEST PUSH1 0x0 DUP1 PUSH1 0x40 DUP4 DUP6 SUB SLT ISZERO PUSH2 0x98A JUMPI PUSH2 0x989 PUSH2 0x89F JUMP JUMPDEST JUMPDEST PUSH1 0x0 PUSH2 0x998 DUP6 DUP3 DUP7 ADD PUSH2 0x931 JUMP JUMPDEST SWAP3 POP POP PUSH1 0x20 PUSH2 0x9A9 DUP6 DUP3 DUP7 ADD PUSH2 0x8C5 JUMP JUMPDEST SWAP2 POP POP SWAP3 POP SWAP3 SWAP1 POP JUMP JUMPDEST PUSH1 0x0 DUP2 SWAP1 POP SWAP2 SWAP1 POP JUMP JUMPDEST PUSH1 0x0 PUSH2 0x9D8 PUSH2 0x9D3 PUSH2 0x9CE DUP5 PUSH2 0x843 JUMP JUMPDEST PUSH2 0x9B3 JUMP JUMPDEST PUSH2 0x843 JUMP JUMPDEST SWAP1 POP SWAP2 SWAP1 POP JUMP JUMPDEST PUSH1 0x0 PUSH2 0x9EA DUP3 PUSH2 0x9BD JUMP JUMPDEST SWAP1 POP SWAP2 SWAP1 POP JUMP JUMPDEST PUSH1 0x0 PUSH2 0x9FC DUP3 PUSH2 0x9DF JUMP JUMPDEST SWAP1 POP SWAP2 SWAP1 POP JUMP JUMPDEST PUSH2 0xA0C DUP2 PUSH2 0x9F1 JUMP JUMPDEST DUP3 MSTORE POP POP JUMP JUMPDEST PUSH1 0x0 PUSH1 0x20 DUP3 ADD SWAP1 POP PUSH2 0xA27 PUSH1 0x0 DUP4 ADD DUP5 PUSH2 0xA03 JUMP JUMPDEST SWAP3 SWAP2 POP POP JUMP JUMPDEST PUSH2 0xA36 DUP2 PUSH2 0x8A4 JUMP JUMPDEST DUP3 MSTORE POP POP JUMP JUMPDEST PUSH1 0x0 PUSH1 0x60 DUP3 ADD SWAP1 POP PUSH2 0xA51 PUSH1 0x0 DUP4 ADD DUP7 PUSH2 0x875 JUMP JUMPDEST PUSH2 0xA5E PUSH1 0x20 DUP4 ADD DUP6 PUSH2 0x875 JUMP JUMPDEST PUSH2 0xA6B PUSH1 0x40 DUP4 ADD DUP5 PUSH2 0xA2D JUMP JUMPDEST SWAP5 SWAP4 POP POP POP POP JUMP JUMPDEST PUSH1 0x0 DUP2 ISZERO ISZERO SWAP1 POP SWAP2 SWAP1 POP JUMP JUMPDEST PUSH2 0xA88 DUP2 PUSH2 0xA73 JUMP JUMPDEST DUP2 EQ PUSH2 0xA93 JUMPI PUSH1 0x0 DUP1 REVERT JUMPDEST POP JUMP JUMPDEST PUSH1 0x0 DUP2 MLOAD SWAP1 POP PUSH2 0xAA5 DUP2 PUSH2 0xA7F JUMP JUMPDEST SWAP3 SWAP2 POP POP JUMP JUMPDEST PUSH1 0x0 PUSH1 0x20 DUP3 DUP5 SUB SLT ISZERO PUSH2 0xAC1 JUMPI PUSH2 0xAC0 PUSH2 0x89F JUMP JUMPDEST JUMPDEST PUSH1 0x0 PUSH2 0xACF DUP5 DUP3 DUP6 ADD PUSH2 0xA96 JUMP JUMPDEST SWAP2 POP POP SWAP3 SWAP2 POP POP JUMP JUMPDEST PUSH1 0x0 PUSH1 0x40 DUP3 ADD SWAP1 POP PUSH2 0xAED PUSH1 0x0 DUP4 ADD DUP6 PUSH2 0x875 JUMP JUMPDEST PUSH2 0xAFA PUSH1 0x20 DUP4 ADD DUP5 PUSH2 0xA2D JUMP JUMPDEST SWAP4 SWAP3 POP POP POP JUMP JUMPDEST PUSH32 0x4E487B7100000000000000000000000000000000000000000000000000000000 PUSH1 0x0 MSTORE PUSH1 0x11 PUSH1 0x4 MSTORE PUSH1 0x24 PUSH1 0x0 REVERT JUMPDEST PUSH1 0x0 PUSH2 0xB3B DUP3 PUSH2 0x8A4 JUMP JUMPDEST SWAP2 POP PUSH2 0xB46 DUP4 PUSH2 0x8A4 JUMP JUMPDEST SWAP3 POP DUP3 DUP3 ADD SWAP1 POP DUP1 DUP3 GT ISZERO PUSH2 0xB5E JUMPI PUSH2 0xB5D PUSH2 0xB01 JUMP JUMPDEST JUMPDEST SWAP3 SWAP2 POP POP JUMP JUMPDEST PUSH1 0x0 DUP2 SWAP1 POP SWAP2 SWAP1 POP JUMP JUMPDEST PUSH1 0x0 PUSH2 0xB89 PUSH2 0xB84 PUSH2 0xB7F DUP5 PUSH2 0xB64 JUMP JUMPDEST PUSH2 0x9B3 JUMP JUMPDEST PUSH2 0x8A4 JUMP JUMPDEST SWAP1 POP SWAP2 SWAP1 POP JUMP JUMPDEST PUSH2 0xB99 DUP2 PUSH2 0xB6E JUMP JUMPDEST DUP3 MSTORE POP POP JUMP JUMPDEST PUSH1 0x0 PUSH2 0x100 DUP3 ADD SWAP1 POP PUSH2 0xBB5 PUSH1 0x0 DUP4 ADD DUP12 PUSH2 0x875 JUMP JUMPDEST PUSH2 0xBC2 PUSH1 0x20 DUP4 ADD DUP11 PUSH2 0x875 JUMP JUMPDEST PUSH2 0xBCF PUSH1 0x40 DUP4 ADD DUP10 PUSH2 0xA2D JUMP JUMPDEST PUSH2 0xBDC PUSH1 0x60 DUP4 ADD DUP9 PUSH2 0xA2D JUMP JUMPDEST PUSH2 0xBE9 PUSH1 0x80 DUP4 ADD DUP8 PUSH2 0xB90 JUMP JUMPDEST PUSH2 0xBF6 PUSH1 0xA0 DUP4 ADD DUP7 PUSH2 0xB90 JUMP JUMPDEST PUSH2 0xC03 PUSH1 0xC0 DUP4 ADD DUP6 PUSH2 0x875 JUMP JUMPDEST PUSH2 0xC10 PUSH1 0xE0 DUP4 ADD DUP5 PUSH2 0xA2D JUMP JUMPDEST SWAP10 SWAP9 POP POP POP POP POP POP POP POP POP JUMP JUMPDEST PUSH1 0x0 DUP2 MLOAD SWAP1 POP PUSH2 0xC2C DUP2 PUSH2 0x8AE JUMP JUMPDEST SWAP3 SWAP2 POP POP JUMP JUMPDEST PUSH1 0x0 DUP1 PUSH1 0x0 PUSH1 0x60 DUP5 DUP7 SUB SLT ISZERO PUSH2 0xC4B JUMPI PUSH2 0xC4A PUSH2 0x89F JUMP JUMPDEST JUMPDEST PUSH1 0x0 PUSH2 0xC59 DUP7 DUP3 DUP8 ADD PUSH2 0xC1D JUMP JUMPDEST SWAP4 POP POP PUSH1 0x20 PUSH2 0xC6A DUP7 DUP3 DUP8 ADD PUSH2 0xC1D JUMP JUMPDEST SWAP3 POP POP PUSH1 0x40 PUSH2 0xC7B DUP7 DUP3 DUP8 ADD PUSH2 0xC1D JUMP JUMPDEST SWAP2 POP POP SWAP3 POP SWAP3 POP SWAP3 JUMP JUMPDEST PUSH1 0x0 DUP3 DUP3 MSTORE PUSH1 0x20 DUP3 ADD SWAP1 POP SWAP3 SWAP2 POP POP JUMP JUMPDEST PUSH32 0x4F776E61626C653A206E6577206F776E657220697320746865207A65726F2061 PUSH1 0x0 DUP3 ADD MSTORE PUSH32 0x6464726573730000000000000000000000000000000000000000000000000000 PUSH1 0x20 DUP3 ADD MSTORE POP JUMP JUMPDEST PUSH1 0x0 PUSH2 0xCF2 PUSH1 0x26 DUP4 PUSH2 0xC85 JUMP JUMPDEST SWAP2 POP PUSH2 0xCFD DUP3 PUSH2 0xC96 JUMP JUMPDEST PUSH1 0x40 DUP3 ADD SWAP1 POP SWAP2 SWAP1 POP JUMP JUMPDEST PUSH1 0x0 PUSH1 0x20 DUP3 ADD SWAP1 POP DUP2 DUP2 SUB PUSH1 0x0 DUP4 ADD MSTORE PUSH2 0xD21 DUP2 PUSH2 0xCE5 JUMP JUMPDEST SWAP1 POP SWAP2 SWAP1 POP JUMP JUMPDEST PUSH32 0x4F776E61626C653A2063616C6C6572206973206E6F7420746865206F776E6572 PUSH1 0x0 DUP3 ADD MSTORE POP JUMP JUMPDEST PUSH1 0x0 PUSH2 0xD5E PUSH1 0x20 DUP4 PUSH2 0xC85 JUMP JUMPDEST SWAP2 POP PUSH2 0xD69 DUP3 PUSH2 0xD28 JUMP JUMPDEST PUSH1 0x20 DUP3 ADD SWAP1 POP SWAP2 SWAP1 POP JUMP JUMPDEST PUSH1 0x0 PUSH1 0x20 DUP3 ADD SWAP1 POP DUP2 DUP2 SUB PUSH1 0x0 DUP4 ADD MSTORE PUSH2 0xD8D DUP2 PUSH2 0xD51 JUMP JUMPDEST SWAP1 POP SWAP2 SWAP1 POP JUMP INVALID LOG2 PUSH5 0x6970667358 0x22 SLT KECCAK256 PUSH11 0x1E8CBC0EA32254B0437D30 SDIV SMOD PUSH10 0x7773A48F7C9FEDCD2843 0xD7 0xE2 SELFBALANCE SWAP14 PUSH23 0x863E64736F6C6343000814003300000000000000000000 "},"methodIdentifiers":{"addLiquidity(uint256,uint256)":"9cd441da","audb()":"9c4282ed","collateral()":"d8dfeb45","owner()":"8da5cb5b","renounceOwnership()":"715018a6","router()":"f887ea40","transferOwnership(address)":"f2fde38b","withdraw(address,uint256)":"f3fef3a3"}}}}}