{
  "_format": "hh-sol-artifact-1",
  "contractName": "MockPyth",
  "sourceName": "contracts/mocks/MockPyth.sol",
  "abi": [
    {
      "inputs": [
        {
          "internalType": "bytes32",
          "name": "",
          "type": "bytes32"
        }
      ],
      "name": "getPriceUnsafe",
      "outputs": [
        {
          "components": [
            {
              "internalType": "int64",
              "name": "price",
              "type": "int64"
            },
            {
              "internalType": "uint64",
              "name": "conf",
              "type": "uint64"
            },
            {
              "internalType": "int32",
              "name": "expo",
              "type": "int32"
            },
            {
              "internalType": "uint256",
              "name": "publishTime",
              "type": "uint256"
            }
          ],
          "internalType": "struct PythStructs.Price",
          "name": "",
          "type": "tuple"
        }
      ],
      "stateMutability": "view",
      "type": "function"
    },
    {
      "inputs": [
        {
          "internalType": "int64",
          "name": "price",
          "type": "int64"
        },
        {
          "internalType": "int32",
          "name": "expo",
          "type": "int32"
        }
      ],
      "name": "setPrice",
      "outputs": [],
      "stateMutability": "nonpayable",
      "type": "function"
    },
    {
      "inputs": [],
      "name": "storedPrice",
      "outputs": [
        {
          "internalType": "int64",
          "name": "price",
          "type": "int64"
        },
        {
          "internalType": "uint64",
          "name": "conf",
          "type": "uint64"
        },
        {
          "internalType": "int32",
          "name": "expo",
          "type": "int32"
        },
        {
          "internalType": "uint256",
          "name": "publishTime",
          "type": "uint256"
        }
      ],
      "stateMutability": "view",
      "type": "function"
    }
  ],
  "bytecode": "0x608060405234801561001057600080fd5b5061053d806100206000396000f3fe608060405234801561001057600080fd5b50600436106100415760003560e01c806346171f371461004657806396834ad3146100625780639ed3012814610092575b600080fd5b610060600480360381019061005b9190610319565b6100b3565b005b61007c6004803603810190610077919061038f565b61018c565b604051610089919061046b565b60405180910390f35b61009a61021e565b6040516100aa94939291906104c2565b60405180910390f35b60405180608001604052808360070b8152602001600067ffffffffffffffff1681526020018260030b81526020014267ffffffffffffffff168152506000808201518160000160006101000a81548167ffffffffffffffff021916908360070b67ffffffffffffffff16021790555060208201518160000160086101000a81548167ffffffffffffffff021916908367ffffffffffffffff16021790555060408201518160000160106101000a81548163ffffffff021916908360030b63ffffffff160217905550606082015181600101559050505050565b61019461026a565b60006040518060800160405290816000820160009054906101000a900460070b60070b60070b81526020016000820160089054906101000a900467ffffffffffffffff1667ffffffffffffffff1667ffffffffffffffff1681526020016000820160109054906101000a900460030b60030b60030b81526020016001820154815250509050919050565b60008060000160009054906101000a900460070b908060000160089054906101000a900467ffffffffffffffff16908060000160109054906101000a900460030b908060010154905084565b6040518060800160405280600060070b8152602001600067ffffffffffffffff168152602001600060030b8152602001600081525090565b600080fd5b60008160070b9050919050565b6102bd816102a7565b81146102c857600080fd5b50565b6000813590506102da816102b4565b92915050565b60008160030b9050919050565b6102f6816102e0565b811461030157600080fd5b50565b600081359050610313816102ed565b92915050565b600080604083850312156103305761032f6102a2565b5b600061033e858286016102cb565b925050602061034f85828601610304565b9150509250929050565b6000819050919050565b61036c81610359565b811461037757600080fd5b50565b60008135905061038981610363565b92915050565b6000602082840312156103a5576103a46102a2565b5b60006103b38482850161037a565b91505092915050565b6103c5816102a7565b82525050565b600067ffffffffffffffff82169050919050565b6103e8816103cb565b82525050565b6103f7816102e0565b82525050565b6000819050919050565b610410816103fd565b82525050565b60808201600082015161042c60008501826103bc565b50602082015161043f60208501826103df565b50604082015161045260408501826103ee565b5060608201516104656060850182610407565b50505050565b60006080820190506104806000830184610416565b92915050565b61048f816102a7565b82525050565b61049e816103cb565b82525050565b6104ad816102e0565b82525050565b6104bc816103fd565b82525050565b60006080820190506104d76000830187610486565b6104e46020830186610495565b6104f160408301856104a4565b6104fe60608301846104b3565b9594505050505056fea2646970667358221220c5ce17a68f6222c8ff159054d5d40494fcc18a5feba40e105e4a95b639ba08c564736f6c63430008140033",
  "linkReferences": {},
  "deployedLinkReferences": {}
}