{
  "_format": "hh-sol-artifact-1",
  "contractName": "LiquidityManager",
  "sourceName": "contracts/LiquidityManager.sol",
  "abi": [
    {
      "inputs": [
        {
          "internalType": "address",
          "name": "_router",
          "type": "address"
        },
        {
          "internalType": "address",
          "name": "_audb",
          "type": "address"
        },
        {
          "internalType": "address",
          "name": "_collateral",
          "type": "address"
        }
      ],
      "stateMutability": "nonpayable",
      "type": "constructor"
    },
    {
      "anonymous": false,
      "inputs": [
        {
          "indexed": true,
          "internalType": "address",
          "name": "token",
          "type": "address"
        },
        {
          "indexed": false,
          "internalType": "uint256",
          "name": "amount",
          "type": "uint256"
        }
      ],
      "name": "EmergencyWithdrawal",
      "type": "event"
    },
    {
      "anonymous": false,
      "inputs": [
        {
          "indexed": false,
          "internalType": "uint256",
          "name": "audbAmount",
          "type": "uint256"
        },
        {
          "indexed": false,
          "internalType": "uint256",
          "name": "collateralReceived",
          "type": "uint256"
        }
      ],
      "name": "ExpansionManaged",
      "type": "event"
    },
    {
      "anonymous": false,
      "inputs": [
        {
          "indexed": false,
          "internalType": "uint256",
          "name": "audbAmount",
          "type": "uint256"
        },
        {
          "indexed": false,
          "internalType": "uint256",
          "name": "collateralAmount",
          "type": "uint256"
        },
        {
          "indexed": false,
          "internalType": "uint256",
          "name": "liquidity",
          "type": "uint256"
        }
      ],
      "name": "LiquidityAdded",
      "type": "event"
    },
    {
      "anonymous": false,
      "inputs": [
        {
          "indexed": false,
          "internalType": "uint256",
          "name": "liquidity",
          "type": "uint256"
        },
        {
          "indexed": false,
          "internalType": "uint256",
          "name": "audbAmount",
          "type": "uint256"
        },
        {
          "indexed": false,
          "internalType": "uint256",
          "name": "collateralAmount",
          "type": "uint256"
        }
      ],
      "name": "LiquidityRemoved",
      "type": "event"
    },
    {
      "anonymous": false,
      "inputs": [
        {
          "indexed": true,
          "internalType": "address",
          "name": "previousOwner",
          "type": "address"
        },
        {
          "indexed": true,
          "internalType": "address",
          "name": "newOwner",
          "type": "address"
        }
      ],
      "name": "OwnershipTransferred",
      "type": "event"
    },
    {
      "inputs": [],
      "name": "DEADLINE_OFFSET",
      "outputs": [
        {
          "internalType": "uint256",
          "name": "",
          "type": "uint256"
        }
      ],
      "stateMutability": "view",
      "type": "function"
    },
    {
      "inputs": [],
      "name": "MAX_SLIPPAGE_BPS",
      "outputs": [
        {
          "internalType": "uint256",
          "name": "",
          "type": "uint256"
        }
      ],
      "stateMutability": "view",
      "type": "function"
    },
    {
      "inputs": [],
      "name": "audb",
      "outputs": [
        {
          "internalType": "contract AUDB",
          "name": "",
          "type": "address"
        }
      ],
      "stateMutability": "view",
      "type": "function"
    },
    {
      "inputs": [],
      "name": "collateral",
      "outputs": [
        {
          "internalType": "contract IERC20",
          "name": "",
          "type": "address"
        }
      ],
      "stateMutability": "view",
      "type": "function"
    },
    {
      "inputs": [],
      "name": "emergencyRemoveAllLiquidity",
      "outputs": [],
      "stateMutability": "nonpayable",
      "type": "function"
    },
    {
      "inputs": [
        {
          "internalType": "uint256",
          "name": "amountToBurn",
          "type": "uint256"
        }
      ],
      "name": "manageSupplyContraction",
      "outputs": [
        {
          "internalType": "uint256",
          "name": "",
          "type": "uint256"
        }
      ],
      "stateMutability": "nonpayable",
      "type": "function"
    },
    {
      "inputs": [
        {
          "internalType": "uint256",
          "name": "amount",
          "type": "uint256"
        }
      ],
      "name": "manageSupplyExpansion",
      "outputs": [],
      "stateMutability": "nonpayable",
      "type": "function"
    },
    {
      "inputs": [],
      "name": "owner",
      "outputs": [
        {
          "internalType": "address",
          "name": "",
          "type": "address"
        }
      ],
      "stateMutability": "view",
      "type": "function"
    },
    {
      "inputs": [],
      "name": "renounceOwnership",
      "outputs": [],
      "stateMutability": "nonpayable",
      "type": "function"
    },
    {
      "inputs": [],
      "name": "router",
      "outputs": [
        {
          "internalType": "contract IJoeRouter02",
          "name": "",
          "type": "address"
        }
      ],
      "stateMutability": "view",
      "type": "function"
    },
    {
      "inputs": [
        {
          "internalType": "address",
          "name": "newOwner",
          "type": "address"
        }
      ],
      "name": "transferOwnership",
      "outputs": [],
      "stateMutability": "nonpayable",
      "type": "function"
    },
    {
      "inputs": [
        {
          "internalType": "address",
          "name": "token",
          "type": "address"
        },
        {
          "internalType": "uint256",
          "name": "amount",
          "type": "uint256"
        }
      ],
      "name": "withdraw",
      "outputs": [],
      "stateMutability": "nonpayable",
      "type": "function"
    }
  ],
  "bytecode": "0x60806040523480156200001157600080fd5b50604051620030a5380380620030a58339818101604052810190620000379190620003b6565b620000576200004b6200028060201b60201c565b6200028860201b60201c565b60018081905550600073ffffffffffffffffffffffffffffffffffffffff168373ffffffffffffffffffffffffffffffffffffffff1603620000d0576040517f08c379a0000000000000000000000000000000000000000000000000000000008152600401620000c79062000473565b60405180910390fd5b600073ffffffffffffffffffffffffffffffffffffffff168273ffffffffffffffffffffffffffffffffffffffff160362000142576040517f08c379a00000000000000000000000000000000000000000000000000000000081526004016200013990620004e5565b60405180910390fd5b600073ffffffffffffffffffffffffffffffffffffffff168173ffffffffffffffffffffffffffffffffffffffff1603620001b4576040517f08c379a0000000000000000000000000000000000000000000000000000000008152600401620001ab9062000557565b60405180910390fd5b82600260006101000a81548173ffffffffffffffffffffffffffffffffffffffff021916908373ffffffffffffffffffffffffffffffffffffffff16021790555081600360006101000a81548173ffffffffffffffffffffffffffffffffffffffff021916908373ffffffffffffffffffffffffffffffffffffffff16021790555080600460006101000a81548173ffffffffffffffffffffffffffffffffffffffff021916908373ffffffffffffffffffffffffffffffffffffffff16021790555050505062000579565b600033905090565b60008060009054906101000a900473ffffffffffffffffffffffffffffffffffffffff169050816000806101000a81548173ffffffffffffffffffffffffffffffffffffffff021916908373ffffffffffffffffffffffffffffffffffffffff1602179055508173ffffffffffffffffffffffffffffffffffffffff168173ffffffffffffffffffffffffffffffffffffffff167f8be0079c531659141344cd1fd0a4f28419497f9722a3daafe3b4186f6b6457e060405160405180910390a35050565b600080fd5b600073ffffffffffffffffffffffffffffffffffffffff82169050919050565b60006200037e8262000351565b9050919050565b620003908162000371565b81146200039c57600080fd5b50565b600081519050620003b08162000385565b92915050565b600080600060608486031215620003d257620003d16200034c565b5b6000620003e2868287016200039f565b9350506020620003f5868287016200039f565b925050604062000408868287016200039f565b9150509250925092565b600082825260208201905092915050565b7f4c4d3a20696e76616c696420726f757465720000000000000000000000000000600082015250565b60006200045b60128362000412565b9150620004688262000423565b602082019050919050565b600060208201905081810360008301526200048e816200044c565b9050919050565b7f4c4d3a20696e76616c6964204155444200000000000000000000000000000000600082015250565b6000620004cd60108362000412565b9150620004da8262000495565b602082019050919050565b600060208201905081810360008301526200050081620004be565b9050919050565b7f4c4d3a20696e76616c696420636f6c6c61746572616c00000000000000000000600082015250565b60006200053f60168362000412565b91506200054c8262000507565b602082019050919050565b60006020820190508181036000830152620005728162000530565b9050919050565b612b1c80620005896000396000f3fe608060405234801561001057600080fd5b50600436106100b45760003560e01c8063bfb8c8ab11610071578063bfb8c8ab14610157578063d8dfeb4514610173578063e229cd7614610191578063f2fde38b146101af578063f3fef3a3146101cb578063f887ea40146101e7576100b4565b80635937d2f6146100b9578063715018a6146100e95780637c9aa53a146100f35780638da5cb5b146101115780639c4282ed1461012f578063b5be44581461014d575b600080fd5b6100d360048036038101906100ce9190611b57565b610205565b6040516100e09190611b93565b60405180910390f35b6100f16104d9565b005b6100fb6104ed565b6040516101089190611b93565b60405180910390f35b6101196104f3565b6040516101269190611bef565b60405180910390f35b61013761051c565b6040516101449190611c69565b60405180910390f35b610155610542565b005b610171600480360381019061016c9190611b57565b61095d565b005b61017b610b10565b6040516101889190611ca5565b60405180910390f35b610199610b36565b6040516101a69190611b93565b60405180910390f35b6101c960048036038101906101c49190611cec565b610b3b565b005b6101e560048036038101906101e09190611d19565b610bbe565b005b6101ef610cf5565b6040516101fc9190611d7a565b60405180910390f35b600061020f610d1b565b610217610d99565b6000610221610de8565b905060008173ffffffffffffffffffffffffffffffffffffffff166370a08231306040518263ffffffff1660e01b815260040161025e9190611bef565b602060405180830381865afa15801561027b573d6000803e3d6000fd5b505050506040513d601f19601f8201168201806040525081019061029f9190611daa565b9050600081036102b4576000925050506104cc565b6000600a826102c39190611e35565b90506102ce81610ec8565b6000600360009054906101000a900473ffffffffffffffffffffffffffffffffffffffff1673ffffffffffffffffffffffffffffffffffffffff166370a08231306040518263ffffffff1660e01b815260040161032b9190611bef565b602060405180830381865afa158015610348573d6000803e3d6000fd5b505050506040513d601f19601f8201168201806040525081019061036c9190611daa565b90508581111561042357600360009054906101000a900473ffffffffffffffffffffffffffffffffffffffff1673ffffffffffffffffffffffffffffffffffffffff1663a9059cbb33886040518363ffffffff1660e01b81526004016103d3929190611e66565b6020604051808303816000875af11580156103f2573d6000803e3d6000fd5b505050506040513d601f19601f820116820180604052508101906104169190611ec7565b50859450505050506104cc565b600360009054906101000a900473ffffffffffffffffffffffffffffffffffffffff1673ffffffffffffffffffffffffffffffffffffffff1663a9059cbb33836040518363ffffffff1660e01b8152600401610480929190611e66565b6020604051808303816000875af115801561049f573d6000803e3d6000fd5b505050506040513d601f19601f820116820180604052508101906104c39190611ec7565b50809450505050505b6104d4611076565b919050565b6104e1610d1b565b6104eb600061107f565b565b61012c81565b60008060009054906101000a900473ffffffffffffffffffffffffffffffffffffffff16905090565b600360009054906101000a900473ffffffffffffffffffffffffffffffffffffffff1681565b61054a610d1b565b610552610d99565b600061055c610de8565b905060008173ffffffffffffffffffffffffffffffffffffffff166370a08231306040518263ffffffff1660e01b81526004016105999190611bef565b602060405180830381865afa1580156105b6573d6000803e3d6000fd5b505050506040513d601f19601f820116820180604052508101906105da9190611daa565b905060008111156105ef576105ee81610ec8565b5b6000600360009054906101000a900473ffffffffffffffffffffffffffffffffffffffff1673ffffffffffffffffffffffffffffffffffffffff166370a08231306040518263ffffffff1660e01b815260040161064c9190611bef565b602060405180830381865afa158015610669573d6000803e3d6000fd5b505050506040513d601f19601f8201168201806040525081019061068d9190611daa565b90506000600460009054906101000a900473ffffffffffffffffffffffffffffffffffffffff1673ffffffffffffffffffffffffffffffffffffffff166370a08231306040518263ffffffff1660e01b81526004016106ec9190611bef565b602060405180830381865afa158015610709573d6000803e3d6000fd5b505050506040513d601f19601f8201168201806040525081019061072d9190611daa565b9050600082111561081857600360009054906101000a900473ffffffffffffffffffffffffffffffffffffffff1673ffffffffffffffffffffffffffffffffffffffff1663a9059cbb33846040518363ffffffff1660e01b8152600401610795929190611e66565b6020604051808303816000875af11580156107b4573d6000803e3d6000fd5b505050506040513d601f19601f820116820180604052508101906107d89190611ec7565b610817576040517f08c379a000000000000000000000000000000000000000000000000000000000815260040161080e90611f51565b60405180910390fd5b5b600081111561086f5761086e3382600460009054906101000a900473ffffffffffffffffffffffffffffffffffffffff1673ffffffffffffffffffffffffffffffffffffffff166111439092919063ffffffff16565b5b600360009054906101000a900473ffffffffffffffffffffffffffffffffffffffff1673ffffffffffffffffffffffffffffffffffffffff167f23d6711a1d031134a36921253c75aa59e967d38e369ac625992824315e204f20836040516108d79190611b93565b60405180910390a2600460009054906101000a900473ffffffffffffffffffffffffffffffffffffffff1673ffffffffffffffffffffffffffffffffffffffff167f23d6711a1d031134a36921253c75aa59e967d38e369ac625992824315e204f20826040516109479190611b93565b60405180910390a25050505061095b611076565b565b610965610d1b565b61096d610d99565b600081116109b0576040517f08c379a00000000000000000000000000000000000000000000000000000000081526004016109a790611fbd565b60405180910390fd5b600360009054906101000a900473ffffffffffffffffffffffffffffffffffffffff1673ffffffffffffffffffffffffffffffffffffffff166323b872dd3330846040518463ffffffff1660e01b8152600401610a0f93929190611fdd565b6020604051808303816000875af1158015610a2e573d6000803e3d6000fd5b505050506040513d601f19601f82011682018060405250810190610a529190611ec7565b610a91576040517f08c379a0000000000000000000000000000000000000000000000000000000008152600401610a8890612060565b60405180910390fd5b6000600282610aa09190611e35565b905060008183610ab09190612080565b90506000610abd836111c9565b9050610ac9828261158e565b7f459688f75d53cf75dff12d962855f73d3f8e67e7a506a5c8609403f99ac90db68482604051610afa9291906120b4565b60405180910390a1505050610b0d611076565b50565b600460009054906101000a900473ffffffffffffffffffffffffffffffffffffffff1681565b606481565b610b43610d1b565b600073ffffffffffffffffffffffffffffffffffffffff168173ffffffffffffffffffffffffffffffffffffffff1603610bb2576040517f08c379a0000000000000000000000000000000000000000000000000000000008152600401610ba99061214f565b60405180910390fd5b610bbb8161107f565b50565b610bc6610d1b565b600073ffffffffffffffffffffffffffffffffffffffff168273ffffffffffffffffffffffffffffffffffffffff1603610c35576040517f08c379a0000000000000000000000000000000000000000000000000000000008152600401610c2c906121bb565b60405180910390fd5b60008111610c78576040517f08c379a0000000000000000000000000000000000000000000000000000000008152600401610c6f90611fbd565b60405180910390fd5b610ca333828473ffffffffffffffffffffffffffffffffffffffff166111439092919063ffffffff16565b8173ffffffffffffffffffffffffffffffffffffffff167f23d6711a1d031134a36921253c75aa59e967d38e369ac625992824315e204f2082604051610ce99190611b93565b60405180910390a25050565b600260009054906101000a900473ffffffffffffffffffffffffffffffffffffffff1681565b610d23611870565b73ffffffffffffffffffffffffffffffffffffffff16610d416104f3565b73ffffffffffffffffffffffffffffffffffffffff1614610d97576040517f08c379a0000000000000000000000000000000000000000000000000000000008152600401610d8e90612227565b60405180910390fd5b565b600260015403610dde576040517f08c379a0000000000000000000000000000000000000000000000000000000008152600401610dd590612293565b60405180910390fd5b6002600181905550565b60008073f5c7d9733e5f53abcc1695820c4818c59b457c2c90508073ffffffffffffffffffffffffffffffffffffffff1663e6a43905600360009054906101000a900473ffffffffffffffffffffffffffffffffffffffff16600460009054906101000a900473ffffffffffffffffffffffffffffffffffffffff166040518363ffffffff1660e01b8152600401610e819291906122b3565b602060405180830381865afa158015610e9e573d6000803e3d6000fd5b505050506040513d601f19601f82011682018060405250810190610ec291906122f1565b91505090565b6000610ed2610de8565b90508073ffffffffffffffffffffffffffffffffffffffff1663095ea7b3600260009054906101000a900473ffffffffffffffffffffffffffffffffffffffff16846040518363ffffffff1660e01b8152600401610f31929190611e66565b6020604051808303816000875af1158015610f50573d6000803e3d6000fd5b505050506040513d601f19601f82011682018060405250810190610f749190611ec7565b50600260009054906101000a900473ffffffffffffffffffffffffffffffffffffffff1673ffffffffffffffffffffffffffffffffffffffff1663baa2abde600360009054906101000a900473ffffffffffffffffffffffffffffffffffffffff16600460009054906101000a900473ffffffffffffffffffffffffffffffffffffffff16856000803061012c4261100c919061231e565b6040518863ffffffff1660e01b815260040161102e979695949392919061238d565b60408051808303816000875af115801561104c573d6000803e3d6000fd5b505050506040513d601f19601f8201168201806040525081019061107091906123fc565b50505050565b60018081905550565b60008060009054906101000a900473ffffffffffffffffffffffffffffffffffffffff169050816000806101000a81548173ffffffffffffffffffffffffffffffffffffffff021916908373ffffffffffffffffffffffffffffffffffffffff1602179055508173ffffffffffffffffffffffffffffffffffffffff168173ffffffffffffffffffffffffffffffffffffffff167f8be0079c531659141344cd1fd0a4f28419497f9722a3daafe3b4186f6b6457e060405160405180910390a35050565b6111c48363a9059cbb60e01b8484604051602401611162929190611e66565b604051602081830303815290604052907bffffffffffffffffffffffffffffffffffffffffffffffffffffffff19166020820180517bffffffffffffffffffffffffffffffffffffffffffffffffffffffff8381831617835250505050611878565b505050565b6000600360009054906101000a900473ffffffffffffffffffffffffffffffffffffffff1673ffffffffffffffffffffffffffffffffffffffff1663095ea7b3600260009054906101000a900473ffffffffffffffffffffffffffffffffffffffff16846040518363ffffffff1660e01b815260040161124a929190611e66565b6020604051808303816000875af1158015611269573d6000803e3d6000fd5b505050506040513d601f19601f8201168201806040525081019061128d9190611ec7565b506000600267ffffffffffffffff8111156112ab576112aa61243c565b5b6040519080825280602002602001820160405280156112d95781602001602082028036833780820191505090505b509050600360009054906101000a900473ffffffffffffffffffffffffffffffffffffffff16816000815181106113135761131261246b565b5b602002602001019073ffffffffffffffffffffffffffffffffffffffff16908173ffffffffffffffffffffffffffffffffffffffff1681525050600460009054906101000a900473ffffffffffffffffffffffffffffffffffffffff16816001815181106113845761138361246b565b5b602002602001019073ffffffffffffffffffffffffffffffffffffffff16908173ffffffffffffffffffffffffffffffffffffffff16815250506000600260009054906101000a900473ffffffffffffffffffffffffffffffffffffffff1673ffffffffffffffffffffffffffffffffffffffff1663d06ca61f85846040518363ffffffff1660e01b815260040161141d929190612558565b600060405180830381865afa15801561143a573d6000803e3d6000fd5b505050506040513d6000823e3d601f19601f8201168201806040525081019061146391906126b2565b9050600061271060646127106114799190612080565b8360018151811061148d5761148c61246b565b5b602002602001015161149f91906126fb565b6114a99190611e35565b90506000600260009054906101000a900473ffffffffffffffffffffffffffffffffffffffff1673ffffffffffffffffffffffffffffffffffffffff166338ed17398784873061012c426114fd919061231e565b6040518663ffffffff1660e01b815260040161151d95949392919061273d565b6000604051808303816000875af115801561153c573d6000803e3d6000fd5b505050506040513d6000823e3d601f19601f8201168201806040525081019061156591906126b2565b90508060018151811061157b5761157a61246b565b5b6020026020010151945050505050919050565b600360009054906101000a900473ffffffffffffffffffffffffffffffffffffffff1673ffffffffffffffffffffffffffffffffffffffff1663095ea7b3600260009054906101000a900473ffffffffffffffffffffffffffffffffffffffff16846040518363ffffffff1660e01b815260040161160d929190611e66565b6020604051808303816000875af115801561162c573d6000803e3d6000fd5b505050506040513d601f19601f820116820180604052508101906116509190611ec7565b50600460009054906101000a900473ffffffffffffffffffffffffffffffffffffffff1673ffffffffffffffffffffffffffffffffffffffff1663095ea7b3600260009054906101000a900473ffffffffffffffffffffffffffffffffffffffff16836040518363ffffffff1660e01b81526004016116d0929190611e66565b6020604051808303816000875af11580156116ef573d6000803e3d6000fd5b505050506040513d601f19601f820116820180604052508101906117139190611ec7565b50600061271060646127106117289190612080565b8461173391906126fb565b61173d9190611e35565b9050600061271060646127106117539190612080565b8461175e91906126fb565b6117689190611e35565b9050600260009054906101000a900473ffffffffffffffffffffffffffffffffffffffff1673ffffffffffffffffffffffffffffffffffffffff1663e8e33700600360009054906101000a900473ffffffffffffffffffffffffffffffffffffffff16600460009054906101000a900473ffffffffffffffffffffffffffffffffffffffff16878787873061012c42611801919061231e565b6040518963ffffffff1660e01b8152600401611824989796959493929190612797565b6060604051808303816000875af1158015611843573d6000803e3d6000fd5b505050506040513d601f19601f820116820180604052508101906118679190612815565b50505050505050565b600033905090565b60006118da826040518060400160405280602081526020017f5361666545524332303a206c6f772d6c6576656c2063616c6c206661696c65648152508573ffffffffffffffffffffffffffffffffffffffff166119409092919063ffffffff16565b90506000815114806118fc5750808060200190518101906118fb9190611ec7565b5b61193b576040517f08c379a0000000000000000000000000000000000000000000000000000000008152600401611932906128da565b60405180910390fd5b505050565b606061194f8484600085611958565b90509392505050565b60608247101561199d576040517f08c379a00000000000000000000000000000000000000000000000000000000081526004016119949061296c565b60405180910390fd5b6000808673ffffffffffffffffffffffffffffffffffffffff1685876040516119c691906129fd565b60006040518083038185875af1925050503d8060008114611a03576040519150601f19603f3d011682016040523d82523d6000602084013e611a08565b606091505b5091509150611a1987838387611a25565b92505050949350505050565b60608315611a87576000835103611a7f57611a3f85611a9a565b611a7e576040517f08c379a0000000000000000000000000000000000000000000000000000000008152600401611a7590612a60565b60405180910390fd5b5b829050611a92565b611a918383611abd565b5b949350505050565b6000808273ffffffffffffffffffffffffffffffffffffffff163b119050919050565b600082511115611ad05781518083602001fd5b806040517f08c379a0000000000000000000000000000000000000000000000000000000008152600401611b049190612ac4565b60405180910390fd5b6000604051905090565b600080fd5b600080fd5b6000819050919050565b611b3481611b21565b8114611b3f57600080fd5b50565b600081359050611b5181611b2b565b92915050565b600060208284031215611b6d57611b6c611b17565b5b6000611b7b84828501611b42565b91505092915050565b611b8d81611b21565b82525050565b6000602082019050611ba86000830184611b84565b92915050565b600073ffffffffffffffffffffffffffffffffffffffff82169050919050565b6000611bd982611bae565b9050919050565b611be981611bce565b82525050565b6000602082019050611c046000830184611be0565b92915050565b6000819050919050565b6000611c2f611c2a611c2584611bae565b611c0a565b611bae565b9050919050565b6000611c4182611c14565b9050919050565b6000611c5382611c36565b9050919050565b611c6381611c48565b82525050565b6000602082019050611c7e6000830184611c5a565b92915050565b6000611c8f82611c36565b9050919050565b611c9f81611c84565b82525050565b6000602082019050611cba6000830184611c96565b92915050565b611cc981611bce565b8114611cd457600080fd5b50565b600081359050611ce681611cc0565b92915050565b600060208284031215611d0257611d01611b17565b5b6000611d1084828501611cd7565b91505092915050565b60008060408385031215611d3057611d2f611b17565b5b6000611d3e85828601611cd7565b9250506020611d4f85828601611b42565b9150509250929050565b6000611d6482611c36565b9050919050565b611d7481611d59565b82525050565b6000602082019050611d8f6000830184611d6b565b92915050565b600081519050611da481611b2b565b92915050565b600060208284031215611dc057611dbf611b17565b5b6000611dce84828501611d95565b91505092915050565b7f4e487b7100000000000000000000000000000000000000000000000000000000600052601260045260246000fd5b7f4e487b7100000000000000000000000000000000000000000000000000000000600052601160045260246000fd5b6000611e4082611b21565b9150611e4b83611b21565b925082611e5b57611e5a611dd7565b5b828204905092915050565b6000604082019050611e7b6000830185611be0565b611e886020830184611b84565b9392505050565b60008115159050919050565b611ea481611e8f565b8114611eaf57600080fd5b50565b600081519050611ec181611e9b565b92915050565b600060208284031215611edd57611edc611b17565b5b6000611eeb84828501611eb2565b91505092915050565b600082825260208201905092915050565b7f4c4d3a2041554442207472616e73666572206661696c65640000000000000000600082015250565b6000611f3b601883611ef4565b9150611f4682611f05565b602082019050919050565b60006020820190508181036000830152611f6a81611f2e565b9050919050565b7f4c4d3a207a65726f20616d6f756e740000000000000000000000000000000000600082015250565b6000611fa7600f83611ef4565b9150611fb282611f71565b602082019050919050565b60006020820190508181036000830152611fd681611f9a565b9050919050565b6000606082019050611ff26000830186611be0565b611fff6020830185611be0565b61200c6040830184611b84565b949350505050565b7f4c4d3a207472616e73666572206661696c656400000000000000000000000000600082015250565b600061204a601383611ef4565b915061205582612014565b602082019050919050565b600060208201905081810360008301526120798161203d565b9050919050565b600061208b82611b21565b915061209683611b21565b92508282039050818111156120ae576120ad611e06565b5b92915050565b60006040820190506120c96000830185611b84565b6120d66020830184611b84565b9392505050565b7f4f776e61626c653a206e6577206f776e657220697320746865207a65726f206160008201527f6464726573730000000000000000000000000000000000000000000000000000602082015250565b6000612139602683611ef4565b9150612144826120dd565b604082019050919050565b600060208201905081810360008301526121688161212c565b9050919050565b7f4c4d3a20696e76616c696420746f6b656e000000000000000000000000000000600082015250565b60006121a5601183611ef4565b91506121b08261216f565b602082019050919050565b600060208201905081810360008301526121d481612198565b9050919050565b7f4f776e61626c653a2063616c6c6572206973206e6f7420746865206f776e6572600082015250565b6000612211602083611ef4565b915061221c826121db565b602082019050919050565b6000602082019050818103600083015261224081612204565b9050919050565b7f5265656e7472616e637947756172643a207265656e7472616e742063616c6c00600082015250565b600061227d601f83611ef4565b915061228882612247565b602082019050919050565b600060208201905081810360008301526122ac81612270565b9050919050565b60006040820190506122c86000830185611be0565b6122d56020830184611be0565b9392505050565b6000815190506122eb81611cc0565b92915050565b60006020828403121561230757612306611b17565b5b6000612315848285016122dc565b91505092915050565b600061232982611b21565b915061233483611b21565b925082820190508082111561234c5761234b611e06565b5b92915050565b6000819050919050565b600061237761237261236d84612352565b611c0a565b611b21565b9050919050565b6123878161235c565b82525050565b600060e0820190506123a2600083018a611be0565b6123af6020830189611be0565b6123bc6040830188611b84565b6123c9606083018761237e565b6123d6608083018661237e565b6123e360a0830185611be0565b6123f060c0830184611b84565b98975050505050505050565b6000806040838503121561241357612412611b17565b5b600061242185828601611d95565b925050602061243285828601611d95565b9150509250929050565b7f4e487b7100000000000000000000000000000000000000000000000000000000600052604160045260246000fd5b7f4e487b7100000000000000000000000000000000000000000000000000000000600052603260045260246000fd5b600081519050919050565b600082825260208201905092915050565b6000819050602082019050919050565b6124cf81611bce565b82525050565b60006124e183836124c6565b60208301905092915050565b6000602082019050919050565b60006125058261249a565b61250f81856124a5565b935061251a836124b6565b8060005b8381101561254b57815161253288826124d5565b975061253d836124ed565b92505060018101905061251e565b5085935050505092915050565b600060408201905061256d6000830185611b84565b818103602083015261257f81846124fa565b90509392505050565b600080fd5b6000601f19601f8301169050919050565b6125a78261258d565b810181811067ffffffffffffffff821117156125c6576125c561243c565b5b80604052505050565b60006125d9611b0d565b90506125e5828261259e565b919050565b600067ffffffffffffffff8211156126055761260461243c565b5b602082029050602081019050919050565b600080fd5b600061262e612629846125ea565b6125cf565b9050808382526020820190506020840283018581111561265157612650612616565b5b835b8181101561267a57806126668882611d95565b845260208401935050602081019050612653565b5050509392505050565b600082601f83011261269957612698612588565b5b81516126a984826020860161261b565b91505092915050565b6000602082840312156126c8576126c7611b17565b5b600082015167ffffffffffffffff8111156126e6576126e5611b1c565b5b6126f284828501612684565b91505092915050565b600061270682611b21565b915061271183611b21565b925082820261271f81611b21565b9150828204841483151761273657612735611e06565b5b5092915050565b600060a0820190506127526000830188611b84565b61275f6020830187611b84565b818103604083015261277181866124fa565b90506127806060830185611be0565b61278d6080830184611b84565b9695505050505050565b6000610100820190506127ad600083018b611be0565b6127ba602083018a611be0565b6127c76040830189611b84565b6127d46060830188611b84565b6127e16080830187611b84565b6127ee60a0830186611b84565b6127fb60c0830185611be0565b61280860e0830184611b84565b9998505050505050505050565b60008060006060848603121561282e5761282d611b17565b5b600061283c86828701611d95565b935050602061284d86828701611d95565b925050604061285e86828701611d95565b9150509250925092565b7f5361666545524332303a204552433230206f7065726174696f6e20646964206e60008201527f6f74207375636365656400000000000000000000000000000000000000000000602082015250565b60006128c4602a83611ef4565b91506128cf82612868565b604082019050919050565b600060208201905081810360008301526128f3816128b7565b9050919050565b7f416464726573733a20696e73756666696369656e742062616c616e636520666f60008201527f722063616c6c0000000000000000000000000000000000000000000000000000602082015250565b6000612956602683611ef4565b9150612961826128fa565b604082019050919050565b6000602082019050818103600083015261298581612949565b9050919050565b600081519050919050565b600081905092915050565b60005b838110156129c05780820151818401526020810190506129a5565b60008484015250505050565b60006129d78261298c565b6129e18185612997565b93506129f18185602086016129a2565b80840191505092915050565b6000612a0982846129cc565b915081905092915050565b7f416464726573733a2063616c6c20746f206e6f6e2d636f6e7472616374000000600082015250565b6000612a4a601d83611ef4565b9150612a5582612a14565b602082019050919050565b60006020820190508181036000830152612a7981612a3d565b9050919050565b600081519050919050565b6000612a9682612a80565b612aa08185611ef4565b9350612ab08185602086016129a2565b612ab98161258d565b840191505092915050565b60006020820190508181036000830152612ade8184612a8b565b90509291505056fea2646970667358221220e06f09f256d87970c512a12a4503fad2072cec75c627190a6d71f81aee1ce79d64736f6c63430008140033",
  "linkReferences": {},
  "deployedLinkReferences": {}
}