{
  "_format": "hh-sol-artifact-1",
  "contractName": "LiquidityManager",
  "sourceName": "contracts/LiquidityManager.sol",
  "abi": [
    {
      "inputs": [
        {
          "internalType": "address",
          "name": "_router",
          "type": "address"
        },
        {
          "internalType": "address",
          "name": "_audb",
          "type": "address"
        },
        {
          "internalType": "address",
          "name": "_collateral",
          "type": "address"
        }
      ],
      "stateMutability": "nonpayable",
      "type": "constructor"
    },
    {
      "anonymous": false,
      "inputs": [
        {
          "indexed": false,
          "internalType": "uint256",
          "name": "audbAmount",
          "type": "uint256"
        },
        {
          "indexed": false,
          "internalType": "uint256",
          "name": "collateralReceived",
          "type": "uint256"
        }
      ],
      "name": "ExpansionManaged",
      "type": "event"
    },
    {
      "anonymous": false,
      "inputs": [
        {
          "indexed": false,
          "internalType": "uint256",
          "name": "audbAmount",
          "type": "uint256"
        },
        {
          "indexed": false,
          "internalType": "uint256",
          "name": "collateralAmount",
          "type": "uint256"
        },
        {
          "indexed": false,
          "internalType": "uint256",
          "name": "liquidity",
          "type": "uint256"
        }
      ],
      "name": "LiquidityAdded",
      "type": "event"
    },
    {
      "anonymous": false,
      "inputs": [
        {
          "indexed": false,
          "internalType": "uint256",
          "name": "liquidity",
          "type": "uint256"
        },
        {
          "indexed": false,
          "internalType": "uint256",
          "name": "audbAmount",
          "type": "uint256"
        },
        {
          "indexed": false,
          "internalType": "uint256",
          "name": "collateralAmount",
          "type": "uint256"
        }
      ],
      "name": "LiquidityRemoved",
      "type": "event"
    },
    {
      "anonymous": false,
      "inputs": [
        {
          "indexed": true,
          "internalType": "address",
          "name": "previousOwner",
          "type": "address"
        },
        {
          "indexed": true,
          "internalType": "address",
          "name": "newOwner",
          "type": "address"
        }
      ],
      "name": "OwnershipTransferred",
      "type": "event"
    },
    {
      "inputs": [],
      "name": "audb",
      "outputs": [
        {
          "internalType": "contract AUDB",
          "name": "",
          "type": "address"
        }
      ],
      "stateMutability": "view",
      "type": "function"
    },
    {
      "inputs": [],
      "name": "collateral",
      "outputs": [
        {
          "internalType": "contract IERC20",
          "name": "",
          "type": "address"
        }
      ],
      "stateMutability": "view",
      "type": "function"
    },
    {
      "inputs": [
        {
          "internalType": "uint256",
          "name": "amountToBurn",
          "type": "uint256"
        }
      ],
      "name": "manageSupplyContraction",
      "outputs": [
        {
          "internalType": "uint256",
          "name": "",
          "type": "uint256"
        }
      ],
      "stateMutability": "nonpayable",
      "type": "function"
    },
    {
      "inputs": [
        {
          "internalType": "uint256",
          "name": "amount",
          "type": "uint256"
        }
      ],
      "name": "manageSupplyExpansion",
      "outputs": [],
      "stateMutability": "nonpayable",
      "type": "function"
    },
    {
      "inputs": [],
      "name": "owner",
      "outputs": [
        {
          "internalType": "address",
          "name": "",
          "type": "address"
        }
      ],
      "stateMutability": "view",
      "type": "function"
    },
    {
      "inputs": [],
      "name": "renounceOwnership",
      "outputs": [],
      "stateMutability": "nonpayable",
      "type": "function"
    },
    {
      "inputs": [],
      "name": "router",
      "outputs": [
        {
          "internalType": "contract IJoeRouter02",
          "name": "",
          "type": "address"
        }
      ],
      "stateMutability": "view",
      "type": "function"
    },
    {
      "inputs": [
        {
          "internalType": "address",
          "name": "newOwner",
          "type": "address"
        }
      ],
      "name": "transferOwnership",
      "outputs": [],
      "stateMutability": "nonpayable",
      "type": "function"
    },
    {
      "inputs": [
        {
          "internalType": "address",
          "name": "token",
          "type": "address"
        },
        {
          "internalType": "uint256",
          "name": "amount",
          "type": "uint256"
        }
      ],
      "name": "withdraw",
      "outputs": [],
      "stateMutability": "nonpayable",
      "type": "function"
    }
  ],
  "bytecode": "0x60806040523480156200001157600080fd5b5060405162001f7d38038062001f7d833981810160405281019062000037919062000260565b620000576200004b6200012a60201b60201c565b6200013260201b60201c565b6001808190555082600260006101000a81548173ffffffffffffffffffffffffffffffffffffffff021916908373ffffffffffffffffffffffffffffffffffffffff16021790555081600360006101000a81548173ffffffffffffffffffffffffffffffffffffffff021916908373ffffffffffffffffffffffffffffffffffffffff16021790555080600460006101000a81548173ffffffffffffffffffffffffffffffffffffffff021916908373ffffffffffffffffffffffffffffffffffffffff160217905550505050620002bc565b600033905090565b60008060009054906101000a900473ffffffffffffffffffffffffffffffffffffffff169050816000806101000a81548173ffffffffffffffffffffffffffffffffffffffff021916908373ffffffffffffffffffffffffffffffffffffffff1602179055508173ffffffffffffffffffffffffffffffffffffffff168173ffffffffffffffffffffffffffffffffffffffff167f8be0079c531659141344cd1fd0a4f28419497f9722a3daafe3b4186f6b6457e060405160405180910390a35050565b600080fd5b600073ffffffffffffffffffffffffffffffffffffffff82169050919050565b60006200022882620001fb565b9050919050565b6200023a816200021b565b81146200024657600080fd5b50565b6000815190506200025a816200022f565b92915050565b6000806000606084860312156200027c576200027b620001f6565b5b60006200028c8682870162000249565b93505060206200029f8682870162000249565b9250506040620002b28682870162000249565b9150509250925092565b611cb180620002cc6000396000f3fe608060405234801561001057600080fd5b50600436106100935760003560e01c8063bfb8c8ab11610066578063bfb8c8ab1461010e578063d8dfeb451461012a578063f2fde38b14610148578063f3fef3a314610164578063f887ea401461018057610093565b80635937d2f614610098578063715018a6146100c85780638da5cb5b146100d25780639c4282ed146100f0575b600080fd5b6100b260048036038101906100ad9190611154565b61019e565b6040516100bf9190611190565b60405180910390f35b6100d0610472565b005b6100da610486565b6040516100e791906111ec565b60405180910390f35b6100f86104af565b6040516101059190611266565b60405180910390f35b61012860048036038101906101239190611154565b6104d5565b005b610132610645565b60405161013f91906112a2565b60405180910390f35b610162600480360381019061015d91906112e9565b61066b565b005b61017e60048036038101906101799190611316565b6106ee565b005b610188610779565b6040516101959190611377565b60405180910390f35b60006101a861079f565b6101b061081d565b60006101ba61086c565b905060008173ffffffffffffffffffffffffffffffffffffffff166370a08231306040518263ffffffff1660e01b81526004016101f791906111ec565b602060405180830381865afa158015610214573d6000803e3d6000fd5b505050506040513d601f19601f8201168201806040525081019061023891906113a7565b90506000810361024d57600092505050610465565b6000600a8261025c9190611432565b90506102678161094c565b6000600360009054906101000a900473ffffffffffffffffffffffffffffffffffffffff1673ffffffffffffffffffffffffffffffffffffffff166370a08231306040518263ffffffff1660e01b81526004016102c491906111ec565b602060405180830381865afa1580156102e1573d6000803e3d6000fd5b505050506040513d601f19601f8201168201806040525081019061030591906113a7565b9050858111156103bc57600360009054906101000a900473ffffffffffffffffffffffffffffffffffffffff1673ffffffffffffffffffffffffffffffffffffffff1663a9059cbb33886040518363ffffffff1660e01b815260040161036c929190611463565b6020604051808303816000875af115801561038b573d6000803e3d6000fd5b505050506040513d601f19601f820116820180604052508101906103af91906114c4565b5085945050505050610465565b600360009054906101000a900473ffffffffffffffffffffffffffffffffffffffff1673ffffffffffffffffffffffffffffffffffffffff1663a9059cbb33836040518363ffffffff1660e01b8152600401610419929190611463565b6020604051808303816000875af1158015610438573d6000803e3d6000fd5b505050506040513d601f19601f8201168201806040525081019061045c91906114c4565b50809450505050505b61046d610aed565b919050565b61047a61079f565b6104846000610af6565b565b60008060009054906101000a900473ffffffffffffffffffffffffffffffffffffffff16905090565b600360009054906101000a900473ffffffffffffffffffffffffffffffffffffffff1681565b6104dd61079f565b6104e561081d565b600360009054906101000a900473ffffffffffffffffffffffffffffffffffffffff1673ffffffffffffffffffffffffffffffffffffffff166323b872dd3330846040518463ffffffff1660e01b8152600401610544939291906114f1565b6020604051808303816000875af1158015610563573d6000803e3d6000fd5b505050506040513d601f19601f8201168201806040525081019061058791906114c4565b6105c6576040517f08c379a00000000000000000000000000000000000000000000000000000000081526004016105bd90611585565b60405180910390fd5b60006002826105d59190611432565b9050600081836105e591906115a5565b905060006105f283610bba565b90506105fe8282610e84565b7f459688f75d53cf75dff12d962855f73d3f8e67e7a506a5c8609403f99ac90db6848260405161062f9291906115d9565b60405180910390a1505050610642610aed565b50565b600460009054906101000a900473ffffffffffffffffffffffffffffffffffffffff1681565b61067361079f565b600073ffffffffffffffffffffffffffffffffffffffff168173ffffffffffffffffffffffffffffffffffffffff16036106e2576040517f08c379a00000000000000000000000000000000000000000000000000000000081526004016106d990611674565b60405180910390fd5b6106eb81610af6565b50565b6106f661079f565b8173ffffffffffffffffffffffffffffffffffffffff1663a9059cbb33836040518363ffffffff1660e01b8152600401610731929190611463565b6020604051808303816000875af1158015610750573d6000803e3d6000fd5b505050506040513d601f19601f8201168201806040525081019061077491906114c4565b505050565b600260009054906101000a900473ffffffffffffffffffffffffffffffffffffffff1681565b6107a7611102565b73ffffffffffffffffffffffffffffffffffffffff166107c5610486565b73ffffffffffffffffffffffffffffffffffffffff161461081b576040517f08c379a0000000000000000000000000000000000000000000000000000000008152600401610812906116e0565b60405180910390fd5b565b600260015403610862576040517f08c379a00000000000000000000000000000000000000000000000000000000081526004016108599061174c565b60405180910390fd5b6002600181905550565b60008073f5c7d9733e5f53abcc1695820c4818c59b457c2c90508073ffffffffffffffffffffffffffffffffffffffff1663e6a43905600360009054906101000a900473ffffffffffffffffffffffffffffffffffffffff16600460009054906101000a900473ffffffffffffffffffffffffffffffffffffffff166040518363ffffffff1660e01b815260040161090592919061176c565b602060405180830381865afa158015610922573d6000803e3d6000fd5b505050506040513d601f19601f8201168201806040525081019061094691906117aa565b91505090565b600061095661086c565b90508073ffffffffffffffffffffffffffffffffffffffff1663095ea7b3600260009054906101000a900473ffffffffffffffffffffffffffffffffffffffff16846040518363ffffffff1660e01b81526004016109b5929190611463565b6020604051808303816000875af11580156109d4573d6000803e3d6000fd5b505050506040513d601f19601f820116820180604052508101906109f891906114c4565b50600260009054906101000a900473ffffffffffffffffffffffffffffffffffffffff1673ffffffffffffffffffffffffffffffffffffffff1663baa2abde600360009054906101000a900473ffffffffffffffffffffffffffffffffffffffff16600460009054906101000a900473ffffffffffffffffffffffffffffffffffffffff168560008030426040518863ffffffff1660e01b8152600401610aa59796959493929190611812565b60408051808303816000875af1158015610ac3573d6000803e3d6000fd5b505050506040513d601f19601f82011682018060405250810190610ae79190611881565b50505050565b60018081905550565b60008060009054906101000a900473ffffffffffffffffffffffffffffffffffffffff169050816000806101000a81548173ffffffffffffffffffffffffffffffffffffffff021916908373ffffffffffffffffffffffffffffffffffffffff1602179055508173ffffffffffffffffffffffffffffffffffffffff168173ffffffffffffffffffffffffffffffffffffffff167f8be0079c531659141344cd1fd0a4f28419497f9722a3daafe3b4186f6b6457e060405160405180910390a35050565b6000600360009054906101000a900473ffffffffffffffffffffffffffffffffffffffff1673ffffffffffffffffffffffffffffffffffffffff1663095ea7b3600260009054906101000a900473ffffffffffffffffffffffffffffffffffffffff16846040518363ffffffff1660e01b8152600401610c3b929190611463565b6020604051808303816000875af1158015610c5a573d6000803e3d6000fd5b505050506040513d601f19601f82011682018060405250810190610c7e91906114c4565b506000600267ffffffffffffffff811115610c9c57610c9b6118c1565b5b604051908082528060200260200182016040528015610cca5781602001602082028036833780820191505090505b509050600360009054906101000a900473ffffffffffffffffffffffffffffffffffffffff1681600081518110610d0457610d036118f0565b5b602002602001019073ffffffffffffffffffffffffffffffffffffffff16908173ffffffffffffffffffffffffffffffffffffffff1681525050600460009054906101000a900473ffffffffffffffffffffffffffffffffffffffff1681600181518110610d7557610d746118f0565b5b602002602001019073ffffffffffffffffffffffffffffffffffffffff16908173ffffffffffffffffffffffffffffffffffffffff16815250506000600260009054906101000a900473ffffffffffffffffffffffffffffffffffffffff1673ffffffffffffffffffffffffffffffffffffffff166338ed17398560008530426040518663ffffffff1660e01b8152600401610e159594939291906119dd565b6000604051808303816000875af1158015610e34573d6000803e3d6000fd5b505050506040513d6000823e3d601f19601f82011682018060405250810190610e5d9190611b61565b905080600181518110610e7357610e726118f0565b5b602002602001015192505050919050565b600360009054906101000a900473ffffffffffffffffffffffffffffffffffffffff1673ffffffffffffffffffffffffffffffffffffffff1663095ea7b3600260009054906101000a900473ffffffffffffffffffffffffffffffffffffffff16846040518363ffffffff1660e01b8152600401610f03929190611463565b6020604051808303816000875af1158015610f22573d6000803e3d6000fd5b505050506040513d601f19601f82011682018060405250810190610f4691906114c4565b50600460009054906101000a900473ffffffffffffffffffffffffffffffffffffffff1673ffffffffffffffffffffffffffffffffffffffff1663095ea7b3600260009054906101000a900473ffffffffffffffffffffffffffffffffffffffff16836040518363ffffffff1660e01b8152600401610fc6929190611463565b6020604051808303816000875af1158015610fe5573d6000803e3d6000fd5b505050506040513d601f19601f8201168201806040525081019061100991906114c4565b50600260009054906101000a900473ffffffffffffffffffffffffffffffffffffffff1673ffffffffffffffffffffffffffffffffffffffff1663e8e33700600360009054906101000a900473ffffffffffffffffffffffffffffffffffffffff16600460009054906101000a900473ffffffffffffffffffffffffffffffffffffffff16858560008030426040518963ffffffff1660e01b81526004016110b8989796959493929190611baa565b6060604051808303816000875af11580156110d7573d6000803e3d6000fd5b505050506040513d601f19601f820116820180604052508101906110fb9190611c28565b5050505050565b600033905090565b6000604051905090565b600080fd5b600080fd5b6000819050919050565b6111318161111e565b811461113c57600080fd5b50565b60008135905061114e81611128565b92915050565b60006020828403121561116a57611169611114565b5b60006111788482850161113f565b91505092915050565b61118a8161111e565b82525050565b60006020820190506111a56000830184611181565b92915050565b600073ffffffffffffffffffffffffffffffffffffffff82169050919050565b60006111d6826111ab565b9050919050565b6111e6816111cb565b82525050565b600060208201905061120160008301846111dd565b92915050565b6000819050919050565b600061122c611227611222846111ab565b611207565b6111ab565b9050919050565b600061123e82611211565b9050919050565b600061125082611233565b9050919050565b61126081611245565b82525050565b600060208201905061127b6000830184611257565b92915050565b600061128c82611233565b9050919050565b61129c81611281565b82525050565b60006020820190506112b76000830184611293565b92915050565b6112c6816111cb565b81146112d157600080fd5b50565b6000813590506112e3816112bd565b92915050565b6000602082840312156112ff576112fe611114565b5b600061130d848285016112d4565b91505092915050565b6000806040838503121561132d5761132c611114565b5b600061133b858286016112d4565b925050602061134c8582860161113f565b9150509250929050565b600061136182611233565b9050919050565b61137181611356565b82525050565b600060208201905061138c6000830184611368565b92915050565b6000815190506113a181611128565b92915050565b6000602082840312156113bd576113bc611114565b5b60006113cb84828501611392565b91505092915050565b7f4e487b7100000000000000000000000000000000000000000000000000000000600052601260045260246000fd5b7f4e487b7100000000000000000000000000000000000000000000000000000000600052601160045260246000fd5b600061143d8261111e565b91506114488361111e565b925082611458576114576113d4565b5b828204905092915050565b600060408201905061147860008301856111dd565b6114856020830184611181565b9392505050565b60008115159050919050565b6114a18161148c565b81146114ac57600080fd5b50565b6000815190506114be81611498565b92915050565b6000602082840312156114da576114d9611114565b5b60006114e8848285016114af565b91505092915050565b600060608201905061150660008301866111dd565b61151360208301856111dd565b6115206040830184611181565b949350505050565b600082825260208201905092915050565b7f5472616e73666572206661696c65640000000000000000000000000000000000600082015250565b600061156f600f83611528565b915061157a82611539565b602082019050919050565b6000602082019050818103600083015261159e81611562565b9050919050565b60006115b08261111e565b91506115bb8361111e565b92508282039050818111156115d3576115d2611403565b5b92915050565b60006040820190506115ee6000830185611181565b6115fb6020830184611181565b9392505050565b7f4f776e61626c653a206e6577206f776e657220697320746865207a65726f206160008201527f6464726573730000000000000000000000000000000000000000000000000000602082015250565b600061165e602683611528565b915061166982611602565b604082019050919050565b6000602082019050818103600083015261168d81611651565b9050919050565b7f4f776e61626c653a2063616c6c6572206973206e6f7420746865206f776e6572600082015250565b60006116ca602083611528565b91506116d582611694565b602082019050919050565b600060208201905081810360008301526116f9816116bd565b9050919050565b7f5265656e7472616e637947756172643a207265656e7472616e742063616c6c00600082015250565b6000611736601f83611528565b915061174182611700565b602082019050919050565b6000602082019050818103600083015261176581611729565b9050919050565b600060408201905061178160008301856111dd565b61178e60208301846111dd565b9392505050565b6000815190506117a4816112bd565b92915050565b6000602082840312156117c0576117bf611114565b5b60006117ce84828501611795565b91505092915050565b6000819050919050565b60006117fc6117f76117f2846117d7565b611207565b61111e565b9050919050565b61180c816117e1565b82525050565b600060e082019050611827600083018a6111dd565b61183460208301896111dd565b6118416040830188611181565b61184e6060830187611803565b61185b6080830186611803565b61186860a08301856111dd565b61187560c0830184611181565b98975050505050505050565b6000806040838503121561189857611897611114565b5b60006118a685828601611392565b92505060206118b785828601611392565b9150509250929050565b7f4e487b7100000000000000000000000000000000000000000000000000000000600052604160045260246000fd5b7f4e487b7100000000000000000000000000000000000000000000000000000000600052603260045260246000fd5b600081519050919050565b600082825260208201905092915050565b6000819050602082019050919050565b611954816111cb565b82525050565b6000611966838361194b565b60208301905092915050565b6000602082019050919050565b600061198a8261191f565b611994818561192a565b935061199f8361193b565b8060005b838110156119d05781516119b7888261195a565b97506119c283611972565b9250506001810190506119a3565b5085935050505092915050565b600060a0820190506119f26000830188611181565b6119ff6020830187611803565b8181036040830152611a11818661197f565b9050611a2060608301856111dd565b611a2d6080830184611181565b9695505050505050565b600080fd5b6000601f19601f8301169050919050565b611a5682611a3c565b810181811067ffffffffffffffff82111715611a7557611a746118c1565b5b80604052505050565b6000611a8861110a565b9050611a948282611a4d565b919050565b600067ffffffffffffffff821115611ab457611ab36118c1565b5b602082029050602081019050919050565b600080fd5b6000611add611ad884611a99565b611a7e565b90508083825260208201905060208402830185811115611b0057611aff611ac5565b5b835b81811015611b295780611b158882611392565b845260208401935050602081019050611b02565b5050509392505050565b600082601f830112611b4857611b47611a37565b5b8151611b58848260208601611aca565b91505092915050565b600060208284031215611b7757611b76611114565b5b600082015167ffffffffffffffff811115611b9557611b94611119565b5b611ba184828501611b33565b91505092915050565b600061010082019050611bc0600083018b6111dd565b611bcd602083018a6111dd565b611bda6040830189611181565b611be76060830188611181565b611bf46080830187611803565b611c0160a0830186611803565b611c0e60c08301856111dd565b611c1b60e0830184611181565b9998505050505050505050565b600080600060608486031215611c4157611c40611114565b5b6000611c4f86828701611392565b9350506020611c6086828701611392565b9250506040611c7186828701611392565b915050925092509256fea2646970667358221220855887aea3f1ca4be553682a0de1e6672bf3984570c64d040ef943927f9d568364736f6c63430008140033",
  "linkReferences": {},
  "deployedLinkReferences": {}
}