{
  "_format": "hh-sol-artifact-1",
  "contractName": "AUDB",
  "sourceName": "contracts/AUDB.sol",
  "abi": [
    {
      "inputs": [],
      "stateMutability": "nonpayable",
      "type": "constructor"
    },
    {
      "inputs": [],
      "name": "InvalidShortString",
      "type": "error"
    },
    {
      "inputs": [
        {
          "internalType": "string",
          "name": "str",
          "type": "string"
        }
      ],
      "name": "StringTooLong",
      "type": "error"
    },
    {
      "anonymous": false,
      "inputs": [
        {
          "indexed": true,
          "internalType": "address",
          "name": "owner",
          "type": "address"
        },
        {
          "indexed": true,
          "internalType": "address",
          "name": "spender",
          "type": "address"
        },
        {
          "indexed": false,
          "internalType": "uint256",
          "name": "value",
          "type": "uint256"
        }
      ],
      "name": "Approval",
      "type": "event"
    },
    {
      "anonymous": false,
      "inputs": [
        {
          "indexed": true,
          "internalType": "address",
          "name": "from",
          "type": "address"
        },
        {
          "indexed": false,
          "internalType": "uint256",
          "name": "amount",
          "type": "uint256"
        },
        {
          "indexed": true,
          "internalType": "address",
          "name": "burner",
          "type": "address"
        }
      ],
      "name": "Burned",
      "type": "event"
    },
    {
      "anonymous": false,
      "inputs": [],
      "name": "EIP712DomainChanged",
      "type": "event"
    },
    {
      "anonymous": false,
      "inputs": [
        {
          "indexed": true,
          "internalType": "address",
          "name": "to",
          "type": "address"
        },
        {
          "indexed": false,
          "internalType": "uint256",
          "name": "amount",
          "type": "uint256"
        },
        {
          "indexed": true,
          "internalType": "address",
          "name": "minter",
          "type": "address"
        }
      ],
      "name": "Minted",
      "type": "event"
    },
    {
      "anonymous": false,
      "inputs": [
        {
          "indexed": false,
          "internalType": "address",
          "name": "account",
          "type": "address"
        }
      ],
      "name": "Paused",
      "type": "event"
    },
    {
      "anonymous": false,
      "inputs": [
        {
          "indexed": true,
          "internalType": "bytes32",
          "name": "role",
          "type": "bytes32"
        },
        {
          "indexed": true,
          "internalType": "bytes32",
          "name": "previousAdminRole",
          "type": "bytes32"
        },
        {
          "indexed": true,
          "internalType": "bytes32",
          "name": "newAdminRole",
          "type": "bytes32"
        }
      ],
      "name": "RoleAdminChanged",
      "type": "event"
    },
    {
      "anonymous": false,
      "inputs": [
        {
          "indexed": true,
          "internalType": "bytes32",
          "name": "role",
          "type": "bytes32"
        },
        {
          "indexed": true,
          "internalType": "address",
          "name": "account",
          "type": "address"
        },
        {
          "indexed": true,
          "internalType": "address",
          "name": "sender",
          "type": "address"
        }
      ],
      "name": "RoleGranted",
      "type": "event"
    },
    {
      "anonymous": false,
      "inputs": [
        {
          "indexed": true,
          "internalType": "bytes32",
          "name": "role",
          "type": "bytes32"
        },
        {
          "indexed": true,
          "internalType": "address",
          "name": "account",
          "type": "address"
        },
        {
          "indexed": true,
          "internalType": "address",
          "name": "sender",
          "type": "address"
        }
      ],
      "name": "RoleRevoked",
      "type": "event"
    },
    {
      "anonymous": false,
      "inputs": [
        {
          "indexed": true,
          "internalType": "address",
          "name": "from",
          "type": "address"
        },
        {
          "indexed": true,
          "internalType": "address",
          "name": "to",
          "type": "address"
        },
        {
          "indexed": false,
          "internalType": "uint256",
          "name": "value",
          "type": "uint256"
        }
      ],
      "name": "Transfer",
      "type": "event"
    },
    {
      "anonymous": false,
      "inputs": [
        {
          "indexed": false,
          "internalType": "address",
          "name": "account",
          "type": "address"
        }
      ],
      "name": "Unpaused",
      "type": "event"
    },
    {
      "inputs": [],
      "name": "BURNER_ROLE",
      "outputs": [
        {
          "internalType": "bytes32",
          "name": "",
          "type": "bytes32"
        }
      ],
      "stateMutability": "view",
      "type": "function"
    },
    {
      "inputs": [],
      "name": "DEFAULT_ADMIN_ROLE",
      "outputs": [
        {
          "internalType": "bytes32",
          "name": "",
          "type": "bytes32"
        }
      ],
      "stateMutability": "view",
      "type": "function"
    },
    {
      "inputs": [],
      "name": "DOMAIN_SEPARATOR",
      "outputs": [
        {
          "internalType": "bytes32",
          "name": "",
          "type": "bytes32"
        }
      ],
      "stateMutability": "view",
      "type": "function"
    },
    {
      "inputs": [],
      "name": "MAX_MINT_PER_TX",
      "outputs": [
        {
          "internalType": "uint256",
          "name": "",
          "type": "uint256"
        }
      ],
      "stateMutability": "view",
      "type": "function"
    },
    {
      "inputs": [],
      "name": "MAX_TOTAL_SUPPLY",
      "outputs": [
        {
          "internalType": "uint256",
          "name": "",
          "type": "uint256"
        }
      ],
      "stateMutability": "view",
      "type": "function"
    },
    {
      "inputs": [],
      "name": "MINTER_ROLE",
      "outputs": [
        {
          "internalType": "bytes32",
          "name": "",
          "type": "bytes32"
        }
      ],
      "stateMutability": "view",
      "type": "function"
    },
    {
      "inputs": [],
      "name": "PAUSER_ROLE",
      "outputs": [
        {
          "internalType": "bytes32",
          "name": "",
          "type": "bytes32"
        }
      ],
      "stateMutability": "view",
      "type": "function"
    },
    {
      "inputs": [
        {
          "internalType": "address",
          "name": "owner",
          "type": "address"
        },
        {
          "internalType": "address",
          "name": "spender",
          "type": "address"
        }
      ],
      "name": "allowance",
      "outputs": [
        {
          "internalType": "uint256",
          "name": "",
          "type": "uint256"
        }
      ],
      "stateMutability": "view",
      "type": "function"
    },
    {
      "inputs": [
        {
          "internalType": "address",
          "name": "spender",
          "type": "address"
        },
        {
          "internalType": "uint256",
          "name": "amount",
          "type": "uint256"
        }
      ],
      "name": "approve",
      "outputs": [
        {
          "internalType": "bool",
          "name": "",
          "type": "bool"
        }
      ],
      "stateMutability": "nonpayable",
      "type": "function"
    },
    {
      "inputs": [
        {
          "internalType": "address",
          "name": "account",
          "type": "address"
        }
      ],
      "name": "balanceOf",
      "outputs": [
        {
          "internalType": "uint256",
          "name": "",
          "type": "uint256"
        }
      ],
      "stateMutability": "view",
      "type": "function"
    },
    {
      "inputs": [
        {
          "internalType": "address",
          "name": "from",
          "type": "address"
        },
        {
          "internalType": "uint256",
          "name": "amount",
          "type": "uint256"
        }
      ],
      "name": "burn",
      "outputs": [],
      "stateMutability": "nonpayable",
      "type": "function"
    },
    {
      "inputs": [],
      "name": "decimals",
      "outputs": [
        {
          "internalType": "uint8",
          "name": "",
          "type": "uint8"
        }
      ],
      "stateMutability": "view",
      "type": "function"
    },
    {
      "inputs": [
        {
          "internalType": "address",
          "name": "spender",
          "type": "address"
        },
        {
          "internalType": "uint256",
          "name": "subtractedValue",
          "type": "uint256"
        }
      ],
      "name": "decreaseAllowance",
      "outputs": [
        {
          "internalType": "bool",
          "name": "",
          "type": "bool"
        }
      ],
      "stateMutability": "nonpayable",
      "type": "function"
    },
    {
      "inputs": [],
      "name": "eip712Domain",
      "outputs": [
        {
          "internalType": "bytes1",
          "name": "fields",
          "type": "bytes1"
        },
        {
          "internalType": "string",
          "name": "name",
          "type": "string"
        },
        {
          "internalType": "string",
          "name": "version",
          "type": "string"
        },
        {
          "internalType": "uint256",
          "name": "chainId",
          "type": "uint256"
        },
        {
          "internalType": "address",
          "name": "verifyingContract",
          "type": "address"
        },
        {
          "internalType": "bytes32",
          "name": "salt",
          "type": "bytes32"
        },
        {
          "internalType": "uint256[]",
          "name": "extensions",
          "type": "uint256[]"
        }
      ],
      "stateMutability": "view",
      "type": "function"
    },
    {
      "inputs": [
        {
          "internalType": "bytes32",
          "name": "role",
          "type": "bytes32"
        }
      ],
      "name": "getRoleAdmin",
      "outputs": [
        {
          "internalType": "bytes32",
          "name": "",
          "type": "bytes32"
        }
      ],
      "stateMutability": "view",
      "type": "function"
    },
    {
      "inputs": [
        {
          "internalType": "bytes32",
          "name": "role",
          "type": "bytes32"
        },
        {
          "internalType": "address",
          "name": "account",
          "type": "address"
        }
      ],
      "name": "grantRole",
      "outputs": [],
      "stateMutability": "nonpayable",
      "type": "function"
    },
    {
      "inputs": [
        {
          "internalType": "bytes32",
          "name": "role",
          "type": "bytes32"
        },
        {
          "internalType": "address",
          "name": "account",
          "type": "address"
        }
      ],
      "name": "hasRole",
      "outputs": [
        {
          "internalType": "bool",
          "name": "",
          "type": "bool"
        }
      ],
      "stateMutability": "view",
      "type": "function"
    },
    {
      "inputs": [
        {
          "internalType": "address",
          "name": "spender",
          "type": "address"
        },
        {
          "internalType": "uint256",
          "name": "addedValue",
          "type": "uint256"
        }
      ],
      "name": "increaseAllowance",
      "outputs": [
        {
          "internalType": "bool",
          "name": "",
          "type": "bool"
        }
      ],
      "stateMutability": "nonpayable",
      "type": "function"
    },
    {
      "inputs": [
        {
          "internalType": "address",
          "name": "to",
          "type": "address"
        },
        {
          "internalType": "uint256",
          "name": "amount",
          "type": "uint256"
        }
      ],
      "name": "mint",
      "outputs": [],
      "stateMutability": "nonpayable",
      "type": "function"
    },
    {
      "inputs": [],
      "name": "name",
      "outputs": [
        {
          "internalType": "string",
          "name": "",
          "type": "string"
        }
      ],
      "stateMutability": "view",
      "type": "function"
    },
    {
      "inputs": [
        {
          "internalType": "address",
          "name": "owner",
          "type": "address"
        }
      ],
      "name": "nonces",
      "outputs": [
        {
          "internalType": "uint256",
          "name": "",
          "type": "uint256"
        }
      ],
      "stateMutability": "view",
      "type": "function"
    },
    {
      "inputs": [],
      "name": "pause",
      "outputs": [],
      "stateMutability": "nonpayable",
      "type": "function"
    },
    {
      "inputs": [],
      "name": "paused",
      "outputs": [
        {
          "internalType": "bool",
          "name": "",
          "type": "bool"
        }
      ],
      "stateMutability": "view",
      "type": "function"
    },
    {
      "inputs": [
        {
          "internalType": "address",
          "name": "owner",
          "type": "address"
        },
        {
          "internalType": "address",
          "name": "spender",
          "type": "address"
        },
        {
          "internalType": "uint256",
          "name": "value",
          "type": "uint256"
        },
        {
          "internalType": "uint256",
          "name": "deadline",
          "type": "uint256"
        },
        {
          "internalType": "uint8",
          "name": "v",
          "type": "uint8"
        },
        {
          "internalType": "bytes32",
          "name": "r",
          "type": "bytes32"
        },
        {
          "internalType": "bytes32",
          "name": "s",
          "type": "bytes32"
        }
      ],
      "name": "permit",
      "outputs": [],
      "stateMutability": "nonpayable",
      "type": "function"
    },
    {
      "inputs": [
        {
          "internalType": "bytes32",
          "name": "role",
          "type": "bytes32"
        },
        {
          "internalType": "address",
          "name": "account",
          "type": "address"
        }
      ],
      "name": "renounceRole",
      "outputs": [],
      "stateMutability": "nonpayable",
      "type": "function"
    },
    {
      "inputs": [
        {
          "internalType": "bytes32",
          "name": "role",
          "type": "bytes32"
        },
        {
          "internalType": "address",
          "name": "account",
          "type": "address"
        }
      ],
      "name": "revokeRole",
      "outputs": [],
      "stateMutability": "nonpayable",
      "type": "function"
    },
    {
      "inputs": [
        {
          "internalType": "bytes4",
          "name": "interfaceId",
          "type": "bytes4"
        }
      ],
      "name": "supportsInterface",
      "outputs": [
        {
          "internalType": "bool",
          "name": "",
          "type": "bool"
        }
      ],
      "stateMutability": "view",
      "type": "function"
    },
    {
      "inputs": [],
      "name": "symbol",
      "outputs": [
        {
          "internalType": "string",
          "name": "",
          "type": "string"
        }
      ],
      "stateMutability": "view",
      "type": "function"
    },
    {
      "inputs": [],
      "name": "totalSupply",
      "outputs": [
        {
          "internalType": "uint256",
          "name": "",
          "type": "uint256"
        }
      ],
      "stateMutability": "view",
      "type": "function"
    },
    {
      "inputs": [
        {
          "internalType": "address",
          "name": "to",
          "type": "address"
        },
        {
          "internalType": "uint256",
          "name": "amount",
          "type": "uint256"
        }
      ],
      "name": "transfer",
      "outputs": [
        {
          "internalType": "bool",
          "name": "",
          "type": "bool"
        }
      ],
      "stateMutability": "nonpayable",
      "type": "function"
    },
    {
      "inputs": [
        {
          "internalType": "address",
          "name": "from",
          "type": "address"
        },
        {
          "internalType": "address",
          "name": "to",
          "type": "address"
        },
        {
          "internalType": "uint256",
          "name": "amount",
          "type": "uint256"
        }
      ],
      "name": "transferFrom",
      "outputs": [
        {
          "internalType": "bool",
          "name": "",
          "type": "bool"
        }
      ],
      "stateMutability": "nonpayable",
      "type": "function"
    },
    {
      "inputs": [],
      "name": "unpause",
      "outputs": [],
      "stateMutability": "nonpayable",
      "type": "function"
    }
  ],
  "bytecode": "0x6101606040523480156200001257600080fd5b506040518060400160405280601881526020017f4175737472616c69616e20446f6c6c6172204261636b65640000000000000000815250806040518060400160405280600181526020017f31000000000000000000000000000000000000000000000000000000000000008152506040518060400160405280601881526020017f4175737472616c69616e20446f6c6c6172204261636b656400000000000000008152506040518060400160405280600481526020017f41554442000000000000000000000000000000000000000000000000000000008152508160039081620000fd919062000736565b5080600490816200010f919062000736565b505050620001286005836200022b60201b90919060201c565b6101208181525050620001466006826200022b60201b90919060201c565b6101408181525050818051906020012060e08181525050808051906020012061010081815250504660a08181525050620001856200028360201b60201c565b608081815250503073ffffffffffffffffffffffffffffffffffffffff1660c08173ffffffffffffffffffffffffffffffffffffffff16815250505050506000600a60006101000a81548160ff021916908315150217905550620001f36000801b33620002e060201b60201c565b620002257f65d7a28e3265b37a6474929f336521b332c1681b933f6cb9f3376673440d862a33620002e060201b60201c565b62000a40565b600060208351101562000251576200024983620003d260201b60201c565b90506200027d565b8262000263836200043f60201b60201c565b600001908162000274919062000736565b5060ff60001b90505b92915050565b60007f8b73c3c69bb8fe3d512ecc4cf759cc79239f7b179b0ffacaa9a75d522b39400f60e051610100514630604051602001620002c59594939291906200088e565b60405160208183030381529060405280519060200120905090565b620002f282826200044960201b60201c565b620003ce5760016009600084815260200190815260200160002060000160008373ffffffffffffffffffffffffffffffffffffffff1673ffffffffffffffffffffffffffffffffffffffff16815260200190815260200160002060006101000a81548160ff02191690831515021790555062000373620004b460201b60201c565b73ffffffffffffffffffffffffffffffffffffffff168173ffffffffffffffffffffffffffffffffffffffff16837f2f8788117e7eff1d82e926ec794901d17c78024a50270940304540a733656f0d60405160405180910390a45b5050565b600080829050601f815111156200042257826040517f305a27a90000000000000000000000000000000000000000000000000000000081526004016200041991906200097a565b60405180910390fd5b8051816200043090620009d0565b60001c1760001b915050919050565b6000819050919050565b60006009600084815260200190815260200160002060000160008373ffffffffffffffffffffffffffffffffffffffff1673ffffffffffffffffffffffffffffffffffffffff16815260200190815260200160002060009054906101000a900460ff16905092915050565b600033905090565b600081519050919050565b7f4e487b7100000000000000000000000000000000000000000000000000000000600052604160045260246000fd5b7f4e487b7100000000000000000000000000000000000000000000000000000000600052602260045260246000fd5b600060028204905060018216806200053e57607f821691505b602082108103620005545762000553620004f6565b5b50919050565b60008190508160005260206000209050919050565b60006020601f8301049050919050565b600082821b905092915050565b600060088302620005be7fffffffffffffffffffffffffffffffffffffffffffffffffffffffffffffffff826200057f565b620005ca86836200057f565b95508019841693508086168417925050509392505050565b6000819050919050565b6000819050919050565b600062000617620006116200060b84620005e2565b620005ec565b620005e2565b9050919050565b6000819050919050565b6200063383620005f6565b6200064b62000642826200061e565b8484546200058c565b825550505050565b600090565b6200066262000653565b6200066f81848462000628565b505050565b5b8181101562000697576200068b60008262000658565b60018101905062000675565b5050565b601f821115620006e657620006b0816200055a565b620006bb846200056f565b81016020851015620006cb578190505b620006e3620006da856200056f565b83018262000674565b50505b505050565b600082821c905092915050565b60006200070b60001984600802620006eb565b1980831691505092915050565b6000620007268383620006f8565b9150826002028217905092915050565b6200074182620004bc565b67ffffffffffffffff8111156200075d576200075c620004c7565b5b62000769825462000525565b620007768282856200069b565b600060209050601f831160018114620007ae576000841562000799578287015190505b620007a5858262000718565b86555062000815565b601f198416620007be866200055a565b60005b82811015620007e857848901518255600182019150602085019450602081019050620007c1565b8683101562000808578489015162000804601f891682620006f8565b8355505b6001600288020188555050505b505050505050565b6000819050919050565b62000832816200081d565b82525050565b6200084381620005e2565b82525050565b600073ffffffffffffffffffffffffffffffffffffffff82169050919050565b6000620008768262000849565b9050919050565b620008888162000869565b82525050565b600060a082019050620008a5600083018862000827565b620008b4602083018762000827565b620008c3604083018662000827565b620008d2606083018562000838565b620008e160808301846200087d565b9695505050505050565b600082825260208201905092915050565b60005b838110156200091c578082015181840152602081019050620008ff565b60008484015250505050565b6000601f19601f8301169050919050565b60006200094682620004bc565b620009528185620008eb565b935062000964818560208601620008fc565b6200096f8162000928565b840191505092915050565b6000602082019050818103600083015262000996818462000939565b905092915050565b600081519050919050565b6000819050602082019050919050565b6000620009c782516200081d565b80915050919050565b6000620009dd826200099e565b82620009e984620009a9565b9050620009f681620009b9565b9250602082101562000a395762000a347fffffffffffffffffffffffffffffffffffffffffffffffffffffffffffffffff836020036008026200057f565b831692505b5050919050565b60805160a05160c05160e051610100516101205161014051613daf62000a9b6000396000610c6301526000610c2f0152600061209c0152600061207b0152600061188b015260006118e10152600061190a0152613daf6000f3fe608060405234801561001057600080fd5b50600436106101f05760003560e01c806370a082311161010f578063a217fddf116100a2578063d539139311610071578063d5391393146105c5578063d547741f146105e3578063dd62ed3e146105ff578063e63ab1e91461062f576101f0565b8063a217fddf1461052b578063a457c2d714610549578063a9059cbb14610579578063d505accf146105a9576101f0565b80638ecad721116100de5780638ecad721146104a357806391d14854146104c157806395d89b41146104f15780639dc29fac1461050f576101f0565b806370a08231146104155780637ecebe00146104455780638456cb591461047557806384b0196e1461047f576101f0565b8063313ce56711610187578063395093511161015657806339509351146103a15780633f4ba83a146103d157806340c10f19146103db5780635c975abb146103f7576101f0565b8063313ce5671461032b57806333039d3d146103495780633644e5151461036757806336568abe14610385576101f0565b806323b872dd116101c357806323b872dd14610291578063248a9ca3146102c1578063282c51f3146102f15780632f2ff15d1461030f576101f0565b806301ffc9a7146101f557806306fdde0314610225578063095ea7b31461024357806318160ddd14610273575b600080fd5b61020f600480360381019061020a9190612763565b61064d565b60405161021c91906127ab565b60405180910390f35b61022d6106c7565b60405161023a9190612856565b60405180910390f35b61025d6004803603810190610258919061290c565b610759565b60405161026a91906127ab565b60405180910390f35b61027b61077c565b604051610288919061295b565b60405180910390f35b6102ab60048036038101906102a69190612976565b610786565b6040516102b891906127ab565b60405180910390f35b6102db60048036038101906102d691906129ff565b6107b5565b6040516102e89190612a3b565b60405180910390f35b6102f96107d5565b6040516103069190612a3b565b60405180910390f35b61032960048036038101906103249190612a56565b6107f9565b005b61033361081a565b6040516103409190612ab2565b60405180910390f35b610351610823565b60405161035e919061295b565b60405180910390f35b61036f610833565b60405161037c9190612a3b565b60405180910390f35b61039f600480360381019061039a9190612a56565b610842565b005b6103bb60048036038101906103b6919061290c565b6108c5565b6040516103c891906127ab565b60405180910390f35b6103d96108fc565b005b6103f560048036038101906103f0919061290c565b610931565b005b6103ff610b38565b60405161040c91906127ab565b60405180910390f35b61042f600480360381019061042a9190612acd565b610b4f565b60405161043c919061295b565b60405180910390f35b61045f600480360381019061045a9190612acd565b610b97565b60405161046c919061295b565b60405180910390f35b61047d610be7565b005b610487610c1c565b60405161049a9796959493929190612c02565b60405180910390f35b6104ab610d1e565b6040516104b8919061295b565b60405180910390f35b6104db60048036038101906104d69190612a56565b610d2d565b6040516104e891906127ab565b60405180910390f35b6104f9610d98565b6040516105069190612856565b60405180910390f35b6105296004803603810190610524919061290c565b610e2a565b005b610533610f82565b6040516105409190612a3b565b60405180910390f35b610563600480360381019061055e919061290c565b610f89565b60405161057091906127ab565b60405180910390f35b610593600480360381019061058e919061290c565b611000565b6040516105a091906127ab565b60405180910390f35b6105c360048036038101906105be9190612cb2565b611023565b005b6105cd611165565b6040516105da9190612a3b565b60405180910390f35b6105fd60048036038101906105f89190612a56565b611189565b005b61061960048036038101906106149190612d54565b6111aa565b604051610626919061295b565b60405180910390f35b610637611231565b6040516106449190612a3b565b60405180910390f35b60007f7965db0b000000000000000000000000000000000000000000000000000000007bffffffffffffffffffffffffffffffffffffffffffffffffffffffff1916827bffffffffffffffffffffffffffffffffffffffffffffffffffffffff191614806106c057506106bf82611255565b5b9050919050565b6060600380546106d690612dc3565b80601f016020809104026020016040519081016040528092919081815260200182805461070290612dc3565b801561074f5780601f106107245761010080835404028352916020019161074f565b820191906000526020600020905b81548152906001019060200180831161073257829003601f168201915b5050505050905090565b6000806107646112bf565b90506107718185856112c7565b600191505092915050565b6000600254905090565b6000806107916112bf565b905061079e858285611490565b6107a985858561151c565b60019150509392505050565b600060096000838152602001908152602001600020600101549050919050565b7f3c11d16cbaffd01df69ce1c404f6340ee057498f5f00246190ea54220576a84881565b610802826107b5565b61080b81611792565b61081583836117a6565b505050565b60006012905090565b6b033b2e3c9fd0803ce800000081565b600061083d611887565b905090565b61084a6112bf565b73ffffffffffffffffffffffffffffffffffffffff168173ffffffffffffffffffffffffffffffffffffffff16146108b7576040517f08c379a00000000000000000000000000000000000000000000000000000000081526004016108ae90612e66565b60405180910390fd5b6108c1828261193e565b5050565b6000806108d06112bf565b90506108f18185856108e285896111aa565b6108ec9190612eb5565b6112c7565b600191505092915050565b7f65d7a28e3265b37a6474929f336521b332c1681b933f6cb9f3376673440d862a61092681611792565b61092e611a20565b50565b7f9f2df0fed2c77648de5860a4cc508cd0818c85b8b8a1ab4ceeef8d981c8956a661095b81611792565b610963611a83565b600073ffffffffffffffffffffffffffffffffffffffff168373ffffffffffffffffffffffffffffffffffffffff16036109d2576040517f08c379a00000000000000000000000000000000000000000000000000000000081526004016109c990612f35565b60405180910390fd5b60008211610a15576040517f08c379a0000000000000000000000000000000000000000000000000000000008152600401610a0c90612fa1565b60405180910390fd5b6a084595161401484a000000821115610a63576040517f08c379a0000000000000000000000000000000000000000000000000000000008152600401610a5a9061300d565b60405180910390fd5b6b033b2e3c9fd0803ce800000082610a7961077c565b610a839190612eb5565b1115610ac4576040517f08c379a0000000000000000000000000000000000000000000000000000000008152600401610abb90613079565b60405180910390fd5b610ace8383611acd565b3373ffffffffffffffffffffffffffffffffffffffff168373ffffffffffffffffffffffffffffffffffffffff167ffd1ba5519feb014ad2f631cbd516bd3cec96be935749391554d122972593e7bf84604051610b2b919061295b565b60405180910390a3505050565b6000600a60009054906101000a900460ff16905090565b60008060008373ffffffffffffffffffffffffffffffffffffffff1673ffffffffffffffffffffffffffffffffffffffff168152602001908152602001600020549050919050565b6000610be0600760008473ffffffffffffffffffffffffffffffffffffffff1673ffffffffffffffffffffffffffffffffffffffff168152602001908152602001600020611c23565b9050919050565b7f65d7a28e3265b37a6474929f336521b332c1681b933f6cb9f3376673440d862a610c1181611792565b610c19611c31565b50565b600060608060008060006060610c5c60057f0000000000000000000000000000000000000000000000000000000000000000611c9490919063ffffffff16565b610c9060067f0000000000000000000000000000000000000000000000000000000000000000611c9490919063ffffffff16565b46306000801b600067ffffffffffffffff811115610cb157610cb0613099565b5b604051908082528060200260200182016040528015610cdf5781602001602082028036833780820191505090505b507f0f00000000000000000000000000000000000000000000000000000000000000959493929190965096509650965096509650965090919293949596565b6a084595161401484a00000081565b60006009600084815260200190815260200160002060000160008373ffffffffffffffffffffffffffffffffffffffff1673ffffffffffffffffffffffffffffffffffffffff16815260200190815260200160002060009054906101000a900460ff16905092915050565b606060048054610da790612dc3565b80601f0160208091040260200160405190810160405280929190818152602001828054610dd390612dc3565b8015610e205780601f10610df557610100808354040283529160200191610e20565b820191906000526020600020905b815481529060010190602001808311610e0357829003601f168201915b5050505050905090565b7f3c11d16cbaffd01df69ce1c404f6340ee057498f5f00246190ea54220576a848610e5481611792565b610e5c611a83565b600073ffffffffffffffffffffffffffffffffffffffff168373ffffffffffffffffffffffffffffffffffffffff1603610ecb576040517f08c379a0000000000000000000000000000000000000000000000000000000008152600401610ec290613114565b60405180910390fd5b60008211610f0e576040517f08c379a0000000000000000000000000000000000000000000000000000000008152600401610f0590613180565b60405180910390fd5b610f188383611d44565b3373ffffffffffffffffffffffffffffffffffffffff168373ffffffffffffffffffffffffffffffffffffffff167f4bec313b95a1f7373890b5d9dce4c4737945f27093ca8f3e357bec1219299eaf84604051610f75919061295b565b60405180910390a3505050565b6000801b81565b600080610f946112bf565b90506000610fa282866111aa565b905083811015610fe7576040517f08c379a0000000000000000000000000000000000000000000000000000000008152600401610fde90613212565b60405180910390fd5b610ff482868684036112c7565b60019250505092915050565b60008061100b6112bf565b905061101881858561151c565b600191505092915050565b83421115611066576040517f08c379a000000000000000000000000000000000000000000000000000000000815260040161105d9061327e565b60405180910390fd5b60007f6e71edae12b1b97f4d1f60370fef10105fa2faae0126114a169c64845d6126c98888886110958c611f11565b896040516020016110ab9695949392919061329e565b60405160208183030381529060405280519060200120905060006110ce82611f6f565b905060006110de82878787611f89565b90508973ffffffffffffffffffffffffffffffffffffffff168173ffffffffffffffffffffffffffffffffffffffff161461114e576040517f08c379a00000000000000000000000000000000000000000000000000000000081526004016111459061334b565b60405180910390fd5b6111598a8a8a6112c7565b50505050505050505050565b7f9f2df0fed2c77648de5860a4cc508cd0818c85b8b8a1ab4ceeef8d981c8956a681565b611192826107b5565b61119b81611792565b6111a5838361193e565b505050565b6000600160008473ffffffffffffffffffffffffffffffffffffffff1673ffffffffffffffffffffffffffffffffffffffff16815260200190815260200160002060008373ffffffffffffffffffffffffffffffffffffffff1673ffffffffffffffffffffffffffffffffffffffff16815260200190815260200160002054905092915050565b7f65d7a28e3265b37a6474929f336521b332c1681b933f6cb9f3376673440d862a81565b60007f01ffc9a7000000000000000000000000000000000000000000000000000000007bffffffffffffffffffffffffffffffffffffffffffffffffffffffff1916827bffffffffffffffffffffffffffffffffffffffffffffffffffffffff1916149050919050565b600033905090565b600073ffffffffffffffffffffffffffffffffffffffff168373ffffffffffffffffffffffffffffffffffffffff1603611336576040517f08c379a000000000000000000000000000000000000000000000000000000000815260040161132d906133dd565b60405180910390fd5b600073ffffffffffffffffffffffffffffffffffffffff168273ffffffffffffffffffffffffffffffffffffffff16036113a5576040517f08c379a000000000000000000000000000000000000000000000000000000000815260040161139c9061346f565b60405180910390fd5b80600160008573ffffffffffffffffffffffffffffffffffffffff1673ffffffffffffffffffffffffffffffffffffffff16815260200190815260200160002060008473ffffffffffffffffffffffffffffffffffffffff1673ffffffffffffffffffffffffffffffffffffffff168152602001908152602001600020819055508173ffffffffffffffffffffffffffffffffffffffff168373ffffffffffffffffffffffffffffffffffffffff167f8c5be1e5ebec7d5bd14f71427d1e84f3dd0314c0f7b2291e5b200ac8c7c3b92583604051611483919061295b565b60405180910390a3505050565b600061149c84846111aa565b90507fffffffffffffffffffffffffffffffffffffffffffffffffffffffffffffffff81146115165781811015611508576040517f08c379a00000000000000000000000000000000000000000000000000000000081526004016114ff906134db565b60405180910390fd5b61151584848484036112c7565b5b50505050565b600073ffffffffffffffffffffffffffffffffffffffff168373ffffffffffffffffffffffffffffffffffffffff160361158b576040517f08c379a00000000000000000000000000000000000000000000000000000000081526004016115829061356d565b60405180910390fd5b600073ffffffffffffffffffffffffffffffffffffffff168273ffffffffffffffffffffffffffffffffffffffff16036115fa576040517f08c379a00000000000000000000000000000000000000000000000000000000081526004016115f1906135ff565b60405180910390fd5b611605838383611fb4565b60008060008573ffffffffffffffffffffffffffffffffffffffff1673ffffffffffffffffffffffffffffffffffffffff1681526020019081526020016000205490508181101561168b576040517f08c379a000000000000000000000000000000000000000000000000000000000815260040161168290613691565b60405180910390fd5b8181036000808673ffffffffffffffffffffffffffffffffffffffff1673ffffffffffffffffffffffffffffffffffffffff16815260200190815260200160002081905550816000808573ffffffffffffffffffffffffffffffffffffffff1673ffffffffffffffffffffffffffffffffffffffff168152602001908152602001600020600082825401925050819055508273ffffffffffffffffffffffffffffffffffffffff168473ffffffffffffffffffffffffffffffffffffffff167fddf252ad1be2c89b69c2b068fc378daa952ba7f163c4a11628f55a4df523b3ef84604051611779919061295b565b60405180910390a361178c848484611fcc565b50505050565b6117a38161179e6112bf565b611fd1565b50565b6117b08282610d2d565b6118835760016009600084815260200190815260200160002060000160008373ffffffffffffffffffffffffffffffffffffffff1673ffffffffffffffffffffffffffffffffffffffff16815260200190815260200160002060006101000a81548160ff0219169083151502179055506118286112bf565b73ffffffffffffffffffffffffffffffffffffffff168173ffffffffffffffffffffffffffffffffffffffff16837f2f8788117e7eff1d82e926ec794901d17c78024a50270940304540a733656f0d60405160405180910390a45b5050565b60007f000000000000000000000000000000000000000000000000000000000000000073ffffffffffffffffffffffffffffffffffffffff163073ffffffffffffffffffffffffffffffffffffffff1614801561190357507f000000000000000000000000000000000000000000000000000000000000000046145b15611930577f0000000000000000000000000000000000000000000000000000000000000000905061193b565b611938612056565b90505b90565b6119488282610d2d565b15611a1c5760006009600084815260200190815260200160002060000160008373ffffffffffffffffffffffffffffffffffffffff1673ffffffffffffffffffffffffffffffffffffffff16815260200190815260200160002060006101000a81548160ff0219169083151502179055506119c16112bf565b73ffffffffffffffffffffffffffffffffffffffff168173ffffffffffffffffffffffffffffffffffffffff16837ff6391f5c32d9c69d2a47ea670b442974b53935d1edc7fd64eb21e047a839171b60405160405180910390a45b5050565b611a286120ec565b6000600a60006101000a81548160ff0219169083151502179055507f5db9ee0a495bf2e6ff9c91a7834c1ba4fdd244a5e8aa4e537bd38aeae4b073aa611a6c6112bf565b604051611a7991906136b1565b60405180910390a1565b611a8b610b38565b15611acb576040517f08c379a0000000000000000000000000000000000000000000000000000000008152600401611ac290613718565b60405180910390fd5b565b600073ffffffffffffffffffffffffffffffffffffffff168273ffffffffffffffffffffffffffffffffffffffff1603611b3c576040517f08c379a0000000000000000000000000000000000000000000000000000000008152600401611b3390613784565b60405180910390fd5b611b4860008383611fb4565b8060026000828254611b5a9190612eb5565b92505081905550806000808473ffffffffffffffffffffffffffffffffffffffff1673ffffffffffffffffffffffffffffffffffffffff168152602001908152602001600020600082825401925050819055508173ffffffffffffffffffffffffffffffffffffffff16600073ffffffffffffffffffffffffffffffffffffffff167fddf252ad1be2c89b69c2b068fc378daa952ba7f163c4a11628f55a4df523b3ef83604051611c0b919061295b565b60405180910390a3611c1f60008383611fcc565b5050565b600081600001549050919050565b611c39611a83565b6001600a60006101000a81548160ff0219169083151502179055507f62e78cea01bee320cd4e420270b5ea74000d11b0c9f74754ebdbfc544b05a258611c7d6112bf565b604051611c8a91906136b1565b60405180910390a1565b606060ff60001b8314611cb157611caa83612135565b9050611d3e565b818054611cbd90612dc3565b80601f0160208091040260200160405190810160405280929190818152602001828054611ce990612dc3565b8015611d365780601f10611d0b57610100808354040283529160200191611d36565b820191906000526020600020905b815481529060010190602001808311611d1957829003601f168201915b505050505090505b92915050565b600073ffffffffffffffffffffffffffffffffffffffff168273ffffffffffffffffffffffffffffffffffffffff1603611db3576040517f08c379a0000000000000000000000000000000000000000000000000000000008152600401611daa90613816565b60405180910390fd5b611dbf82600083611fb4565b60008060008473ffffffffffffffffffffffffffffffffffffffff1673ffffffffffffffffffffffffffffffffffffffff16815260200190815260200160002054905081811015611e45576040517f08c379a0000000000000000000000000000000000000000000000000000000008152600401611e3c906138a8565b60405180910390fd5b8181036000808573ffffffffffffffffffffffffffffffffffffffff1673ffffffffffffffffffffffffffffffffffffffff1681526020019081526020016000208190555081600260008282540392505081905550600073ffffffffffffffffffffffffffffffffffffffff168373ffffffffffffffffffffffffffffffffffffffff167fddf252ad1be2c89b69c2b068fc378daa952ba7f163c4a11628f55a4df523b3ef84604051611ef8919061295b565b60405180910390a3611f0c83600084611fcc565b505050565b600080600760008473ffffffffffffffffffffffffffffffffffffffff1673ffffffffffffffffffffffffffffffffffffffff1681526020019081526020016000209050611f5e81611c23565b9150611f69816121a9565b50919050565b6000611f82611f7c611887565b836121bf565b9050919050565b6000806000611f9a87878787612200565b91509150611fa7816122e2565b8192505050949350505050565b611fbc611a83565b611fc7838383612448565b505050565b505050565b611fdb8282610d2d565b61205257611fe88161244d565b611ff68360001c602061247a565b60405160200161200792919061399c565b6040516020818303038152906040526040517f08c379a00000000000000000000000000000000000000000000000000000000081526004016120499190612856565b60405180910390fd5b5050565b60007f8b73c3c69bb8fe3d512ecc4cf759cc79239f7b179b0ffacaa9a75d522b39400f7f00000000000000000000000000000000000000000000000000000000000000007f000000000000000000000000000000000000000000000000000000000000000046306040516020016120d19594939291906139d6565b60405160208183030381529060405280519060200120905090565b6120f4610b38565b612133576040517f08c379a000000000000000000000000000000000000000000000000000000000815260040161212a90613a75565b60405180910390fd5b565b60606000612142836126b6565b90506000602067ffffffffffffffff81111561216157612160613099565b5b6040519080825280601f01601f1916602001820160405280156121935781602001600182028036833780820191505090505b5090508181528360208201528092505050919050565b6001816000016000828254019250508190555050565b60006040517f190100000000000000000000000000000000000000000000000000000000000081528360028201528260228201526042812091505092915050565b6000807f7fffffffffffffffffffffffffffffff5d576e7357a4501ddfe92f46681b20a08360001c111561223b5760006003915091506122d9565b6000600187878787604051600081526020016040526040516122609493929190613a95565b6020604051602081039080840390855afa158015612282573d6000803e3d6000fd5b505050602060405103519050600073ffffffffffffffffffffffffffffffffffffffff168173ffffffffffffffffffffffffffffffffffffffff16036122d0576000600192509250506122d9565b80600092509250505b94509492505050565b600060048111156122f6576122f5613ada565b5b81600481111561230957612308613ada565b5b0315612445576001600481111561232357612322613ada565b5b81600481111561233657612335613ada565b5b03612376576040517f08c379a000000000000000000000000000000000000000000000000000000000815260040161236d90613b55565b60405180910390fd5b6002600481111561238a57612389613ada565b5b81600481111561239d5761239c613ada565b5b036123dd576040517f08c379a00000000000000000000000000000000000000000000000000000000081526004016123d490613bc1565b60405180910390fd5b600360048111156123f1576123f0613ada565b5b81600481111561240457612403613ada565b5b03612444576040517f08c379a000000000000000000000000000000000000000000000000000000000815260040161243b90613c53565b60405180910390fd5b5b50565b505050565b60606124738273ffffffffffffffffffffffffffffffffffffffff16601460ff1661247a565b9050919050565b60606000600283600261248d9190613c73565b6124979190612eb5565b67ffffffffffffffff8111156124b0576124af613099565b5b6040519080825280601f01601f1916602001820160405280156124e25781602001600182028036833780820191505090505b5090507f30000000000000000000000000000000000000000000000000000000000000008160008151811061251a57612519613cb5565b5b60200101907effffffffffffffffffffffffffffffffffffffffffffffffffffffffffffff1916908160001a9053507f78000000000000000000000000000000000000000000000000000000000000008160018151811061257e5761257d613cb5565b5b60200101907effffffffffffffffffffffffffffffffffffffffffffffffffffffffffffff1916908160001a905350600060018460026125be9190613c73565b6125c89190612eb5565b90505b6001811115612668577f3031323334353637383961626364656600000000000000000000000000000000600f86166010811061260a57612609613cb5565b5b1a60f81b82828151811061262157612620613cb5565b5b60200101907effffffffffffffffffffffffffffffffffffffffffffffffffffffffffffff1916908160001a905350600485901c94508061266190613ce4565b90506125cb565b50600084146126ac576040517f08c379a00000000000000000000000000000000000000000000000000000000081526004016126a390613d59565b60405180910390fd5b8091505092915050565b60008060ff8360001c169050601f8111156126fd576040517fb3512b0c00000000000000000000000000000000000000000000000000000000815260040160405180910390fd5b80915050919050565b600080fd5b60007fffffffff0000000000000000000000000000000000000000000000000000000082169050919050565b6127408161270b565b811461274b57600080fd5b50565b60008135905061275d81612737565b92915050565b60006020828403121561277957612778612706565b5b60006127878482850161274e565b91505092915050565b60008115159050919050565b6127a581612790565b82525050565b60006020820190506127c0600083018461279c565b92915050565b600081519050919050565b600082825260208201905092915050565b60005b838110156128005780820151818401526020810190506127e5565b60008484015250505050565b6000601f19601f8301169050919050565b6000612828826127c6565b61283281856127d1565b93506128428185602086016127e2565b61284b8161280c565b840191505092915050565b60006020820190508181036000830152612870818461281d565b905092915050565b600073ffffffffffffffffffffffffffffffffffffffff82169050919050565b60006128a382612878565b9050919050565b6128b381612898565b81146128be57600080fd5b50565b6000813590506128d0816128aa565b92915050565b6000819050919050565b6128e9816128d6565b81146128f457600080fd5b50565b600081359050612906816128e0565b92915050565b6000806040838503121561292357612922612706565b5b6000612931858286016128c1565b9250506020612942858286016128f7565b9150509250929050565b612955816128d6565b82525050565b6000602082019050612970600083018461294c565b92915050565b60008060006060848603121561298f5761298e612706565b5b600061299d868287016128c1565b93505060206129ae868287016128c1565b92505060406129bf868287016128f7565b9150509250925092565b6000819050919050565b6129dc816129c9565b81146129e757600080fd5b50565b6000813590506129f9816129d3565b92915050565b600060208284031215612a1557612a14612706565b5b6000612a23848285016129ea565b91505092915050565b612a35816129c9565b82525050565b6000602082019050612a506000830184612a2c565b92915050565b60008060408385031215612a6d57612a6c612706565b5b6000612a7b858286016129ea565b9250506020612a8c858286016128c1565b9150509250929050565b600060ff82169050919050565b612aac81612a96565b82525050565b6000602082019050612ac76000830184612aa3565b92915050565b600060208284031215612ae357612ae2612706565b5b6000612af1848285016128c1565b91505092915050565b60007fff0000000000000000000000000000000000000000000000000000000000000082169050919050565b612b2f81612afa565b82525050565b612b3e81612898565b82525050565b600081519050919050565b600082825260208201905092915050565b6000819050602082019050919050565b612b79816128d6565b82525050565b6000612b8b8383612b70565b60208301905092915050565b6000602082019050919050565b6000612baf82612b44565b612bb98185612b4f565b9350612bc483612b60565b8060005b83811015612bf5578151612bdc8882612b7f565b9750612be783612b97565b925050600181019050612bc8565b5085935050505092915050565b600060e082019050612c17600083018a612b26565b8181036020830152612c29818961281d565b90508181036040830152612c3d818861281d565b9050612c4c606083018761294c565b612c596080830186612b35565b612c6660a0830185612a2c565b81810360c0830152612c788184612ba4565b905098975050505050505050565b612c8f81612a96565b8114612c9a57600080fd5b50565b600081359050612cac81612c86565b92915050565b600080600080600080600060e0888a031215612cd157612cd0612706565b5b6000612cdf8a828b016128c1565b9750506020612cf08a828b016128c1565b9650506040612d018a828b016128f7565b9550506060612d128a828b016128f7565b9450506080612d238a828b01612c9d565b93505060a0612d348a828b016129ea565b92505060c0612d458a828b016129ea565b91505092959891949750929550565b60008060408385031215612d6b57612d6a612706565b5b6000612d79858286016128c1565b9250506020612d8a858286016128c1565b9150509250929050565b7f4e487b7100000000000000000000000000000000000000000000000000000000600052602260045260246000fd5b60006002820490506001821680612ddb57607f821691505b602082108103612dee57612ded612d94565b5b50919050565b7f416363657373436f6e74726f6c3a2063616e206f6e6c792072656e6f756e636560008201527f20726f6c657320666f722073656c660000000000000000000000000000000000602082015250565b6000612e50602f836127d1565b9150612e5b82612df4565b604082019050919050565b60006020820190508181036000830152612e7f81612e43565b9050919050565b7f4e487b7100000000000000000000000000000000000000000000000000000000600052601160045260246000fd5b6000612ec0826128d6565b9150612ecb836128d6565b9250828201905080821115612ee357612ee2612e86565b5b92915050565b7f415544423a206d696e7420746f207a65726f2061646472657373000000000000600082015250565b6000612f1f601a836127d1565b9150612f2a82612ee9565b602082019050919050565b60006020820190508181036000830152612f4e81612f12565b9050919050565b7f415544423a207a65726f206d696e7420616d6f756e7400000000000000000000600082015250565b6000612f8b6016836127d1565b9150612f9682612f55565b602082019050919050565b60006020820190508181036000830152612fba81612f7e565b9050919050565b7f415544423a2065786365656473206d6178206d696e7420706572207478000000600082015250565b6000612ff7601d836127d1565b915061300282612fc1565b602082019050919050565b6000602082019050818103600083015261302681612fea565b9050919050565b7f415544423a2065786365656473206d617820746f74616c20737570706c790000600082015250565b6000613063601e836127d1565b915061306e8261302d565b602082019050919050565b6000602082019050818103600083015261309281613056565b9050919050565b7f4e487b7100000000000000000000000000000000000000000000000000000000600052604160045260246000fd5b7f415544423a206275726e2066726f6d207a65726f206164647265737300000000600082015250565b60006130fe601c836127d1565b9150613109826130c8565b602082019050919050565b6000602082019050818103600083015261312d816130f1565b9050919050565b7f415544423a207a65726f206275726e20616d6f756e7400000000000000000000600082015250565b600061316a6016836127d1565b915061317582613134565b602082019050919050565b600060208201905081810360008301526131998161315d565b9050919050565b7f45524332303a2064656372656173656420616c6c6f77616e63652062656c6f7760008201527f207a65726f000000000000000000000000000000000000000000000000000000602082015250565b60006131fc6025836127d1565b9150613207826131a0565b604082019050919050565b6000602082019050818103600083015261322b816131ef565b9050919050565b7f45524332305065726d69743a206578706972656420646561646c696e65000000600082015250565b6000613268601d836127d1565b915061327382613232565b602082019050919050565b600060208201905081810360008301526132978161325b565b9050919050565b600060c0820190506132b36000830189612a2c565b6132c06020830188612b35565b6132cd6040830187612b35565b6132da606083018661294c565b6132e7608083018561294c565b6132f460a083018461294c565b979650505050505050565b7f45524332305065726d69743a20696e76616c6964207369676e61747572650000600082015250565b6000613335601e836127d1565b9150613340826132ff565b602082019050919050565b6000602082019050818103600083015261336481613328565b9050919050565b7f45524332303a20617070726f76652066726f6d20746865207a65726f2061646460008201527f7265737300000000000000000000000000000000000000000000000000000000602082015250565b60006133c76024836127d1565b91506133d28261336b565b604082019050919050565b600060208201905081810360008301526133f6816133ba565b9050919050565b7f45524332303a20617070726f766520746f20746865207a65726f20616464726560008201527f7373000000000000000000000000000000000000000000000000000000000000602082015250565b60006134596022836127d1565b9150613464826133fd565b604082019050919050565b600060208201905081810360008301526134888161344c565b9050919050565b7f45524332303a20696e73756666696369656e7420616c6c6f77616e6365000000600082015250565b60006134c5601d836127d1565b91506134d08261348f565b602082019050919050565b600060208201905081810360008301526134f4816134b8565b9050919050565b7f45524332303a207472616e736665722066726f6d20746865207a65726f20616460008201527f6472657373000000000000000000000000000000000000000000000000000000602082015250565b60006135576025836127d1565b9150613562826134fb565b604082019050919050565b600060208201905081810360008301526135868161354a565b9050919050565b7f45524332303a207472616e7366657220746f20746865207a65726f206164647260008201527f6573730000000000000000000000000000000000000000000000000000000000602082015250565b60006135e96023836127d1565b91506135f48261358d565b604082019050919050565b60006020820190508181036000830152613618816135dc565b9050919050565b7f45524332303a207472616e7366657220616d6f756e742065786365656473206260008201527f616c616e63650000000000000000000000000000000000000000000000000000602082015250565b600061367b6026836127d1565b91506136868261361f565b604082019050919050565b600060208201905081810360008301526136aa8161366e565b9050919050565b60006020820190506136c66000830184612b35565b92915050565b7f5061757361626c653a2070617573656400000000000000000000000000000000600082015250565b60006137026010836127d1565b915061370d826136cc565b602082019050919050565b60006020820190508181036000830152613731816136f5565b9050919050565b7f45524332303a206d696e7420746f20746865207a65726f206164647265737300600082015250565b600061376e601f836127d1565b915061377982613738565b602082019050919050565b6000602082019050818103600083015261379d81613761565b9050919050565b7f45524332303a206275726e2066726f6d20746865207a65726f2061646472657360008201527f7300000000000000000000000000000000000000000000000000000000000000602082015250565b60006138006021836127d1565b915061380b826137a4565b604082019050919050565b6000602082019050818103600083015261382f816137f3565b9050919050565b7f45524332303a206275726e20616d6f756e7420657863656564732062616c616e60008201527f6365000000000000000000000000000000000000000000000000000000000000602082015250565b60006138926022836127d1565b915061389d82613836565b604082019050919050565b600060208201905081810360008301526138c181613885565b9050919050565b600081905092915050565b7f416363657373436f6e74726f6c3a206163636f756e7420000000000000000000600082015250565b60006139096017836138c8565b9150613914826138d3565b601782019050919050565b600061392a826127c6565b61393481856138c8565b93506139448185602086016127e2565b80840191505092915050565b7f206973206d697373696e6720726f6c6520000000000000000000000000000000600082015250565b60006139866011836138c8565b915061399182613950565b601182019050919050565b60006139a7826138fc565b91506139b3828561391f565b91506139be82613979565b91506139ca828461391f565b91508190509392505050565b600060a0820190506139eb6000830188612a2c565b6139f86020830187612a2c565b613a056040830186612a2c565b613a12606083018561294c565b613a1f6080830184612b35565b9695505050505050565b7f5061757361626c653a206e6f7420706175736564000000000000000000000000600082015250565b6000613a5f6014836127d1565b9150613a6a82613a29565b602082019050919050565b60006020820190508181036000830152613a8e81613a52565b9050919050565b6000608082019050613aaa6000830187612a2c565b613ab76020830186612aa3565b613ac46040830185612a2c565b613ad16060830184612a2c565b95945050505050565b7f4e487b7100000000000000000000000000000000000000000000000000000000600052602160045260246000fd5b7f45434453413a20696e76616c6964207369676e61747572650000000000000000600082015250565b6000613b3f6018836127d1565b9150613b4a82613b09565b602082019050919050565b60006020820190508181036000830152613b6e81613b32565b9050919050565b7f45434453413a20696e76616c6964207369676e6174757265206c656e67746800600082015250565b6000613bab601f836127d1565b9150613bb682613b75565b602082019050919050565b60006020820190508181036000830152613bda81613b9e565b9050919050565b7f45434453413a20696e76616c6964207369676e6174757265202773272076616c60008201527f7565000000000000000000000000000000000000000000000000000000000000602082015250565b6000613c3d6022836127d1565b9150613c4882613be1565b604082019050919050565b60006020820190508181036000830152613c6c81613c30565b9050919050565b6000613c7e826128d6565b9150613c89836128d6565b9250828202613c97816128d6565b91508282048414831517613cae57613cad612e86565b5b5092915050565b7f4e487b7100000000000000000000000000000000000000000000000000000000600052603260045260246000fd5b6000613cef826128d6565b915060008203613d0257613d01612e86565b5b600182039050919050565b7f537472696e67733a20686578206c656e67746820696e73756666696369656e74600082015250565b6000613d436020836127d1565b9150613d4e82613d0d565b602082019050919050565b60006020820190508181036000830152613d7281613d36565b905091905056fea2646970667358221220103169e63a23ecb1c1365edb6712089960ca5ce72c1920bf3c47694f2111a33a64736f6c63430008140033",
  "linkReferences": {},
  "deployedLinkReferences": {}
}