{
  "_format": "hh-sol-artifact-1",
  "contractName": "AUDB",
  "sourceName": "contracts/AUDB.sol",
  "abi": [
    {
      "inputs": [],
      "stateMutability": "nonpayable",
      "type": "constructor"
    },
    {
      "inputs": [],
      "name": "InvalidShortString",
      "type": "error"
    },
    {
      "inputs": [
        {
          "internalType": "string",
          "name": "str",
          "type": "string"
        }
      ],
      "name": "StringTooLong",
      "type": "error"
    },
    {
      "anonymous": false,
      "inputs": [
        {
          "indexed": true,
          "internalType": "address",
          "name": "owner",
          "type": "address"
        },
        {
          "indexed": true,
          "internalType": "address",
          "name": "spender",
          "type": "address"
        },
        {
          "indexed": false,
          "internalType": "uint256",
          "name": "value",
          "type": "uint256"
        }
      ],
      "name": "Approval",
      "type": "event"
    },
    {
      "anonymous": false,
      "inputs": [],
      "name": "EIP712DomainChanged",
      "type": "event"
    },
    {
      "anonymous": false,
      "inputs": [
        {
          "indexed": true,
          "internalType": "address",
          "name": "previousOwner",
          "type": "address"
        },
        {
          "indexed": true,
          "internalType": "address",
          "name": "newOwner",
          "type": "address"
        }
      ],
      "name": "OwnershipTransferred",
      "type": "event"
    },
    {
      "anonymous": false,
      "inputs": [
        {
          "indexed": false,
          "internalType": "address",
          "name": "account",
          "type": "address"
        }
      ],
      "name": "Paused",
      "type": "event"
    },
    {
      "anonymous": false,
      "inputs": [
        {
          "indexed": true,
          "internalType": "address",
          "name": "from",
          "type": "address"
        },
        {
          "indexed": true,
          "internalType": "address",
          "name": "to",
          "type": "address"
        },
        {
          "indexed": false,
          "internalType": "uint256",
          "name": "value",
          "type": "uint256"
        }
      ],
      "name": "Transfer",
      "type": "event"
    },
    {
      "anonymous": false,
      "inputs": [
        {
          "indexed": false,
          "internalType": "address",
          "name": "account",
          "type": "address"
        }
      ],
      "name": "Unpaused",
      "type": "event"
    },
    {
      "inputs": [],
      "name": "DOMAIN_SEPARATOR",
      "outputs": [
        {
          "internalType": "bytes32",
          "name": "",
          "type": "bytes32"
        }
      ],
      "stateMutability": "view",
      "type": "function"
    },
    {
      "inputs": [
        {
          "internalType": "address",
          "name": "owner",
          "type": "address"
        },
        {
          "internalType": "address",
          "name": "spender",
          "type": "address"
        }
      ],
      "name": "allowance",
      "outputs": [
        {
          "internalType": "uint256",
          "name": "",
          "type": "uint256"
        }
      ],
      "stateMutability": "view",
      "type": "function"
    },
    {
      "inputs": [
        {
          "internalType": "address",
          "name": "spender",
          "type": "address"
        },
        {
          "internalType": "uint256",
          "name": "amount",
          "type": "uint256"
        }
      ],
      "name": "approve",
      "outputs": [
        {
          "internalType": "bool",
          "name": "",
          "type": "bool"
        }
      ],
      "stateMutability": "nonpayable",
      "type": "function"
    },
    {
      "inputs": [
        {
          "internalType": "address",
          "name": "account",
          "type": "address"
        }
      ],
      "name": "balanceOf",
      "outputs": [
        {
          "internalType": "uint256",
          "name": "",
          "type": "uint256"
        }
      ],
      "stateMutability": "view",
      "type": "function"
    },
    {
      "inputs": [
        {
          "internalType": "address",
          "name": "from",
          "type": "address"
        },
        {
          "internalType": "uint256",
          "name": "amount",
          "type": "uint256"
        }
      ],
      "name": "burn",
      "outputs": [],
      "stateMutability": "nonpayable",
      "type": "function"
    },
    {
      "inputs": [],
      "name": "decimals",
      "outputs": [
        {
          "internalType": "uint8",
          "name": "",
          "type": "uint8"
        }
      ],
      "stateMutability": "view",
      "type": "function"
    },
    {
      "inputs": [
        {
          "internalType": "address",
          "name": "spender",
          "type": "address"
        },
        {
          "internalType": "uint256",
          "name": "subtractedValue",
          "type": "uint256"
        }
      ],
      "name": "decreaseAllowance",
      "outputs": [
        {
          "internalType": "bool",
          "name": "",
          "type": "bool"
        }
      ],
      "stateMutability": "nonpayable",
      "type": "function"
    },
    {
      "inputs": [],
      "name": "eip712Domain",
      "outputs": [
        {
          "internalType": "bytes1",
          "name": "fields",
          "type": "bytes1"
        },
        {
          "internalType": "string",
          "name": "name",
          "type": "string"
        },
        {
          "internalType": "string",
          "name": "version",
          "type": "string"
        },
        {
          "internalType": "uint256",
          "name": "chainId",
          "type": "uint256"
        },
        {
          "internalType": "address",
          "name": "verifyingContract",
          "type": "address"
        },
        {
          "internalType": "bytes32",
          "name": "salt",
          "type": "bytes32"
        },
        {
          "internalType": "uint256[]",
          "name": "extensions",
          "type": "uint256[]"
        }
      ],
      "stateMutability": "view",
      "type": "function"
    },
    {
      "inputs": [
        {
          "internalType": "address",
          "name": "spender",
          "type": "address"
        },
        {
          "internalType": "uint256",
          "name": "addedValue",
          "type": "uint256"
        }
      ],
      "name": "increaseAllowance",
      "outputs": [
        {
          "internalType": "bool",
          "name": "",
          "type": "bool"
        }
      ],
      "stateMutability": "nonpayable",
      "type": "function"
    },
    {
      "inputs": [
        {
          "internalType": "address",
          "name": "to",
          "type": "address"
        },
        {
          "internalType": "uint256",
          "name": "amount",
          "type": "uint256"
        }
      ],
      "name": "mint",
      "outputs": [],
      "stateMutability": "nonpayable",
      "type": "function"
    },
    {
      "inputs": [],
      "name": "name",
      "outputs": [
        {
          "internalType": "string",
          "name": "",
          "type": "string"
        }
      ],
      "stateMutability": "view",
      "type": "function"
    },
    {
      "inputs": [
        {
          "internalType": "address",
          "name": "owner",
          "type": "address"
        }
      ],
      "name": "nonces",
      "outputs": [
        {
          "internalType": "uint256",
          "name": "",
          "type": "uint256"
        }
      ],
      "stateMutability": "view",
      "type": "function"
    },
    {
      "inputs": [],
      "name": "owner",
      "outputs": [
        {
          "internalType": "address",
          "name": "",
          "type": "address"
        }
      ],
      "stateMutability": "view",
      "type": "function"
    },
    {
      "inputs": [],
      "name": "pause",
      "outputs": [],
      "stateMutability": "nonpayable",
      "type": "function"
    },
    {
      "inputs": [],
      "name": "paused",
      "outputs": [
        {
          "internalType": "bool",
          "name": "",
          "type": "bool"
        }
      ],
      "stateMutability": "view",
      "type": "function"
    },
    {
      "inputs": [
        {
          "internalType": "address",
          "name": "owner",
          "type": "address"
        },
        {
          "internalType": "address",
          "name": "spender",
          "type": "address"
        },
        {
          "internalType": "uint256",
          "name": "value",
          "type": "uint256"
        },
        {
          "internalType": "uint256",
          "name": "deadline",
          "type": "uint256"
        },
        {
          "internalType": "uint8",
          "name": "v",
          "type": "uint8"
        },
        {
          "internalType": "bytes32",
          "name": "r",
          "type": "bytes32"
        },
        {
          "internalType": "bytes32",
          "name": "s",
          "type": "bytes32"
        }
      ],
      "name": "permit",
      "outputs": [],
      "stateMutability": "nonpayable",
      "type": "function"
    },
    {
      "inputs": [],
      "name": "renounceOwnership",
      "outputs": [],
      "stateMutability": "nonpayable",
      "type": "function"
    },
    {
      "inputs": [],
      "name": "symbol",
      "outputs": [
        {
          "internalType": "string",
          "name": "",
          "type": "string"
        }
      ],
      "stateMutability": "view",
      "type": "function"
    },
    {
      "inputs": [],
      "name": "totalSupply",
      "outputs": [
        {
          "internalType": "uint256",
          "name": "",
          "type": "uint256"
        }
      ],
      "stateMutability": "view",
      "type": "function"
    },
    {
      "inputs": [
        {
          "internalType": "address",
          "name": "to",
          "type": "address"
        },
        {
          "internalType": "uint256",
          "name": "amount",
          "type": "uint256"
        }
      ],
      "name": "transfer",
      "outputs": [
        {
          "internalType": "bool",
          "name": "",
          "type": "bool"
        }
      ],
      "stateMutability": "nonpayable",
      "type": "function"
    },
    {
      "inputs": [
        {
          "internalType": "address",
          "name": "from",
          "type": "address"
        },
        {
          "internalType": "address",
          "name": "to",
          "type": "address"
        },
        {
          "internalType": "uint256",
          "name": "amount",
          "type": "uint256"
        }
      ],
      "name": "transferFrom",
      "outputs": [
        {
          "internalType": "bool",
          "name": "",
          "type": "bool"
        }
      ],
      "stateMutability": "nonpayable",
      "type": "function"
    },
    {
      "inputs": [
        {
          "internalType": "address",
          "name": "newOwner",
          "type": "address"
        }
      ],
      "name": "transferOwnership",
      "outputs": [],
      "stateMutability": "nonpayable",
      "type": "function"
    },
    {
      "inputs": [],
      "name": "unpause",
      "outputs": [],
      "stateMutability": "nonpayable",
      "type": "function"
    }
  ],
  "bytecode": "0x6101606040523480156200001257600080fd5b506040518060400160405280601881526020017f4175737472616c69616e20446f6c6c6172204261636b65640000000000000000815250806040518060400160405280600181526020017f31000000000000000000000000000000000000000000000000000000000000008152506040518060400160405280601881526020017f4175737472616c69616e20446f6c6c6172204261636b656400000000000000008152506040518060400160405280600481526020017f41554442000000000000000000000000000000000000000000000000000000008152508160039081620000fd919062000678565b5080600490816200010f919062000678565b505050620001286005836200020460201b90919060201c565b6101208181525050620001466006826200020460201b90919060201c565b6101408181525050818051906020012060e08181525050808051906020012061010081815250504660a08181525050620001856200025c60201b60201c565b608081815250503073ffffffffffffffffffffffffffffffffffffffff1660c08173ffffffffffffffffffffffffffffffffffffffff1681525050505050620001e3620001d7620002b960201b60201c565b620002c160201b60201c565b6000600960146101000a81548160ff02191690831515021790555062000982565b60006020835110156200022a5762000222836200038760201b60201c565b905062000256565b826200023c83620003f460201b60201c565b60000190816200024d919062000678565b5060ff60001b90505b92915050565b60007f8b73c3c69bb8fe3d512ecc4cf759cc79239f7b179b0ffacaa9a75d522b39400f60e0516101005146306040516020016200029e959493929190620007d0565b60405160208183030381529060405280519060200120905090565b600033905090565b6000600960009054906101000a900473ffffffffffffffffffffffffffffffffffffffff16905081600960006101000a81548173ffffffffffffffffffffffffffffffffffffffff021916908373ffffffffffffffffffffffffffffffffffffffff1602179055508173ffffffffffffffffffffffffffffffffffffffff168173ffffffffffffffffffffffffffffffffffffffff167f8be0079c531659141344cd1fd0a4f28419497f9722a3daafe3b4186f6b6457e060405160405180910390a35050565b600080829050601f81511115620003d757826040517f305a27a9000000000000000000000000000000000000000000000000000000008152600401620003ce9190620008bc565b60405180910390fd5b805181620003e59062000912565b60001c1760001b915050919050565b6000819050919050565b600081519050919050565b7f4e487b7100000000000000000000000000000000000000000000000000000000600052604160045260246000fd5b7f4e487b7100000000000000000000000000000000000000000000000000000000600052602260045260246000fd5b600060028204905060018216806200048057607f821691505b60208210810362000496576200049562000438565b5b50919050565b60008190508160005260206000209050919050565b60006020601f8301049050919050565b600082821b905092915050565b600060088302620005007fffffffffffffffffffffffffffffffffffffffffffffffffffffffffffffffff82620004c1565b6200050c8683620004c1565b95508019841693508086168417925050509392505050565b6000819050919050565b6000819050919050565b600062000559620005536200054d8462000524565b6200052e565b62000524565b9050919050565b6000819050919050565b620005758362000538565b6200058d620005848262000560565b848454620004ce565b825550505050565b600090565b620005a462000595565b620005b18184846200056a565b505050565b5b81811015620005d957620005cd6000826200059a565b600181019050620005b7565b5050565b601f8211156200062857620005f2816200049c565b620005fd84620004b1565b810160208510156200060d578190505b620006256200061c85620004b1565b830182620005b6565b50505b505050565b600082821c905092915050565b60006200064d600019846008026200062d565b1980831691505092915050565b60006200066883836200063a565b9150826002028217905092915050565b6200068382620003fe565b67ffffffffffffffff8111156200069f576200069e62000409565b5b620006ab825462000467565b620006b8828285620005dd565b600060209050601f831160018114620006f05760008415620006db578287015190505b620006e785826200065a565b86555062000757565b601f19841662000700866200049c565b60005b828110156200072a5784890151825560018201915060208501945060208101905062000703565b868310156200074a578489015162000746601f8916826200063a565b8355505b6001600288020188555050505b505050505050565b6000819050919050565b62000774816200075f565b82525050565b620007858162000524565b82525050565b600073ffffffffffffffffffffffffffffffffffffffff82169050919050565b6000620007b8826200078b565b9050919050565b620007ca81620007ab565b82525050565b600060a082019050620007e7600083018862000769565b620007f6602083018762000769565b62000805604083018662000769565b6200081460608301856200077a565b620008236080830184620007bf565b9695505050505050565b600082825260208201905092915050565b60005b838110156200085e57808201518184015260208101905062000841565b60008484015250505050565b6000601f19601f8301169050919050565b60006200088882620003fe565b6200089481856200082d565b9350620008a68185602086016200083e565b620008b1816200086a565b840191505092915050565b60006020820190508181036000830152620008d881846200087b565b905092915050565b600081519050919050565b6000819050602082019050919050565b60006200090982516200075f565b80915050919050565b60006200091f82620008e0565b826200092b84620008eb565b90506200093881620008fb565b925060208210156200097b57620009767fffffffffffffffffffffffffffffffffffffffffffffffffffffffffffffffff83602003600802620004c1565b831692505b5050919050565b60805160a05160c05160e051610100516101205161014051612d8f620009dd60003960006106df015260006106ab0152600061180c015260006117eb0152600061103101526000611087015260006110b00152612d8f6000f3fe608060405234801561001057600080fd5b506004361061014d5760003560e01c8063715018a6116100c35780639dc29fac1161007c5780639dc29fac14610372578063a457c2d71461038e578063a9059cbb146103be578063d505accf146103ee578063dd62ed3e1461040a578063f2fde38b1461043a5761014d565b8063715018a6146102ce5780637ecebe00146102d85780638456cb591461030857806384b0196e146103125780638da5cb5b1461033657806395d89b41146103545761014d565b80633644e515116101155780633644e5151461020c578063395093511461022a5780633f4ba83a1461025a57806340c10f19146102645780635c975abb1461028057806370a082311461029e5761014d565b806306fdde0314610152578063095ea7b31461017057806318160ddd146101a057806323b872dd146101be578063313ce567146101ee575b600080fd5b61015a610456565b6040516101679190611c98565b60405180910390f35b61018a60048036038101906101859190611d53565b6104e8565b6040516101979190611dae565b60405180910390f35b6101a861050b565b6040516101b59190611dd8565b60405180910390f35b6101d860048036038101906101d39190611df3565b610515565b6040516101e59190611dae565b60405180910390f35b6101f6610544565b6040516102039190611e62565b60405180910390f35b61021461054d565b6040516102219190611e96565b60405180910390f35b610244600480360381019061023f9190611d53565b61055c565b6040516102519190611dae565b60405180910390f35b610262610593565b005b61027e60048036038101906102799190611d53565b6105a5565b005b6102886105c3565b6040516102959190611dae565b60405180910390f35b6102b860048036038101906102b39190611eb1565b6105da565b6040516102c59190611dd8565b60405180910390f35b6102d6610622565b005b6102f260048036038101906102ed9190611eb1565b610636565b6040516102ff9190611dd8565b60405180910390f35b610310610686565b005b61031a610698565b60405161032d9796959493929190611fe6565b60405180910390f35b61033e61079a565b60405161034b919061206a565b60405180910390f35b61035c6107c4565b6040516103699190611c98565b60405180910390f35b61038c60048036038101906103879190611d53565b610856565b005b6103a860048036038101906103a39190611d53565b610874565b6040516103b59190611dae565b60405180910390f35b6103d860048036038101906103d39190611d53565b6108eb565b6040516103e59190611dae565b60405180910390f35b610408600480360381019061040391906120dd565b61090e565b005b610424600480360381019061041f919061217f565b610a50565b6040516104319190611dd8565b60405180910390f35b610454600480360381019061044f9190611eb1565b610ad7565b005b606060038054610465906121ee565b80601f0160208091040260200160405190810160405280929190818152602001828054610491906121ee565b80156104de5780601f106104b3576101008083540402835291602001916104de565b820191906000526020600020905b8154815290600101906020018083116104c157829003601f168201915b5050505050905090565b6000806104f3610b5a565b9050610500818585610b62565b600191505092915050565b6000600254905090565b600080610520610b5a565b905061052d858285610d2b565b610538858585610db7565b60019150509392505050565b60006012905090565b600061055761102d565b905090565b600080610567610b5a565b90506105888185856105798589610a50565b610583919061224e565b610b62565b600191505092915050565b61059b6110e4565b6105a3611162565b565b6105ad6110e4565b6105b56111c5565b6105bf828261120f565b5050565b6000600960149054906101000a900460ff16905090565b60008060008373ffffffffffffffffffffffffffffffffffffffff1673ffffffffffffffffffffffffffffffffffffffff168152602001908152602001600020549050919050565b61062a6110e4565b6106346000611365565b565b600061067f600760008473ffffffffffffffffffffffffffffffffffffffff1673ffffffffffffffffffffffffffffffffffffffff16815260200190815260200160002061142b565b9050919050565b61068e6110e4565b610696611439565b565b6000606080600080600060606106d860057f000000000000000000000000000000000000000000000000000000000000000061149c90919063ffffffff16565b61070c60067f000000000000000000000000000000000000000000000000000000000000000061149c90919063ffffffff16565b46306000801b600067ffffffffffffffff81111561072d5761072c612282565b5b60405190808252806020026020018201604052801561075b5781602001602082028036833780820191505090505b507f0f00000000000000000000000000000000000000000000000000000000000000959493929190965096509650965096509650965090919293949596565b6000600960009054906101000a900473ffffffffffffffffffffffffffffffffffffffff16905090565b6060600480546107d3906121ee565b80601f01602080910402602001604051908101604052809291908181526020018280546107ff906121ee565b801561084c5780601f106108215761010080835404028352916020019161084c565b820191906000526020600020905b81548152906001019060200180831161082f57829003601f168201915b5050505050905090565b61085e6110e4565b6108666111c5565b610870828261154c565b5050565b60008061087f610b5a565b9050600061088d8286610a50565b9050838110156108d2576040517f08c379a00000000000000000000000000000000000000000000000000000000081526004016108c990612323565b60405180910390fd5b6108df8286868403610b62565b60019250505092915050565b6000806108f6610b5a565b9050610903818585610db7565b600191505092915050565b83421115610951576040517f08c379a00000000000000000000000000000000000000000000000000000000081526004016109489061238f565b60405180910390fd5b60007f6e71edae12b1b97f4d1f60370fef10105fa2faae0126114a169c64845d6126c98888886109808c611719565b89604051602001610996969594939291906123af565b60405160208183030381529060405280519060200120905060006109b982611777565b905060006109c982878787611791565b90508973ffffffffffffffffffffffffffffffffffffffff168173ffffffffffffffffffffffffffffffffffffffff1614610a39576040517f08c379a0000000000000000000000000000000000000000000000000000000008152600401610a309061245c565b60405180910390fd5b610a448a8a8a610b62565b50505050505050505050565b6000600160008473ffffffffffffffffffffffffffffffffffffffff1673ffffffffffffffffffffffffffffffffffffffff16815260200190815260200160002060008373ffffffffffffffffffffffffffffffffffffffff1673ffffffffffffffffffffffffffffffffffffffff16815260200190815260200160002054905092915050565b610adf6110e4565b600073ffffffffffffffffffffffffffffffffffffffff168173ffffffffffffffffffffffffffffffffffffffff1603610b4e576040517f08c379a0000000000000000000000000000000000000000000000000000000008152600401610b45906124ee565b60405180910390fd5b610b5781611365565b50565b600033905090565b600073ffffffffffffffffffffffffffffffffffffffff168373ffffffffffffffffffffffffffffffffffffffff1603610bd1576040517f08c379a0000000000000000000000000000000000000000000000000000000008152600401610bc890612580565b60405180910390fd5b600073ffffffffffffffffffffffffffffffffffffffff168273ffffffffffffffffffffffffffffffffffffffff1603610c40576040517f08c379a0000000000000000000000000000000000000000000000000000000008152600401610c3790612612565b60405180910390fd5b80600160008573ffffffffffffffffffffffffffffffffffffffff1673ffffffffffffffffffffffffffffffffffffffff16815260200190815260200160002060008473ffffffffffffffffffffffffffffffffffffffff1673ffffffffffffffffffffffffffffffffffffffff168152602001908152602001600020819055508173ffffffffffffffffffffffffffffffffffffffff168373ffffffffffffffffffffffffffffffffffffffff167f8c5be1e5ebec7d5bd14f71427d1e84f3dd0314c0f7b2291e5b200ac8c7c3b92583604051610d1e9190611dd8565b60405180910390a3505050565b6000610d378484610a50565b90507fffffffffffffffffffffffffffffffffffffffffffffffffffffffffffffffff8114610db15781811015610da3576040517f08c379a0000000000000000000000000000000000000000000000000000000008152600401610d9a9061267e565b60405180910390fd5b610db08484848403610b62565b5b50505050565b600073ffffffffffffffffffffffffffffffffffffffff168373ffffffffffffffffffffffffffffffffffffffff1603610e26576040517f08c379a0000000000000000000000000000000000000000000000000000000008152600401610e1d90612710565b60405180910390fd5b600073ffffffffffffffffffffffffffffffffffffffff168273ffffffffffffffffffffffffffffffffffffffff1603610e95576040517f08c379a0000000000000000000000000000000000000000000000000000000008152600401610e8c906127a2565b60405180910390fd5b610ea08383836117bc565b60008060008573ffffffffffffffffffffffffffffffffffffffff1673ffffffffffffffffffffffffffffffffffffffff16815260200190815260200160002054905081811015610f26576040517f08c379a0000000000000000000000000000000000000000000000000000000008152600401610f1d90612834565b60405180910390fd5b8181036000808673ffffffffffffffffffffffffffffffffffffffff1673ffffffffffffffffffffffffffffffffffffffff16815260200190815260200160002081905550816000808573ffffffffffffffffffffffffffffffffffffffff1673ffffffffffffffffffffffffffffffffffffffff168152602001908152602001600020600082825401925050819055508273ffffffffffffffffffffffffffffffffffffffff168473ffffffffffffffffffffffffffffffffffffffff167fddf252ad1be2c89b69c2b068fc378daa952ba7f163c4a11628f55a4df523b3ef846040516110149190611dd8565b60405180910390a36110278484846117c1565b50505050565b60007f000000000000000000000000000000000000000000000000000000000000000073ffffffffffffffffffffffffffffffffffffffff163073ffffffffffffffffffffffffffffffffffffffff161480156110a957507f000000000000000000000000000000000000000000000000000000000000000046145b156110d6577f000000000000000000000000000000000000000000000000000000000000000090506110e1565b6110de6117c6565b90505b90565b6110ec610b5a565b73ffffffffffffffffffffffffffffffffffffffff1661110a61079a565b73ffffffffffffffffffffffffffffffffffffffff1614611160576040517f08c379a0000000000000000000000000000000000000000000000000000000008152600401611157906128a0565b60405180910390fd5b565b61116a61185c565b6000600960146101000a81548160ff0219169083151502179055507f5db9ee0a495bf2e6ff9c91a7834c1ba4fdd244a5e8aa4e537bd38aeae4b073aa6111ae610b5a565b6040516111bb919061206a565b60405180910390a1565b6111cd6105c3565b1561120d576040517f08c379a00000000000000000000000000000000000000000000000000000000081526004016112049061290c565b60405180910390fd5b565b600073ffffffffffffffffffffffffffffffffffffffff168273ffffffffffffffffffffffffffffffffffffffff160361127e576040517f08c379a000000000000000000000000000000000000000000000000000000000815260040161127590612978565b60405180910390fd5b61128a600083836117bc565b806002600082825461129c919061224e565b92505081905550806000808473ffffffffffffffffffffffffffffffffffffffff1673ffffffffffffffffffffffffffffffffffffffff168152602001908152602001600020600082825401925050819055508173ffffffffffffffffffffffffffffffffffffffff16600073ffffffffffffffffffffffffffffffffffffffff167fddf252ad1be2c89b69c2b068fc378daa952ba7f163c4a11628f55a4df523b3ef8360405161134d9190611dd8565b60405180910390a3611361600083836117c1565b5050565b6000600960009054906101000a900473ffffffffffffffffffffffffffffffffffffffff16905081600960006101000a81548173ffffffffffffffffffffffffffffffffffffffff021916908373ffffffffffffffffffffffffffffffffffffffff1602179055508173ffffffffffffffffffffffffffffffffffffffff168173ffffffffffffffffffffffffffffffffffffffff167f8be0079c531659141344cd1fd0a4f28419497f9722a3daafe3b4186f6b6457e060405160405180910390a35050565b600081600001549050919050565b6114416111c5565b6001600960146101000a81548160ff0219169083151502179055507f62e78cea01bee320cd4e420270b5ea74000d11b0c9f74754ebdbfc544b05a258611485610b5a565b604051611492919061206a565b60405180910390a1565b606060ff60001b83146114b9576114b2836118a5565b9050611546565b8180546114c5906121ee565b80601f01602080910402602001604051908101604052809291908181526020018280546114f1906121ee565b801561153e5780601f106115135761010080835404028352916020019161153e565b820191906000526020600020905b81548152906001019060200180831161152157829003601f168201915b505050505090505b92915050565b600073ffffffffffffffffffffffffffffffffffffffff168273ffffffffffffffffffffffffffffffffffffffff16036115bb576040517f08c379a00000000000000000000000000000000000000000000000000000000081526004016115b290612a0a565b60405180910390fd5b6115c7826000836117bc565b60008060008473ffffffffffffffffffffffffffffffffffffffff1673ffffffffffffffffffffffffffffffffffffffff1681526020019081526020016000205490508181101561164d576040517f08c379a000000000000000000000000000000000000000000000000000000000815260040161164490612a9c565b60405180910390fd5b8181036000808573ffffffffffffffffffffffffffffffffffffffff1673ffffffffffffffffffffffffffffffffffffffff1681526020019081526020016000208190555081600260008282540392505081905550600073ffffffffffffffffffffffffffffffffffffffff168373ffffffffffffffffffffffffffffffffffffffff167fddf252ad1be2c89b69c2b068fc378daa952ba7f163c4a11628f55a4df523b3ef846040516117009190611dd8565b60405180910390a3611714836000846117c1565b505050565b600080600760008473ffffffffffffffffffffffffffffffffffffffff1673ffffffffffffffffffffffffffffffffffffffff16815260200190815260200160002090506117668161142b565b915061177181611919565b50919050565b600061178a61178461102d565b8361192f565b9050919050565b60008060006117a287878787611970565b915091506117af81611a52565b8192505050949350505050565b505050565b505050565b60007f8b73c3c69bb8fe3d512ecc4cf759cc79239f7b179b0ffacaa9a75d522b39400f7f00000000000000000000000000000000000000000000000000000000000000007f00000000000000000000000000000000000000000000000000000000000000004630604051602001611841959493929190612abc565b60405160208183030381529060405280519060200120905090565b6118646105c3565b6118a3576040517f08c379a000000000000000000000000000000000000000000000000000000000815260040161189a90612b5b565b60405180910390fd5b565b606060006118b283611bb8565b90506000602067ffffffffffffffff8111156118d1576118d0612282565b5b6040519080825280601f01601f1916602001820160405280156119035781602001600182028036833780820191505090505b5090508181528360208201528092505050919050565b6001816000016000828254019250508190555050565b60006040517f190100000000000000000000000000000000000000000000000000000000000081528360028201528260228201526042812091505092915050565b6000807f7fffffffffffffffffffffffffffffff5d576e7357a4501ddfe92f46681b20a08360001c11156119ab576000600391509150611a49565b6000600187878787604051600081526020016040526040516119d09493929190612b7b565b6020604051602081039080840390855afa1580156119f2573d6000803e3d6000fd5b505050602060405103519050600073ffffffffffffffffffffffffffffffffffffffff168173ffffffffffffffffffffffffffffffffffffffff1603611a4057600060019250925050611a49565b80600092509250505b94509492505050565b60006004811115611a6657611a65612bc0565b5b816004811115611a7957611a78612bc0565b5b0315611bb55760016004811115611a9357611a92612bc0565b5b816004811115611aa657611aa5612bc0565b5b03611ae6576040517f08c379a0000000000000000000000000000000000000000000000000000000008152600401611add90612c3b565b60405180910390fd5b60026004811115611afa57611af9612bc0565b5b816004811115611b0d57611b0c612bc0565b5b03611b4d576040517f08c379a0000000000000000000000000000000000000000000000000000000008152600401611b4490612ca7565b60405180910390fd5b60036004811115611b6157611b60612bc0565b5b816004811115611b7457611b73612bc0565b5b03611bb4576040517f08c379a0000000000000000000000000000000000000000000000000000000008152600401611bab90612d39565b60405180910390fd5b5b50565b60008060ff8360001c169050601f811115611bff576040517fb3512b0c00000000000000000000000000000000000000000000000000000000815260040160405180910390fd5b80915050919050565b600081519050919050565b600082825260208201905092915050565b60005b83811015611c42578082015181840152602081019050611c27565b60008484015250505050565b6000601f19601f8301169050919050565b6000611c6a82611c08565b611c748185611c13565b9350611c84818560208601611c24565b611c8d81611c4e565b840191505092915050565b60006020820190508181036000830152611cb28184611c5f565b905092915050565b600080fd5b600073ffffffffffffffffffffffffffffffffffffffff82169050919050565b6000611cea82611cbf565b9050919050565b611cfa81611cdf565b8114611d0557600080fd5b50565b600081359050611d1781611cf1565b92915050565b6000819050919050565b611d3081611d1d565b8114611d3b57600080fd5b50565b600081359050611d4d81611d27565b92915050565b60008060408385031215611d6a57611d69611cba565b5b6000611d7885828601611d08565b9250506020611d8985828601611d3e565b9150509250929050565b60008115159050919050565b611da881611d93565b82525050565b6000602082019050611dc36000830184611d9f565b92915050565b611dd281611d1d565b82525050565b6000602082019050611ded6000830184611dc9565b92915050565b600080600060608486031215611e0c57611e0b611cba565b5b6000611e1a86828701611d08565b9350506020611e2b86828701611d08565b9250506040611e3c86828701611d3e565b9150509250925092565b600060ff82169050919050565b611e5c81611e46565b82525050565b6000602082019050611e776000830184611e53565b92915050565b6000819050919050565b611e9081611e7d565b82525050565b6000602082019050611eab6000830184611e87565b92915050565b600060208284031215611ec757611ec6611cba565b5b6000611ed584828501611d08565b91505092915050565b60007fff0000000000000000000000000000000000000000000000000000000000000082169050919050565b611f1381611ede565b82525050565b611f2281611cdf565b82525050565b600081519050919050565b600082825260208201905092915050565b6000819050602082019050919050565b611f5d81611d1d565b82525050565b6000611f6f8383611f54565b60208301905092915050565b6000602082019050919050565b6000611f9382611f28565b611f9d8185611f33565b9350611fa883611f44565b8060005b83811015611fd9578151611fc08882611f63565b9750611fcb83611f7b565b925050600181019050611fac565b5085935050505092915050565b600060e082019050611ffb600083018a611f0a565b818103602083015261200d8189611c5f565b905081810360408301526120218188611c5f565b90506120306060830187611dc9565b61203d6080830186611f19565b61204a60a0830185611e87565b81810360c083015261205c8184611f88565b905098975050505050505050565b600060208201905061207f6000830184611f19565b92915050565b61208e81611e46565b811461209957600080fd5b50565b6000813590506120ab81612085565b92915050565b6120ba81611e7d565b81146120c557600080fd5b50565b6000813590506120d7816120b1565b92915050565b600080600080600080600060e0888a0312156120fc576120fb611cba565b5b600061210a8a828b01611d08565b975050602061211b8a828b01611d08565b965050604061212c8a828b01611d3e565b955050606061213d8a828b01611d3e565b945050608061214e8a828b0161209c565b93505060a061215f8a828b016120c8565b92505060c06121708a828b016120c8565b91505092959891949750929550565b6000806040838503121561219657612195611cba565b5b60006121a485828601611d08565b92505060206121b585828601611d08565b9150509250929050565b7f4e487b7100000000000000000000000000000000000000000000000000000000600052602260045260246000fd5b6000600282049050600182168061220657607f821691505b602082108103612219576122186121bf565b5b50919050565b7f4e487b7100000000000000000000000000000000000000000000000000000000600052601160045260246000fd5b600061225982611d1d565b915061226483611d1d565b925082820190508082111561227c5761227b61221f565b5b92915050565b7f4e487b7100000000000000000000000000000000000000000000000000000000600052604160045260246000fd5b7f45524332303a2064656372656173656420616c6c6f77616e63652062656c6f7760008201527f207a65726f000000000000000000000000000000000000000000000000000000602082015250565b600061230d602583611c13565b9150612318826122b1565b604082019050919050565b6000602082019050818103600083015261233c81612300565b9050919050565b7f45524332305065726d69743a206578706972656420646561646c696e65000000600082015250565b6000612379601d83611c13565b915061238482612343565b602082019050919050565b600060208201905081810360008301526123a88161236c565b9050919050565b600060c0820190506123c46000830189611e87565b6123d16020830188611f19565b6123de6040830187611f19565b6123eb6060830186611dc9565b6123f86080830185611dc9565b61240560a0830184611dc9565b979650505050505050565b7f45524332305065726d69743a20696e76616c6964207369676e61747572650000600082015250565b6000612446601e83611c13565b915061245182612410565b602082019050919050565b6000602082019050818103600083015261247581612439565b9050919050565b7f4f776e61626c653a206e6577206f776e657220697320746865207a65726f206160008201527f6464726573730000000000000000000000000000000000000000000000000000602082015250565b60006124d8602683611c13565b91506124e38261247c565b604082019050919050565b60006020820190508181036000830152612507816124cb565b9050919050565b7f45524332303a20617070726f76652066726f6d20746865207a65726f2061646460008201527f7265737300000000000000000000000000000000000000000000000000000000602082015250565b600061256a602483611c13565b91506125758261250e565b604082019050919050565b600060208201905081810360008301526125998161255d565b9050919050565b7f45524332303a20617070726f766520746f20746865207a65726f20616464726560008201527f7373000000000000000000000000000000000000000000000000000000000000602082015250565b60006125fc602283611c13565b9150612607826125a0565b604082019050919050565b6000602082019050818103600083015261262b816125ef565b9050919050565b7f45524332303a20696e73756666696369656e7420616c6c6f77616e6365000000600082015250565b6000612668601d83611c13565b915061267382612632565b602082019050919050565b600060208201905081810360008301526126978161265b565b9050919050565b7f45524332303a207472616e736665722066726f6d20746865207a65726f20616460008201527f6472657373000000000000000000000000000000000000000000000000000000602082015250565b60006126fa602583611c13565b91506127058261269e565b604082019050919050565b60006020820190508181036000830152612729816126ed565b9050919050565b7f45524332303a207472616e7366657220746f20746865207a65726f206164647260008201527f6573730000000000000000000000000000000000000000000000000000000000602082015250565b600061278c602383611c13565b915061279782612730565b604082019050919050565b600060208201905081810360008301526127bb8161277f565b9050919050565b7f45524332303a207472616e7366657220616d6f756e742065786365656473206260008201527f616c616e63650000000000000000000000000000000000000000000000000000602082015250565b600061281e602683611c13565b9150612829826127c2565b604082019050919050565b6000602082019050818103600083015261284d81612811565b9050919050565b7f4f776e61626c653a2063616c6c6572206973206e6f7420746865206f776e6572600082015250565b600061288a602083611c13565b915061289582612854565b602082019050919050565b600060208201905081810360008301526128b98161287d565b9050919050565b7f5061757361626c653a2070617573656400000000000000000000000000000000600082015250565b60006128f6601083611c13565b9150612901826128c0565b602082019050919050565b60006020820190508181036000830152612925816128e9565b9050919050565b7f45524332303a206d696e7420746f20746865207a65726f206164647265737300600082015250565b6000612962601f83611c13565b915061296d8261292c565b602082019050919050565b6000602082019050818103600083015261299181612955565b9050919050565b7f45524332303a206275726e2066726f6d20746865207a65726f2061646472657360008201527f7300000000000000000000000000000000000000000000000000000000000000602082015250565b60006129f4602183611c13565b91506129ff82612998565b604082019050919050565b60006020820190508181036000830152612a23816129e7565b9050919050565b7f45524332303a206275726e20616d6f756e7420657863656564732062616c616e60008201527f6365000000000000000000000000000000000000000000000000000000000000602082015250565b6000612a86602283611c13565b9150612a9182612a2a565b604082019050919050565b60006020820190508181036000830152612ab581612a79565b9050919050565b600060a082019050612ad16000830188611e87565b612ade6020830187611e87565b612aeb6040830186611e87565b612af86060830185611dc9565b612b056080830184611f19565b9695505050505050565b7f5061757361626c653a206e6f7420706175736564000000000000000000000000600082015250565b6000612b45601483611c13565b9150612b5082612b0f565b602082019050919050565b60006020820190508181036000830152612b7481612b38565b9050919050565b6000608082019050612b906000830187611e87565b612b9d6020830186611e53565b612baa6040830185611e87565b612bb76060830184611e87565b95945050505050565b7f4e487b7100000000000000000000000000000000000000000000000000000000600052602160045260246000fd5b7f45434453413a20696e76616c6964207369676e61747572650000000000000000600082015250565b6000612c25601883611c13565b9150612c3082612bef565b602082019050919050565b60006020820190508181036000830152612c5481612c18565b9050919050565b7f45434453413a20696e76616c6964207369676e6174757265206c656e67746800600082015250565b6000612c91601f83611c13565b9150612c9c82612c5b565b602082019050919050565b60006020820190508181036000830152612cc081612c84565b9050919050565b7f45434453413a20696e76616c6964207369676e6174757265202773272076616c60008201527f7565000000000000000000000000000000000000000000000000000000000000602082015250565b6000612d23602283611c13565b9150612d2e82612cc7565b604082019050919050565b60006020820190508181036000830152612d5281612d16565b905091905056fea2646970667358221220b30869f2b7cd3e9ea99026c34070dc3e8132362c5e2e1069a50fa8e38e6d888b64736f6c63430008140033",
  "linkReferences": {},
  "deployedLinkReferences": {}
}