{
  "_format": "hh-sol-artifact-1",
  "contractName": "AUDB",
  "sourceName": "contracts/AUDB.sol",
  "abi": [
    {
      "inputs": [],
      "stateMutability": "nonpayable",
      "type": "constructor"
    },
    {
      "anonymous": false,
      "inputs": [
        {
          "indexed": true,
          "internalType": "address",
          "name": "owner",
          "type": "address"
        },
        {
          "indexed": true,
          "internalType": "address",
          "name": "spender",
          "type": "address"
        },
        {
          "indexed": false,
          "internalType": "uint256",
          "name": "value",
          "type": "uint256"
        }
      ],
      "name": "Approval",
      "type": "event"
    },
    {
      "anonymous": false,
      "inputs": [
        {
          "indexed": true,
          "internalType": "address",
          "name": "previousOwner",
          "type": "address"
        },
        {
          "indexed": true,
          "internalType": "address",
          "name": "newOwner",
          "type": "address"
        }
      ],
      "name": "OwnershipTransferred",
      "type": "event"
    },
    {
      "anonymous": false,
      "inputs": [
        {
          "indexed": false,
          "internalType": "address",
          "name": "account",
          "type": "address"
        }
      ],
      "name": "Paused",
      "type": "event"
    },
    {
      "anonymous": false,
      "inputs": [
        {
          "indexed": true,
          "internalType": "address",
          "name": "from",
          "type": "address"
        },
        {
          "indexed": true,
          "internalType": "address",
          "name": "to",
          "type": "address"
        },
        {
          "indexed": false,
          "internalType": "uint256",
          "name": "value",
          "type": "uint256"
        }
      ],
      "name": "Transfer",
      "type": "event"
    },
    {
      "anonymous": false,
      "inputs": [
        {
          "indexed": false,
          "internalType": "address",
          "name": "account",
          "type": "address"
        }
      ],
      "name": "Unpaused",
      "type": "event"
    },
    {
      "inputs": [
        {
          "internalType": "address",
          "name": "owner",
          "type": "address"
        },
        {
          "internalType": "address",
          "name": "spender",
          "type": "address"
        }
      ],
      "name": "allowance",
      "outputs": [
        {
          "internalType": "uint256",
          "name": "",
          "type": "uint256"
        }
      ],
      "stateMutability": "view",
      "type": "function"
    },
    {
      "inputs": [
        {
          "internalType": "address",
          "name": "spender",
          "type": "address"
        },
        {
          "internalType": "uint256",
          "name": "amount",
          "type": "uint256"
        }
      ],
      "name": "approve",
      "outputs": [
        {
          "internalType": "bool",
          "name": "",
          "type": "bool"
        }
      ],
      "stateMutability": "nonpayable",
      "type": "function"
    },
    {
      "inputs": [
        {
          "internalType": "address",
          "name": "account",
          "type": "address"
        }
      ],
      "name": "balanceOf",
      "outputs": [
        {
          "internalType": "uint256",
          "name": "",
          "type": "uint256"
        }
      ],
      "stateMutability": "view",
      "type": "function"
    },
    {
      "inputs": [
        {
          "internalType": "address",
          "name": "from",
          "type": "address"
        },
        {
          "internalType": "uint256",
          "name": "amount",
          "type": "uint256"
        }
      ],
      "name": "burn",
      "outputs": [],
      "stateMutability": "nonpayable",
      "type": "function"
    },
    {
      "inputs": [],
      "name": "decimals",
      "outputs": [
        {
          "internalType": "uint8",
          "name": "",
          "type": "uint8"
        }
      ],
      "stateMutability": "view",
      "type": "function"
    },
    {
      "inputs": [
        {
          "internalType": "address",
          "name": "spender",
          "type": "address"
        },
        {
          "internalType": "uint256",
          "name": "subtractedValue",
          "type": "uint256"
        }
      ],
      "name": "decreaseAllowance",
      "outputs": [
        {
          "internalType": "bool",
          "name": "",
          "type": "bool"
        }
      ],
      "stateMutability": "nonpayable",
      "type": "function"
    },
    {
      "inputs": [
        {
          "internalType": "address",
          "name": "spender",
          "type": "address"
        },
        {
          "internalType": "uint256",
          "name": "addedValue",
          "type": "uint256"
        }
      ],
      "name": "increaseAllowance",
      "outputs": [
        {
          "internalType": "bool",
          "name": "",
          "type": "bool"
        }
      ],
      "stateMutability": "nonpayable",
      "type": "function"
    },
    {
      "inputs": [
        {
          "internalType": "address",
          "name": "to",
          "type": "address"
        },
        {
          "internalType": "uint256",
          "name": "amount",
          "type": "uint256"
        }
      ],
      "name": "mint",
      "outputs": [],
      "stateMutability": "nonpayable",
      "type": "function"
    },
    {
      "inputs": [],
      "name": "name",
      "outputs": [
        {
          "internalType": "string",
          "name": "",
          "type": "string"
        }
      ],
      "stateMutability": "view",
      "type": "function"
    },
    {
      "inputs": [],
      "name": "owner",
      "outputs": [
        {
          "internalType": "address",
          "name": "",
          "type": "address"
        }
      ],
      "stateMutability": "view",
      "type": "function"
    },
    {
      "inputs": [],
      "name": "pause",
      "outputs": [],
      "stateMutability": "nonpayable",
      "type": "function"
    },
    {
      "inputs": [],
      "name": "paused",
      "outputs": [
        {
          "internalType": "bool",
          "name": "",
          "type": "bool"
        }
      ],
      "stateMutability": "view",
      "type": "function"
    },
    {
      "inputs": [],
      "name": "renounceOwnership",
      "outputs": [],
      "stateMutability": "nonpayable",
      "type": "function"
    },
    {
      "inputs": [],
      "name": "symbol",
      "outputs": [
        {
          "internalType": "string",
          "name": "",
          "type": "string"
        }
      ],
      "stateMutability": "view",
      "type": "function"
    },
    {
      "inputs": [],
      "name": "totalSupply",
      "outputs": [
        {
          "internalType": "uint256",
          "name": "",
          "type": "uint256"
        }
      ],
      "stateMutability": "view",
      "type": "function"
    },
    {
      "inputs": [
        {
          "internalType": "address",
          "name": "to",
          "type": "address"
        },
        {
          "internalType": "uint256",
          "name": "amount",
          "type": "uint256"
        }
      ],
      "name": "transfer",
      "outputs": [
        {
          "internalType": "bool",
          "name": "",
          "type": "bool"
        }
      ],
      "stateMutability": "nonpayable",
      "type": "function"
    },
    {
      "inputs": [
        {
          "internalType": "address",
          "name": "from",
          "type": "address"
        },
        {
          "internalType": "address",
          "name": "to",
          "type": "address"
        },
        {
          "internalType": "uint256",
          "name": "amount",
          "type": "uint256"
        }
      ],
      "name": "transferFrom",
      "outputs": [
        {
          "internalType": "bool",
          "name": "",
          "type": "bool"
        }
      ],
      "stateMutability": "nonpayable",
      "type": "function"
    },
    {
      "inputs": [
        {
          "internalType": "address",
          "name": "newOwner",
          "type": "address"
        }
      ],
      "name": "transferOwnership",
      "outputs": [],
      "stateMutability": "nonpayable",
      "type": "function"
    },
    {
      "inputs": [],
      "name": "unpause",
      "outputs": [],
      "stateMutability": "nonpayable",
      "type": "function"
    }
  ],
  "bytecode": "0x60806040523480156200001157600080fd5b506040518060400160405280601881526020017f4175737472616c69616e20446f6c6c6172204261636b656400000000000000008152506040518060400160405280600481526020017f415544420000000000000000000000000000000000000000000000000000000081525081600390816200008f91906200042d565b508060049081620000a191906200042d565b505050620000c4620000b8620000e560201b60201c565b620000ed60201b60201c565b6000600560146101000a81548160ff02191690831515021790555062000514565b600033905090565b6000600560009054906101000a900473ffffffffffffffffffffffffffffffffffffffff16905081600560006101000a81548173ffffffffffffffffffffffffffffffffffffffff021916908373ffffffffffffffffffffffffffffffffffffffff1602179055508173ffffffffffffffffffffffffffffffffffffffff168173ffffffffffffffffffffffffffffffffffffffff167f8be0079c531659141344cd1fd0a4f28419497f9722a3daafe3b4186f6b6457e060405160405180910390a35050565b600081519050919050565b7f4e487b7100000000000000000000000000000000000000000000000000000000600052604160045260246000fd5b7f4e487b7100000000000000000000000000000000000000000000000000000000600052602260045260246000fd5b600060028204905060018216806200023557607f821691505b6020821081036200024b576200024a620001ed565b5b50919050565b60008190508160005260206000209050919050565b60006020601f8301049050919050565b600082821b905092915050565b600060088302620002b57fffffffffffffffffffffffffffffffffffffffffffffffffffffffffffffffff8262000276565b620002c1868362000276565b95508019841693508086168417925050509392505050565b6000819050919050565b6000819050919050565b60006200030e620003086200030284620002d9565b620002e3565b620002d9565b9050919050565b6000819050919050565b6200032a83620002ed565b62000342620003398262000315565b84845462000283565b825550505050565b600090565b620003596200034a565b620003668184846200031f565b505050565b5b818110156200038e57620003826000826200034f565b6001810190506200036c565b5050565b601f821115620003dd57620003a78162000251565b620003b28462000266565b81016020851015620003c2578190505b620003da620003d18562000266565b8301826200036b565b50505b505050565b600082821c905092915050565b60006200040260001984600802620003e2565b1980831691505092915050565b60006200041d8383620003ef565b9150826002028217905092915050565b6200043882620001b3565b67ffffffffffffffff811115620004545762000453620001be565b5b6200046082546200021c565b6200046d82828562000392565b600060209050601f831160018114620004a5576000841562000490578287015190505b6200049c85826200040f565b8655506200050c565b601f198416620004b58662000251565b60005b82811015620004df57848901518255600182019150602085019450602081019050620004b8565b86831015620004ff5784890151620004fb601f891682620003ef565b8355505b6001600288020188555050505b505050505050565b611ddd80620005246000396000f3fe608060405234801561001057600080fd5b50600436106101215760003560e01c806370a08231116100ad5780639dc29fac116100715780639dc29fac146102d4578063a457c2d7146102f0578063a9059cbb14610320578063dd62ed3e14610350578063f2fde38b1461038057610121565b806370a0823114610254578063715018a6146102845780638456cb591461028e5780638da5cb5b1461029857806395d89b41146102b657610121565b8063313ce567116100f4578063313ce567146101c257806339509351146101e05780633f4ba83a1461021057806340c10f191461021a5780635c975abb1461023657610121565b806306fdde0314610126578063095ea7b31461014457806318160ddd1461017457806323b872dd14610192575b600080fd5b61012e61039c565b60405161013b919061132a565b60405180910390f35b61015e600480360381019061015991906113e5565b61042e565b60405161016b9190611440565b60405180910390f35b61017c610451565b604051610189919061146a565b60405180910390f35b6101ac60048036038101906101a79190611485565b61045b565b6040516101b99190611440565b60405180910390f35b6101ca61048a565b6040516101d791906114f4565b60405180910390f35b6101fa60048036038101906101f591906113e5565b610493565b6040516102079190611440565b60405180910390f35b6102186104ca565b005b610234600480360381019061022f91906113e5565b6104dc565b005b61023e6104fa565b60405161024b9190611440565b60405180910390f35b61026e6004803603810190610269919061150f565b610511565b60405161027b919061146a565b60405180910390f35b61028c610559565b005b61029661056d565b005b6102a061057f565b6040516102ad919061154b565b60405180910390f35b6102be6105a9565b6040516102cb919061132a565b60405180910390f35b6102ee60048036038101906102e991906113e5565b61063b565b005b61030a600480360381019061030591906113e5565b610659565b6040516103179190611440565b60405180910390f35b61033a600480360381019061033591906113e5565b6106d0565b6040516103479190611440565b60405180910390f35b61036a60048036038101906103659190611566565b6106f3565b604051610377919061146a565b60405180910390f35b61039a6004803603810190610395919061150f565b61077a565b005b6060600380546103ab906115d5565b80601f01602080910402602001604051908101604052809291908181526020018280546103d7906115d5565b80156104245780601f106103f957610100808354040283529160200191610424565b820191906000526020600020905b81548152906001019060200180831161040757829003601f168201915b5050505050905090565b6000806104396107fd565b9050610446818585610805565b600191505092915050565b6000600254905090565b6000806104666107fd565b90506104738582856109ce565b61047e858585610a5a565b60019150509392505050565b60006012905090565b60008061049e6107fd565b90506104bf8185856104b085896106f3565b6104ba9190611635565b610805565b600191505092915050565b6104d2610cd0565b6104da610d4e565b565b6104e4610cd0565b6104ec610db1565b6104f68282610dfb565b5050565b6000600560149054906101000a900460ff16905090565b60008060008373ffffffffffffffffffffffffffffffffffffffff1673ffffffffffffffffffffffffffffffffffffffff168152602001908152602001600020549050919050565b610561610cd0565b61056b6000610f51565b565b610575610cd0565b61057d611017565b565b6000600560009054906101000a900473ffffffffffffffffffffffffffffffffffffffff16905090565b6060600480546105b8906115d5565b80601f01602080910402602001604051908101604052809291908181526020018280546105e4906115d5565b80156106315780601f1061060657610100808354040283529160200191610631565b820191906000526020600020905b81548152906001019060200180831161061457829003601f168201915b5050505050905090565b610643610cd0565b61064b610db1565b610655828261107a565b5050565b6000806106646107fd565b9050600061067282866106f3565b9050838110156106b7576040517f08c379a00000000000000000000000000000000000000000000000000000000081526004016106ae906116db565b60405180910390fd5b6106c48286868403610805565b60019250505092915050565b6000806106db6107fd565b90506106e8818585610a5a565b600191505092915050565b6000600160008473ffffffffffffffffffffffffffffffffffffffff1673ffffffffffffffffffffffffffffffffffffffff16815260200190815260200160002060008373ffffffffffffffffffffffffffffffffffffffff1673ffffffffffffffffffffffffffffffffffffffff16815260200190815260200160002054905092915050565b610782610cd0565b600073ffffffffffffffffffffffffffffffffffffffff168173ffffffffffffffffffffffffffffffffffffffff16036107f1576040517f08c379a00000000000000000000000000000000000000000000000000000000081526004016107e89061176d565b60405180910390fd5b6107fa81610f51565b50565b600033905090565b600073ffffffffffffffffffffffffffffffffffffffff168373ffffffffffffffffffffffffffffffffffffffff1603610874576040517f08c379a000000000000000000000000000000000000000000000000000000000815260040161086b906117ff565b60405180910390fd5b600073ffffffffffffffffffffffffffffffffffffffff168273ffffffffffffffffffffffffffffffffffffffff16036108e3576040517f08c379a00000000000000000000000000000000000000000000000000000000081526004016108da90611891565b60405180910390fd5b80600160008573ffffffffffffffffffffffffffffffffffffffff1673ffffffffffffffffffffffffffffffffffffffff16815260200190815260200160002060008473ffffffffffffffffffffffffffffffffffffffff1673ffffffffffffffffffffffffffffffffffffffff168152602001908152602001600020819055508173ffffffffffffffffffffffffffffffffffffffff168373ffffffffffffffffffffffffffffffffffffffff167f8c5be1e5ebec7d5bd14f71427d1e84f3dd0314c0f7b2291e5b200ac8c7c3b925836040516109c1919061146a565b60405180910390a3505050565b60006109da84846106f3565b90507fffffffffffffffffffffffffffffffffffffffffffffffffffffffffffffffff8114610a545781811015610a46576040517f08c379a0000000000000000000000000000000000000000000000000000000008152600401610a3d906118fd565b60405180910390fd5b610a538484848403610805565b5b50505050565b600073ffffffffffffffffffffffffffffffffffffffff168373ffffffffffffffffffffffffffffffffffffffff1603610ac9576040517f08c379a0000000000000000000000000000000000000000000000000000000008152600401610ac09061198f565b60405180910390fd5b600073ffffffffffffffffffffffffffffffffffffffff168273ffffffffffffffffffffffffffffffffffffffff1603610b38576040517f08c379a0000000000000000000000000000000000000000000000000000000008152600401610b2f90611a21565b60405180910390fd5b610b43838383611247565b60008060008573ffffffffffffffffffffffffffffffffffffffff1673ffffffffffffffffffffffffffffffffffffffff16815260200190815260200160002054905081811015610bc9576040517f08c379a0000000000000000000000000000000000000000000000000000000008152600401610bc090611ab3565b60405180910390fd5b8181036000808673ffffffffffffffffffffffffffffffffffffffff1673ffffffffffffffffffffffffffffffffffffffff16815260200190815260200160002081905550816000808573ffffffffffffffffffffffffffffffffffffffff1673ffffffffffffffffffffffffffffffffffffffff168152602001908152602001600020600082825401925050819055508273ffffffffffffffffffffffffffffffffffffffff168473ffffffffffffffffffffffffffffffffffffffff167fddf252ad1be2c89b69c2b068fc378daa952ba7f163c4a11628f55a4df523b3ef84604051610cb7919061146a565b60405180910390a3610cca84848461124c565b50505050565b610cd86107fd565b73ffffffffffffffffffffffffffffffffffffffff16610cf661057f565b73ffffffffffffffffffffffffffffffffffffffff1614610d4c576040517f08c379a0000000000000000000000000000000000000000000000000000000008152600401610d4390611b1f565b60405180910390fd5b565b610d56611251565b6000600560146101000a81548160ff0219169083151502179055507f5db9ee0a495bf2e6ff9c91a7834c1ba4fdd244a5e8aa4e537bd38aeae4b073aa610d9a6107fd565b604051610da7919061154b565b60405180910390a1565b610db96104fa565b15610df9576040517f08c379a0000000000000000000000000000000000000000000000000000000008152600401610df090611b8b565b60405180910390fd5b565b600073ffffffffffffffffffffffffffffffffffffffff168273ffffffffffffffffffffffffffffffffffffffff1603610e6a576040517f08c379a0000000000000000000000000000000000000000000000000000000008152600401610e6190611bf7565b60405180910390fd5b610e7660008383611247565b8060026000828254610e889190611635565b92505081905550806000808473ffffffffffffffffffffffffffffffffffffffff1673ffffffffffffffffffffffffffffffffffffffff168152602001908152602001600020600082825401925050819055508173ffffffffffffffffffffffffffffffffffffffff16600073ffffffffffffffffffffffffffffffffffffffff167fddf252ad1be2c89b69c2b068fc378daa952ba7f163c4a11628f55a4df523b3ef83604051610f39919061146a565b60405180910390a3610f4d6000838361124c565b5050565b6000600560009054906101000a900473ffffffffffffffffffffffffffffffffffffffff16905081600560006101000a81548173ffffffffffffffffffffffffffffffffffffffff021916908373ffffffffffffffffffffffffffffffffffffffff1602179055508173ffffffffffffffffffffffffffffffffffffffff168173ffffffffffffffffffffffffffffffffffffffff167f8be0079c531659141344cd1fd0a4f28419497f9722a3daafe3b4186f6b6457e060405160405180910390a35050565b61101f610db1565b6001600560146101000a81548160ff0219169083151502179055507f62e78cea01bee320cd4e420270b5ea74000d11b0c9f74754ebdbfc544b05a2586110636107fd565b604051611070919061154b565b60405180910390a1565b600073ffffffffffffffffffffffffffffffffffffffff168273ffffffffffffffffffffffffffffffffffffffff16036110e9576040517f08c379a00000000000000000000000000000000000000000000000000000000081526004016110e090611c89565b60405180910390fd5b6110f582600083611247565b60008060008473ffffffffffffffffffffffffffffffffffffffff1673ffffffffffffffffffffffffffffffffffffffff1681526020019081526020016000205490508181101561117b576040517f08c379a000000000000000000000000000000000000000000000000000000000815260040161117290611d1b565b60405180910390fd5b8181036000808573ffffffffffffffffffffffffffffffffffffffff1673ffffffffffffffffffffffffffffffffffffffff1681526020019081526020016000208190555081600260008282540392505081905550600073ffffffffffffffffffffffffffffffffffffffff168373ffffffffffffffffffffffffffffffffffffffff167fddf252ad1be2c89b69c2b068fc378daa952ba7f163c4a11628f55a4df523b3ef8460405161122e919061146a565b60405180910390a36112428360008461124c565b505050565b505050565b505050565b6112596104fa565b611298576040517f08c379a000000000000000000000000000000000000000000000000000000000815260040161128f90611d87565b60405180910390fd5b565b600081519050919050565b600082825260208201905092915050565b60005b838110156112d45780820151818401526020810190506112b9565b60008484015250505050565b6000601f19601f8301169050919050565b60006112fc8261129a565b61130681856112a5565b93506113168185602086016112b6565b61131f816112e0565b840191505092915050565b6000602082019050818103600083015261134481846112f1565b905092915050565b600080fd5b600073ffffffffffffffffffffffffffffffffffffffff82169050919050565b600061137c82611351565b9050919050565b61138c81611371565b811461139757600080fd5b50565b6000813590506113a981611383565b92915050565b6000819050919050565b6113c2816113af565b81146113cd57600080fd5b50565b6000813590506113df816113b9565b92915050565b600080604083850312156113fc576113fb61134c565b5b600061140a8582860161139a565b925050602061141b858286016113d0565b9150509250929050565b60008115159050919050565b61143a81611425565b82525050565b60006020820190506114556000830184611431565b92915050565b611464816113af565b82525050565b600060208201905061147f600083018461145b565b92915050565b60008060006060848603121561149e5761149d61134c565b5b60006114ac8682870161139a565b93505060206114bd8682870161139a565b92505060406114ce868287016113d0565b9150509250925092565b600060ff82169050919050565b6114ee816114d8565b82525050565b600060208201905061150960008301846114e5565b92915050565b6000602082840312156115255761152461134c565b5b60006115338482850161139a565b91505092915050565b61154581611371565b82525050565b6000602082019050611560600083018461153c565b92915050565b6000806040838503121561157d5761157c61134c565b5b600061158b8582860161139a565b925050602061159c8582860161139a565b9150509250929050565b7f4e487b7100000000000000000000000000000000000000000000000000000000600052602260045260246000fd5b600060028204905060018216806115ed57607f821691505b602082108103611600576115ff6115a6565b5b50919050565b7f4e487b7100000000000000000000000000000000000000000000000000000000600052601160045260246000fd5b6000611640826113af565b915061164b836113af565b925082820190508082111561166357611662611606565b5b92915050565b7f45524332303a2064656372656173656420616c6c6f77616e63652062656c6f7760008201527f207a65726f000000000000000000000000000000000000000000000000000000602082015250565b60006116c56025836112a5565b91506116d082611669565b604082019050919050565b600060208201905081810360008301526116f4816116b8565b9050919050565b7f4f776e61626c653a206e6577206f776e657220697320746865207a65726f206160008201527f6464726573730000000000000000000000000000000000000000000000000000602082015250565b60006117576026836112a5565b9150611762826116fb565b604082019050919050565b600060208201905081810360008301526117868161174a565b9050919050565b7f45524332303a20617070726f76652066726f6d20746865207a65726f2061646460008201527f7265737300000000000000000000000000000000000000000000000000000000602082015250565b60006117e96024836112a5565b91506117f48261178d565b604082019050919050565b60006020820190508181036000830152611818816117dc565b9050919050565b7f45524332303a20617070726f766520746f20746865207a65726f20616464726560008201527f7373000000000000000000000000000000000000000000000000000000000000602082015250565b600061187b6022836112a5565b91506118868261181f565b604082019050919050565b600060208201905081810360008301526118aa8161186e565b9050919050565b7f45524332303a20696e73756666696369656e7420616c6c6f77616e6365000000600082015250565b60006118e7601d836112a5565b91506118f2826118b1565b602082019050919050565b60006020820190508181036000830152611916816118da565b9050919050565b7f45524332303a207472616e736665722066726f6d20746865207a65726f20616460008201527f6472657373000000000000000000000000000000000000000000000000000000602082015250565b60006119796025836112a5565b91506119848261191d565b604082019050919050565b600060208201905081810360008301526119a88161196c565b9050919050565b7f45524332303a207472616e7366657220746f20746865207a65726f206164647260008201527f6573730000000000000000000000000000000000000000000000000000000000602082015250565b6000611a0b6023836112a5565b9150611a16826119af565b604082019050919050565b60006020820190508181036000830152611a3a816119fe565b9050919050565b7f45524332303a207472616e7366657220616d6f756e742065786365656473206260008201527f616c616e63650000000000000000000000000000000000000000000000000000602082015250565b6000611a9d6026836112a5565b9150611aa882611a41565b604082019050919050565b60006020820190508181036000830152611acc81611a90565b9050919050565b7f4f776e61626c653a2063616c6c6572206973206e6f7420746865206f776e6572600082015250565b6000611b096020836112a5565b9150611b1482611ad3565b602082019050919050565b60006020820190508181036000830152611b3881611afc565b9050919050565b7f5061757361626c653a2070617573656400000000000000000000000000000000600082015250565b6000611b756010836112a5565b9150611b8082611b3f565b602082019050919050565b60006020820190508181036000830152611ba481611b68565b9050919050565b7f45524332303a206d696e7420746f20746865207a65726f206164647265737300600082015250565b6000611be1601f836112a5565b9150611bec82611bab565b602082019050919050565b60006020820190508181036000830152611c1081611bd4565b9050919050565b7f45524332303a206275726e2066726f6d20746865207a65726f2061646472657360008201527f7300000000000000000000000000000000000000000000000000000000000000602082015250565b6000611c736021836112a5565b9150611c7e82611c17565b604082019050919050565b60006020820190508181036000830152611ca281611c66565b9050919050565b7f45524332303a206275726e20616d6f756e7420657863656564732062616c616e60008201527f6365000000000000000000000000000000000000000000000000000000000000602082015250565b6000611d056022836112a5565b9150611d1082611ca9565b604082019050919050565b60006020820190508181036000830152611d3481611cf8565b9050919050565b7f5061757361626c653a206e6f7420706175736564000000000000000000000000600082015250565b6000611d716014836112a5565b9150611d7c82611d3b565b602082019050919050565b60006020820190508181036000830152611da081611d64565b905091905056fea2646970667358221220833b120216d908b8825a98087945d074e6a631b066dd734f0e3c57b3dd5a35a064736f6c63430008140033",
  "linkReferences": {},
  "deployedLinkReferences": {}
}