{
  "_format": "hh-sol-artifact-1",
  "contractName": "Rebalancer",
  "sourceName": "contracts/Rebalancer.sol",
  "abi": [
    {
      "inputs": [
        {
          "internalType": "address",
          "name": "_pyth",
          "type": "address"
        },
        {
          "internalType": "bytes32",
          "name": "_audUsdPriceId",
          "type": "bytes32"
        },
        {
          "internalType": "address",
          "name": "_audb",
          "type": "address"
        },
        {
          "internalType": "address",
          "name": "_liquidityManager",
          "type": "address"
        },
        {
          "internalType": "address",
          "name": "_router",
          "type": "address"
        },
        {
          "internalType": "address",
          "name": "_usdc",
          "type": "address"
        }
      ],
      "stateMutability": "nonpayable",
      "type": "constructor"
    },
    {
      "anonymous": false,
      "inputs": [
        {
          "indexed": true,
          "internalType": "address",
          "name": "previousOwner",
          "type": "address"
        },
        {
          "indexed": true,
          "internalType": "address",
          "name": "newOwner",
          "type": "address"
        }
      ],
      "name": "OwnershipTransferred",
      "type": "event"
    },
    {
      "anonymous": false,
      "inputs": [
        {
          "indexed": false,
          "internalType": "uint256",
          "name": "marketPrice",
          "type": "uint256"
        },
        {
          "indexed": false,
          "internalType": "uint256",
          "name": "adjustment",
          "type": "uint256"
        },
        {
          "indexed": false,
          "internalType": "bool",
          "name": "isExpansion",
          "type": "bool"
        }
      ],
      "name": "Rebalanced",
      "type": "event"
    },
    {
      "inputs": [],
      "name": "audUsdPriceId",
      "outputs": [
        {
          "internalType": "bytes32",
          "name": "",
          "type": "bytes32"
        }
      ],
      "stateMutability": "view",
      "type": "function"
    },
    {
      "inputs": [],
      "name": "audb",
      "outputs": [
        {
          "internalType": "contract AUDB",
          "name": "",
          "type": "address"
        }
      ],
      "stateMutability": "view",
      "type": "function"
    },
    {
      "inputs": [],
      "name": "deviationThreshold",
      "outputs": [
        {
          "internalType": "uint256",
          "name": "",
          "type": "uint256"
        }
      ],
      "stateMutability": "view",
      "type": "function"
    },
    {
      "inputs": [],
      "name": "getDexPrice",
      "outputs": [
        {
          "internalType": "uint256",
          "name": "",
          "type": "uint256"
        }
      ],
      "stateMutability": "view",
      "type": "function"
    },
    {
      "inputs": [],
      "name": "getOraclePrice",
      "outputs": [
        {
          "internalType": "uint256",
          "name": "",
          "type": "uint256"
        }
      ],
      "stateMutability": "view",
      "type": "function"
    },
    {
      "inputs": [],
      "name": "liquidityManager",
      "outputs": [
        {
          "internalType": "contract ILiquidityManager",
          "name": "",
          "type": "address"
        }
      ],
      "stateMutability": "view",
      "type": "function"
    },
    {
      "inputs": [],
      "name": "owner",
      "outputs": [
        {
          "internalType": "address",
          "name": "",
          "type": "address"
        }
      ],
      "stateMutability": "view",
      "type": "function"
    },
    {
      "inputs": [],
      "name": "peg",
      "outputs": [
        {
          "internalType": "uint256",
          "name": "",
          "type": "uint256"
        }
      ],
      "stateMutability": "view",
      "type": "function"
    },
    {
      "inputs": [],
      "name": "pyth",
      "outputs": [
        {
          "internalType": "contract IPyth",
          "name": "",
          "type": "address"
        }
      ],
      "stateMutability": "view",
      "type": "function"
    },
    {
      "inputs": [],
      "name": "rebalance",
      "outputs": [],
      "stateMutability": "nonpayable",
      "type": "function"
    },
    {
      "inputs": [],
      "name": "renounceOwnership",
      "outputs": [],
      "stateMutability": "nonpayable",
      "type": "function"
    },
    {
      "inputs": [],
      "name": "router",
      "outputs": [
        {
          "internalType": "contract IJoeRouter02",
          "name": "",
          "type": "address"
        }
      ],
      "stateMutability": "view",
      "type": "function"
    },
    {
      "inputs": [
        {
          "internalType": "address",
          "name": "newOwner",
          "type": "address"
        }
      ],
      "name": "transferOwnership",
      "outputs": [],
      "stateMutability": "nonpayable",
      "type": "function"
    },
    {
      "inputs": [],
      "name": "usdc",
      "outputs": [
        {
          "internalType": "address",
          "name": "",
          "type": "address"
        }
      ],
      "stateMutability": "view",
      "type": "function"
    }
  ],
  "bytecode": "0x6080604052670de0b6b3a7640000600855662386f26fc100006009553480156200002857600080fd5b506040516200203e3803806200203e83398181016040528101906200004e91906200033e565b6200006e62000062620001cd60201b60201c565b620001d560201b60201c565b6001808190555085600260006101000a81548173ffffffffffffffffffffffffffffffffffffffff021916908373ffffffffffffffffffffffffffffffffffffffff1602179055508460068190555083600360006101000a81548173ffffffffffffffffffffffffffffffffffffffff021916908373ffffffffffffffffffffffffffffffffffffffff16021790555082600460006101000a81548173ffffffffffffffffffffffffffffffffffffffff021916908373ffffffffffffffffffffffffffffffffffffffff16021790555081600560006101000a81548173ffffffffffffffffffffffffffffffffffffffff021916908373ffffffffffffffffffffffffffffffffffffffff16021790555080600760006101000a81548173ffffffffffffffffffffffffffffffffffffffff021916908373ffffffffffffffffffffffffffffffffffffffff160217905550505050505050620003da565b600033905090565b60008060009054906101000a900473ffffffffffffffffffffffffffffffffffffffff169050816000806101000a81548173ffffffffffffffffffffffffffffffffffffffff021916908373ffffffffffffffffffffffffffffffffffffffff1602179055508173ffffffffffffffffffffffffffffffffffffffff168173ffffffffffffffffffffffffffffffffffffffff167f8be0079c531659141344cd1fd0a4f28419497f9722a3daafe3b4186f6b6457e060405160405180910390a35050565b600080fd5b600073ffffffffffffffffffffffffffffffffffffffff82169050919050565b6000620002cb826200029e565b9050919050565b620002dd81620002be565b8114620002e957600080fd5b50565b600081519050620002fd81620002d2565b92915050565b6000819050919050565b620003188162000303565b81146200032457600080fd5b50565b60008151905062000338816200030d565b92915050565b60008060008060008060c087890312156200035e576200035d62000299565b5b60006200036e89828a01620002ec565b96505060206200038189828a0162000327565b95505060406200039489828a01620002ec565b9450506060620003a789828a01620002ec565b9350506080620003ba89828a01620002ec565b92505060a0620003cd89828a01620002ec565b9150509295509295509295565b611c5480620003ea6000396000f3fe608060405234801561001057600080fd5b50600436106100ea5760003560e01c80639c4282ed1161008c578063e838c80611610066578063e838c806146101f3578063f2fde38b14610211578063f887ea401461022d578063f98d06f01461024b576100ea565b80639c4282ed14610199578063c775659f146101b7578063d94ad837146101d5576100ea565b8063715018a6116100c8578063715018a614610149578063796da7af146101535780637d7c2a1c146101715780638da5cb5b1461017b576100ea565b80631f1cb62b146100ef578063338274381461010d5780633e413bee1461012b575b600080fd5b6100f7610269565b6040516101049190610f38565b60405180910390f35b61011561026f565b6040516101229190610fd2565b60405180910390f35b610133610295565b604051610140919061100e565b60405180910390f35b6101516102bb565b005b61015b6102cf565b6040516101689190610f38565b60405180910390f35b610179610383565b005b610183610900565b604051610190919061100e565b60405180910390f35b6101a1610929565b6040516101ae919061104a565b60405180910390f35b6101bf61094f565b6040516101cc919061107e565b60405180910390f35b6101dd610955565b6040516101ea9190610f38565b60405180910390f35b6101fb61095b565b6040516102089190610f38565b60405180910390f35b61022b600480360381019061022691906110d9565b610b72565b005b610235610bf5565b6040516102429190611127565b60405180910390f35b610253610c1b565b6040516102609190611163565b60405180910390f35b60085481565b600460009054906101000a900473ffffffffffffffffffffffffffffffffffffffff1681565b600760009054906101000a900473ffffffffffffffffffffffffffffffffffffffff1681565b6102c3610c41565b6102cd6000610cbf565b565b600080600260009054906101000a900473ffffffffffffffffffffffffffffffffffffffff1673ffffffffffffffffffffffffffffffffffffffff166396834ad36006546040518263ffffffff1660e01b815260040161032f919061107e565b608060405180830381865afa15801561034c573d6000803e3d6000fd5b505050506040513d601f19601f820116820180604052508101906103709190611365565b905061037d816012610d83565b91505090565b61038b610c41565b610393610ebf565b600061039d6102cf565b90506009546008546103af91906113c1565b81111561069d576000600854826103c691906113f5565b90506000600360009054906101000a900473ffffffffffffffffffffffffffffffffffffffff1673ffffffffffffffffffffffffffffffffffffffff166318160ddd6040518163ffffffff1660e01b8152600401602060405180830381865afa158015610437573d6000803e3d6000fd5b505050506040513d601f19601f8201168201806040525081019061045b9190611429565b90506000600854828461046e9190611456565b61047891906114c7565b9050600360009054906101000a900473ffffffffffffffffffffffffffffffffffffffff1673ffffffffffffffffffffffffffffffffffffffff166340c10f1930836040518363ffffffff1660e01b81526004016104d79291906114f8565b600060405180830381600087803b1580156104f157600080fd5b505af1158015610505573d6000803e3d6000fd5b50505050600360009054906101000a900473ffffffffffffffffffffffffffffffffffffffff1673ffffffffffffffffffffffffffffffffffffffff1663095ea7b3600460009054906101000a900473ffffffffffffffffffffffffffffffffffffffff16836040518363ffffffff1660e01b81526004016105889291906114f8565b6020604051808303816000875af11580156105a7573d6000803e3d6000fd5b505050506040513d601f19601f820116820180604052508101906105cb9190611559565b50600460009054906101000a900473ffffffffffffffffffffffffffffffffffffffff1673ffffffffffffffffffffffffffffffffffffffff1663bfb8c8ab826040518263ffffffff1660e01b81526004016106279190610f38565b600060405180830381600087803b15801561064157600080fd5b505af1158015610655573d6000803e3d6000fd5b505050507fdc0059e80d42df4720e3b192305597f0caca2c3d12687fd62c1bb75d60666f428482600160405161068d93929190611595565b60405180910390a15050506108f5565b6009546008546106ad91906113f5565b8110156108f4576000816008546106c491906113f5565b90506000600360009054906101000a900473ffffffffffffffffffffffffffffffffffffffff1673ffffffffffffffffffffffffffffffffffffffff166318160ddd6040518163ffffffff1660e01b8152600401602060405180830381865afa158015610735573d6000803e3d6000fd5b505050506040513d601f19601f820116820180604052508101906107599190611429565b90506000600854828461076c9190611456565b61077691906114c7565b90506000600460009054906101000a900473ffffffffffffffffffffffffffffffffffffffff1673ffffffffffffffffffffffffffffffffffffffff16635937d2f6836040518263ffffffff1660e01b81526004016107d59190610f38565b6020604051808303816000875af11580156107f4573d6000803e3d6000fd5b505050506040513d601f19601f820116820180604052508101906108189190611429565b905060008111156108b357600360009054906101000a900473ffffffffffffffffffffffffffffffffffffffff1673ffffffffffffffffffffffffffffffffffffffff16639dc29fac30836040518363ffffffff1660e01b81526004016108809291906114f8565b600060405180830381600087803b15801561089a57600080fd5b505af11580156108ae573d6000803e3d6000fd5b505050505b7fdc0059e80d42df4720e3b192305597f0caca2c3d12687fd62c1bb75d60666f42858260006040516108e793929190611595565b60405180910390a1505050505b5b506108fe610f0e565b565b60008060009054906101000a900473ffffffffffffffffffffffffffffffffffffffff16905090565b600360009054906101000a900473ffffffffffffffffffffffffffffffffffffffff1681565b60065481565b60095481565b600080600267ffffffffffffffff81111561097957610978611194565b5b6040519080825280602002602001820160405280156109a75781602001602082028036833780820191505090505b509050600360009054906101000a900473ffffffffffffffffffffffffffffffffffffffff16816000815181106109e1576109e06115cc565b5b602002602001019073ffffffffffffffffffffffffffffffffffffffff16908173ffffffffffffffffffffffffffffffffffffffff1681525050600760009054906101000a900473ffffffffffffffffffffffffffffffffffffffff1681600181518110610a5257610a516115cc565b5b602002602001019073ffffffffffffffffffffffffffffffffffffffff16908173ffffffffffffffffffffffffffffffffffffffff1681525050600560009054906101000a900473ffffffffffffffffffffffffffffffffffffffff1673ffffffffffffffffffffffffffffffffffffffff1663d06ca61f670de0b6b3a7640000836040518363ffffffff1660e01b8152600401610af19291906116f4565b600060405180830381865afa925050508015610b3057506040513d6000823e3d601f19601f82011682018060405250810190610b2d91906117f1565b60015b610b3e576000915050610b6f565b64e8d4a5100081600181518110610b5857610b576115cc565b5b6020026020010151610b6a9190611456565b925050505b90565b610b7a610c41565b600073ffffffffffffffffffffffffffffffffffffffff168173ffffffffffffffffffffffffffffffffffffffff1603610be9576040517f08c379a0000000000000000000000000000000000000000000000000000000008152600401610be0906118bd565b60405180910390fd5b610bf281610cbf565b50565b600560009054906101000a900473ffffffffffffffffffffffffffffffffffffffff1681565b600260009054906101000a900473ffffffffffffffffffffffffffffffffffffffff1681565b610c49610f17565b73ffffffffffffffffffffffffffffffffffffffff16610c67610900565b73ffffffffffffffffffffffffffffffffffffffff1614610cbd576040517f08c379a0000000000000000000000000000000000000000000000000000000008152600401610cb490611929565b60405180910390fd5b565b60008060009054906101000a900473ffffffffffffffffffffffffffffffffffffffff169050816000806101000a81548173ffffffffffffffffffffffffffffffffffffffff021916908373ffffffffffffffffffffffffffffffffffffffff1602179055508173ffffffffffffffffffffffffffffffffffffffff168173ffffffffffffffffffffffffffffffffffffffff167f8be0079c531659141344cd1fd0a4f28419497f9722a3daafe3b4186f6b6457e060405160405180910390a35050565b600080836000015160070b1280610da157506000836040015160030b135b80610dd257507fffffffffffffffffffffffffffffffffffffffffffffffffffffffffffffff01836040015160030b125b15610e12576040517f08c379a0000000000000000000000000000000000000000000000000000000008152600401610e0990611995565b60405180910390fd5b600083604001517fffffffffffffffffffffffffffffffffffffffffffffffffffffffffffffffff610e4491906119b5565b90508060ff168360ff1610610e88578083610e5f91906119ff565b60ff16600a610e6e9190611b67565b846000015160070b610e809190611456565b915050610eb9565b8281610e9491906119ff565b60ff16600a610ea39190611b67565b846000015160070b610eb591906114c7565b9150505b92915050565b600260015403610f04576040517f08c379a0000000000000000000000000000000000000000000000000000000008152600401610efb90611bfe565b60405180910390fd5b6002600181905550565b60018081905550565b600033905090565b6000819050919050565b610f3281610f1f565b82525050565b6000602082019050610f4d6000830184610f29565b92915050565b600073ffffffffffffffffffffffffffffffffffffffff82169050919050565b6000819050919050565b6000610f98610f93610f8e84610f53565b610f73565b610f53565b9050919050565b6000610faa82610f7d565b9050919050565b6000610fbc82610f9f565b9050919050565b610fcc81610fb1565b82525050565b6000602082019050610fe76000830184610fc3565b92915050565b6000610ff882610f53565b9050919050565b61100881610fed565b82525050565b60006020820190506110236000830184610fff565b92915050565b600061103482610f9f565b9050919050565b61104481611029565b82525050565b600060208201905061105f600083018461103b565b92915050565b6000819050919050565b61107881611065565b82525050565b6000602082019050611093600083018461106f565b92915050565b6000604051905090565b600080fd5b600080fd5b6110b681610fed565b81146110c157600080fd5b50565b6000813590506110d3816110ad565b92915050565b6000602082840312156110ef576110ee6110a3565b5b60006110fd848285016110c4565b91505092915050565b600061111182610f9f565b9050919050565b61112181611106565b82525050565b600060208201905061113c6000830184611118565b92915050565b600061114d82610f9f565b9050919050565b61115d81611142565b82525050565b60006020820190506111786000830184611154565b92915050565b600080fd5b6000601f19601f8301169050919050565b7f4e487b7100000000000000000000000000000000000000000000000000000000600052604160045260246000fd5b6111cc82611183565b810181811067ffffffffffffffff821117156111eb576111ea611194565b5b80604052505050565b60006111fe611099565b905061120a82826111c3565b919050565b60008160070b9050919050565b6112258161120f565b811461123057600080fd5b50565b6000815190506112428161121c565b92915050565b600067ffffffffffffffff82169050919050565b61126581611248565b811461127057600080fd5b50565b6000815190506112828161125c565b92915050565b60008160030b9050919050565b61129e81611288565b81146112a957600080fd5b50565b6000815190506112bb81611295565b92915050565b6112ca81610f1f565b81146112d557600080fd5b50565b6000815190506112e7816112c1565b92915050565b6000608082840312156113035761130261117e565b5b61130d60806111f4565b9050600061131d84828501611233565b600083015250602061133184828501611273565b6020830152506040611345848285016112ac565b6040830152506060611359848285016112d8565b60608301525092915050565b60006080828403121561137b5761137a6110a3565b5b6000611389848285016112ed565b91505092915050565b7f4e487b7100000000000000000000000000000000000000000000000000000000600052601160045260246000fd5b60006113cc82610f1f565b91506113d783610f1f565b92508282019050808211156113ef576113ee611392565b5b92915050565b600061140082610f1f565b915061140b83610f1f565b925082820390508181111561142357611422611392565b5b92915050565b60006020828403121561143f5761143e6110a3565b5b600061144d848285016112d8565b91505092915050565b600061146182610f1f565b915061146c83610f1f565b925082820261147a81610f1f565b9150828204841483151761149157611490611392565b5b5092915050565b7f4e487b7100000000000000000000000000000000000000000000000000000000600052601260045260246000fd5b60006114d282610f1f565b91506114dd83610f1f565b9250826114ed576114ec611498565b5b828204905092915050565b600060408201905061150d6000830185610fff565b61151a6020830184610f29565b9392505050565b60008115159050919050565b61153681611521565b811461154157600080fd5b50565b6000815190506115538161152d565b92915050565b60006020828403121561156f5761156e6110a3565b5b600061157d84828501611544565b91505092915050565b61158f81611521565b82525050565b60006060820190506115aa6000830186610f29565b6115b76020830185610f29565b6115c46040830184611586565b949350505050565b7f4e487b7100000000000000000000000000000000000000000000000000000000600052603260045260246000fd5b6000819050919050565b600061162061161b611616846115fb565b610f73565b610f1f565b9050919050565b61163081611605565b82525050565b600081519050919050565b600082825260208201905092915050565b6000819050602082019050919050565b61166b81610fed565b82525050565b600061167d8383611662565b60208301905092915050565b6000602082019050919050565b60006116a182611636565b6116ab8185611641565b93506116b683611652565b8060005b838110156116e75781516116ce8882611671565b97506116d983611689565b9250506001810190506116ba565b5085935050505092915050565b60006040820190506117096000830185611627565b818103602083015261171b8184611696565b90509392505050565b600080fd5b600067ffffffffffffffff82111561174457611743611194565b5b602082029050602081019050919050565b600080fd5b600061176d61176884611729565b6111f4565b905080838252602082019050602084028301858111156117905761178f611755565b5b835b818110156117b957806117a588826112d8565b845260208401935050602081019050611792565b5050509392505050565b600082601f8301126117d8576117d7611724565b5b81516117e884826020860161175a565b91505092915050565b600060208284031215611807576118066110a3565b5b600082015167ffffffffffffffff811115611825576118246110a8565b5b611831848285016117c3565b91505092915050565b600082825260208201905092915050565b7f4f776e61626c653a206e6577206f776e657220697320746865207a65726f206160008201527f6464726573730000000000000000000000000000000000000000000000000000602082015250565b60006118a760268361183a565b91506118b28261184b565b604082019050919050565b600060208201905081810360008301526118d68161189a565b9050919050565b7f4f776e61626c653a2063616c6c6572206973206e6f7420746865206f776e6572600082015250565b600061191360208361183a565b915061191e826118dd565b602082019050919050565b6000602082019050818103600083015261194281611906565b9050919050565b7f496e76616c696420707269636500000000000000000000000000000000000000600082015250565b600061197f600d8361183a565b915061198a82611949565b602082019050919050565b600060208201905081810360008301526119ae81611972565b9050919050565b60006119c082611288565b91506119cb83611288565b92508282026119d981611288565b91508082146119eb576119ea611392565b5b5092915050565b600060ff82169050919050565b6000611a0a826119f2565b9150611a15836119f2565b9250828203905060ff811115611a2e57611a2d611392565b5b92915050565b60008160011c9050919050565b6000808291508390505b6001851115611a8b57808604811115611a6757611a66611392565b5b6001851615611a765780820291505b8081029050611a8485611a34565b9450611a4b565b94509492505050565b600082611aa45760019050611b60565b81611ab25760009050611b60565b8160018114611ac85760028114611ad257611b01565b6001915050611b60565b60ff841115611ae457611ae3611392565b5b8360020a915084821115611afb57611afa611392565b5b50611b60565b5060208310610133831016604e8410600b8410161715611b365782820a905083811115611b3157611b30611392565b5b611b60565b611b438484846001611a41565b92509050818404811115611b5a57611b59611392565b5b81810290505b9392505050565b6000611b7282610f1f565b9150611b7d83610f1f565b9250611baa7fffffffffffffffffffffffffffffffffffffffffffffffffffffffffffffffff8484611a94565b905092915050565b7f5265656e7472616e637947756172643a207265656e7472616e742063616c6c00600082015250565b6000611be8601f8361183a565b9150611bf382611bb2565b602082019050919050565b60006020820190508181036000830152611c1781611bdb565b905091905056fea26469706673582212207c562a2cca016be1ddbb14353ea68527f4f10ca1097defc7ae2442884f70f21864736f6c63430008140033",
  "linkReferences": {},
  "deployedLinkReferences": {}
}