{
  "_format": "hh-sol-artifact-1",
  "contractName": "Rebalancer",
  "sourceName": "contracts/Rebalancer.sol",
  "abi": [
    {
      "inputs": [
        {
          "internalType": "address",
          "name": "_pyth",
          "type": "address"
        },
        {
          "internalType": "bytes32",
          "name": "_audUsdPriceId",
          "type": "bytes32"
        },
        {
          "internalType": "address",
          "name": "_audb",
          "type": "address"
        },
        {
          "internalType": "address",
          "name": "_liquidityManager",
          "type": "address"
        },
        {
          "internalType": "address",
          "name": "_router",
          "type": "address"
        },
        {
          "internalType": "address",
          "name": "_usdc",
          "type": "address"
        }
      ],
      "stateMutability": "nonpayable",
      "type": "constructor"
    },
    {
      "anonymous": false,
      "inputs": [
        {
          "indexed": false,
          "internalType": "uint256",
          "name": "price",
          "type": "uint256"
        },
        {
          "indexed": false,
          "internalType": "uint256",
          "name": "deviation",
          "type": "uint256"
        }
      ],
      "name": "CircuitBreakerTriggered",
      "type": "event"
    },
    {
      "anonymous": false,
      "inputs": [
        {
          "indexed": true,
          "internalType": "address",
          "name": "previousOwner",
          "type": "address"
        },
        {
          "indexed": true,
          "internalType": "address",
          "name": "newOwner",
          "type": "address"
        }
      ],
      "name": "OwnershipTransferred",
      "type": "event"
    },
    {
      "anonymous": false,
      "inputs": [
        {
          "indexed": false,
          "internalType": "uint256",
          "name": "newPeg",
          "type": "uint256"
        },
        {
          "indexed": false,
          "internalType": "uint256",
          "name": "newThreshold",
          "type": "uint256"
        }
      ],
      "name": "ParametersUpdated",
      "type": "event"
    },
    {
      "anonymous": false,
      "inputs": [
        {
          "indexed": false,
          "internalType": "address",
          "name": "account",
          "type": "address"
        }
      ],
      "name": "Paused",
      "type": "event"
    },
    {
      "anonymous": false,
      "inputs": [
        {
          "indexed": false,
          "internalType": "uint256",
          "name": "marketPrice",
          "type": "uint256"
        },
        {
          "indexed": false,
          "internalType": "uint256",
          "name": "adjustment",
          "type": "uint256"
        },
        {
          "indexed": false,
          "internalType": "bool",
          "name": "isExpansion",
          "type": "bool"
        },
        {
          "indexed": false,
          "internalType": "uint256",
          "name": "timestamp",
          "type": "uint256"
        }
      ],
      "name": "Rebalanced",
      "type": "event"
    },
    {
      "anonymous": false,
      "inputs": [
        {
          "indexed": false,
          "internalType": "address",
          "name": "account",
          "type": "address"
        }
      ],
      "name": "Unpaused",
      "type": "event"
    },
    {
      "inputs": [],
      "name": "MAX_CONFIDENCE_PERCENT",
      "outputs": [
        {
          "internalType": "uint256",
          "name": "",
          "type": "uint256"
        }
      ],
      "stateMutability": "view",
      "type": "function"
    },
    {
      "inputs": [],
      "name": "MAX_PRICE_AGE",
      "outputs": [
        {
          "internalType": "uint256",
          "name": "",
          "type": "uint256"
        }
      ],
      "stateMutability": "view",
      "type": "function"
    },
    {
      "inputs": [],
      "name": "MAX_PRICE_DEVIATION",
      "outputs": [
        {
          "internalType": "uint256",
          "name": "",
          "type": "uint256"
        }
      ],
      "stateMutability": "view",
      "type": "function"
    },
    {
      "inputs": [],
      "name": "MAX_SUPPLY_CHANGE_PERCENT",
      "outputs": [
        {
          "internalType": "uint256",
          "name": "",
          "type": "uint256"
        }
      ],
      "stateMutability": "view",
      "type": "function"
    },
    {
      "inputs": [],
      "name": "MIN_REBALANCE_INTERVAL",
      "outputs": [
        {
          "internalType": "uint256",
          "name": "",
          "type": "uint256"
        }
      ],
      "stateMutability": "view",
      "type": "function"
    },
    {
      "inputs": [],
      "name": "audUsdPriceId",
      "outputs": [
        {
          "internalType": "bytes32",
          "name": "",
          "type": "bytes32"
        }
      ],
      "stateMutability": "view",
      "type": "function"
    },
    {
      "inputs": [],
      "name": "audb",
      "outputs": [
        {
          "internalType": "contract AUDB",
          "name": "",
          "type": "address"
        }
      ],
      "stateMutability": "view",
      "type": "function"
    },
    {
      "inputs": [],
      "name": "deviationThreshold",
      "outputs": [
        {
          "internalType": "uint256",
          "name": "",
          "type": "uint256"
        }
      ],
      "stateMutability": "view",
      "type": "function"
    },
    {
      "inputs": [],
      "name": "getDexPrice",
      "outputs": [
        {
          "internalType": "uint256",
          "name": "",
          "type": "uint256"
        }
      ],
      "stateMutability": "view",
      "type": "function"
    },
    {
      "inputs": [],
      "name": "getOraclePrice",
      "outputs": [
        {
          "internalType": "uint256",
          "name": "",
          "type": "uint256"
        }
      ],
      "stateMutability": "view",
      "type": "function"
    },
    {
      "inputs": [],
      "name": "lastRebalanceTime",
      "outputs": [
        {
          "internalType": "uint256",
          "name": "",
          "type": "uint256"
        }
      ],
      "stateMutability": "view",
      "type": "function"
    },
    {
      "inputs": [],
      "name": "liquidityManager",
      "outputs": [
        {
          "internalType": "contract ILiquidityManager",
          "name": "",
          "type": "address"
        }
      ],
      "stateMutability": "view",
      "type": "function"
    },
    {
      "inputs": [],
      "name": "owner",
      "outputs": [
        {
          "internalType": "address",
          "name": "",
          "type": "address"
        }
      ],
      "stateMutability": "view",
      "type": "function"
    },
    {
      "inputs": [],
      "name": "paused",
      "outputs": [
        {
          "internalType": "bool",
          "name": "",
          "type": "bool"
        }
      ],
      "stateMutability": "view",
      "type": "function"
    },
    {
      "inputs": [],
      "name": "peg",
      "outputs": [
        {
          "internalType": "uint256",
          "name": "",
          "type": "uint256"
        }
      ],
      "stateMutability": "view",
      "type": "function"
    },
    {
      "inputs": [],
      "name": "pyth",
      "outputs": [
        {
          "internalType": "contract IPyth",
          "name": "",
          "type": "address"
        }
      ],
      "stateMutability": "view",
      "type": "function"
    },
    {
      "inputs": [],
      "name": "rebalance",
      "outputs": [],
      "stateMutability": "nonpayable",
      "type": "function"
    },
    {
      "inputs": [],
      "name": "renounceOwnership",
      "outputs": [],
      "stateMutability": "nonpayable",
      "type": "function"
    },
    {
      "inputs": [],
      "name": "router",
      "outputs": [
        {
          "internalType": "contract IJoeRouter02",
          "name": "",
          "type": "address"
        }
      ],
      "stateMutability": "view",
      "type": "function"
    },
    {
      "inputs": [
        {
          "internalType": "address",
          "name": "newOwner",
          "type": "address"
        }
      ],
      "name": "transferOwnership",
      "outputs": [],
      "stateMutability": "nonpayable",
      "type": "function"
    },
    {
      "inputs": [],
      "name": "usdc",
      "outputs": [
        {
          "internalType": "address",
          "name": "",
          "type": "address"
        }
      ],
      "stateMutability": "view",
      "type": "function"
    }
  ],
  "bytecode": "0x6080604052670de0b6b3a7640000600855662386f26fc100006009553480156200002857600080fd5b5060405162002c3138038062002c3183398181016040528101906200004e9190620005db565b6200006e620000626200046a60201b60201c565b6200047260201b60201c565b600180819055506000600260006101000a81548160ff021916908315150217905550600073ffffffffffffffffffffffffffffffffffffffff168673ffffffffffffffffffffffffffffffffffffffff160362000102576040517f08c379a0000000000000000000000000000000000000000000000000000000008152600401620000f990620006d8565b60405180910390fd5b600073ffffffffffffffffffffffffffffffffffffffff168473ffffffffffffffffffffffffffffffffffffffff160362000174576040517f08c379a00000000000000000000000000000000000000000000000000000000081526004016200016b906200074a565b60405180910390fd5b600073ffffffffffffffffffffffffffffffffffffffff168373ffffffffffffffffffffffffffffffffffffffff1603620001e6576040517f08c379a0000000000000000000000000000000000000000000000000000000008152600401620001dd90620007bc565b60405180910390fd5b600073ffffffffffffffffffffffffffffffffffffffff168273ffffffffffffffffffffffffffffffffffffffff160362000258576040517f08c379a00000000000000000000000000000000000000000000000000000000081526004016200024f9062000854565b60405180910390fd5b600073ffffffffffffffffffffffffffffffffffffffff168173ffffffffffffffffffffffffffffffffffffffff1603620002ca576040517f08c379a0000000000000000000000000000000000000000000000000000000008152600401620002c190620008c6565b60405180910390fd5b6000801b850362000312576040517f08c379a0000000000000000000000000000000000000000000000000000000008152600401620003099062000938565b60405180910390fd5b85600260016101000a81548173ffffffffffffffffffffffffffffffffffffffff021916908373ffffffffffffffffffffffffffffffffffffffff1602179055508460068190555083600360006101000a81548173ffffffffffffffffffffffffffffffffffffffff021916908373ffffffffffffffffffffffffffffffffffffffff16021790555082600460006101000a81548173ffffffffffffffffffffffffffffffffffffffff021916908373ffffffffffffffffffffffffffffffffffffffff16021790555081600560006101000a81548173ffffffffffffffffffffffffffffffffffffffff021916908373ffffffffffffffffffffffffffffffffffffffff16021790555080600760006101000a81548173ffffffffffffffffffffffffffffffffffffffff021916908373ffffffffffffffffffffffffffffffffffffffff1602179055505050505050506200095a565b600033905090565b60008060009054906101000a900473ffffffffffffffffffffffffffffffffffffffff169050816000806101000a81548173ffffffffffffffffffffffffffffffffffffffff021916908373ffffffffffffffffffffffffffffffffffffffff1602179055508173ffffffffffffffffffffffffffffffffffffffff168173ffffffffffffffffffffffffffffffffffffffff167f8be0079c531659141344cd1fd0a4f28419497f9722a3daafe3b4186f6b6457e060405160405180910390a35050565b600080fd5b600073ffffffffffffffffffffffffffffffffffffffff82169050919050565b600062000568826200053b565b9050919050565b6200057a816200055b565b81146200058657600080fd5b50565b6000815190506200059a816200056f565b92915050565b6000819050919050565b620005b581620005a0565b8114620005c157600080fd5b50565b600081519050620005d581620005aa565b92915050565b60008060008060008060c08789031215620005fb57620005fa62000536565b5b60006200060b89828a0162000589565b96505060206200061e89828a01620005c4565b95505060406200063189828a0162000589565b94505060606200064489828a0162000589565b93505060806200065789828a0162000589565b92505060a06200066a89828a0162000589565b9150509295509295509295565b600082825260208201905092915050565b7f526562616c616e6365723a20696e76616c696420507974682061646472657373600082015250565b6000620006c060208362000677565b9150620006cd8262000688565b602082019050919050565b60006020820190508181036000830152620006f381620006b1565b9050919050565b7f526562616c616e6365723a20696e76616c696420415544422061646472657373600082015250565b60006200073260208362000677565b91506200073f82620006fa565b602082019050919050565b60006020820190508181036000830152620007658162000723565b9050919050565b7f526562616c616e6365723a20696e76616c6964204c4d20616464726573730000600082015250565b6000620007a4601e8362000677565b9150620007b1826200076c565b602082019050919050565b60006020820190508181036000830152620007d78162000795565b9050919050565b7f526562616c616e6365723a20696e76616c696420726f7574657220616464726560008201527f7373000000000000000000000000000000000000000000000000000000000000602082015250565b60006200083c60228362000677565b91506200084982620007de565b604082019050919050565b600060208201905081810360008301526200086f816200082d565b9050919050565b7f526562616c616e6365723a20696e76616c696420555344432061646472657373600082015250565b6000620008ae60208362000677565b9150620008bb8262000876565b602082019050919050565b60006020820190508181036000830152620008e1816200089f565b9050919050565b7f526562616c616e6365723a20696e76616c696420707269636520494400000000600082015250565b600062000920601c8362000677565b91506200092d82620008e8565b602082019050919050565b60006020820190508181036000830152620009538162000911565b9050919050565b6122c7806200096a6000396000f3fe608060405234801561001057600080fd5b50600436106101375760003560e01c806396f277b7116100b8578063d94ad8371161007c578063d94ad837146102d6578063d9ca21d5146102f4578063e838c80614610312578063f2fde38b14610330578063f887ea401461034c578063f98d06f01461036a57610137565b806396f277b7146102405780639c4282ed1461025e5780639d7f7e861461027c578063b817b2901461029a578063c775659f146102b857610137565b80635c975abb116100ff5780635c975abb146101d2578063715018a6146101f0578063796da7af146101fa5780637d7c2a1c146102185780638da5cb5b1461022257610137565b80631f1cb62b1461013c578063338274381461015a578063350e4221146101785780633e413bee1461019657806340e089d4146101b4575b600080fd5b610144610388565b6040516101519190611334565b60405180910390f35b61016261038e565b60405161016f91906113ce565b60405180910390f35b6101806103b4565b60405161018d9190611334565b60405180910390f35b61019e6103ba565b6040516101ab919061140a565b60405180910390f35b6101bc6103e0565b6040516101c99190611334565b60405180910390f35b6101da6103e5565b6040516101e79190611440565b60405180910390f35b6101f86103fc565b005b610202610410565b60405161020f9190611334565b60405180910390f35b61022061058d565b005b61022a610c3a565b604051610237919061140a565b60405180910390f35b610248610c63565b6040516102559190611334565b60405180910390f35b610266610c68565b604051610273919061147c565b60405180910390f35b610284610c8e565b6040516102919190611334565b60405180910390f35b6102a2610c93565b6040516102af9190611334565b60405180910390f35b6102c0610c98565b6040516102cd91906114b0565b60405180910390f35b6102de610c9e565b6040516102eb9190611334565b60405180910390f35b6102fc610ca4565b6040516103099190611334565b60405180910390f35b61031a610caa565b6040516103279190611334565b60405180910390f35b61034a6004803603810190610345919061150b565b610ec1565b005b610354610f44565b6040516103619190611559565b60405180910390f35b610372610f6a565b60405161037f9190611595565b60405180910390f35b60085481565b600460009054906101000a900473ffffffffffffffffffffffffffffffffffffffff1681565b610e1081565b600760009054906101000a900473ffffffffffffffffffffffffffffffffffffffff1681565b600181565b6000600260009054906101000a900460ff16905090565b610404610f90565b61040e600061100e565b565b600080600260019054906101000a900473ffffffffffffffffffffffffffffffffffffffff1673ffffffffffffffffffffffffffffffffffffffff1663a4ae35e0600654603c6040518363ffffffff1660e01b81526004016104739291906115b0565b608060405180830381865afa158015610490573d6000803e3d6000fd5b505050506040513d601f19601f820116820180604052508101906104b491906117c0565b90506000816000015160070b13610500576040517f08c379a00000000000000000000000000000000000000000000000000000000081526004016104f79061184a565b60405180910390fd5b6000816020015167ffffffffffffffff1690506000826000015160070b905060018161052c9190611899565b6064836105399190611899565b111561057a576040517f08c379a00000000000000000000000000000000000000000000000000000000081526004016105719061194d565b60405180910390fd5b6105858360126110d2565b935050505090565b610595610f90565b61059d61120e565b6105a561125d565b610e10600a546105b5919061196d565b4210156105f7576040517f08c379a00000000000000000000000000000000000000000000000000000000081526004016105ee90611a13565b60405180910390fd5b6000610601610410565b9050600a6008546106129190611899565b81118061062c5750600a6008546106299190611a62565b81105b15610679576106396112a7565b7fc1b68f84e2906898e13e04dfea4f2ca4c44015fceb114b71916f54a7072712a681600a60405161066b929190611a93565b60405180910390a150610c30565b42600a81905550600954600854610690919061196d565b8111156109aa576000600854826106a79190611abc565b90506000600360009054906101000a900473ffffffffffffffffffffffffffffffffffffffff1673ffffffffffffffffffffffffffffffffffffffff166318160ddd6040518163ffffffff1660e01b8152600401602060405180830381865afa158015610718573d6000803e3d6000fd5b505050506040513d601f19601f8201168201806040525081019061073c9190611af0565b90506000600854828461074f9190611899565b6107599190611a62565b905060006064600a8461076c9190611899565b6107769190611a62565b905080821115610784578091505b600360009054906101000a900473ffffffffffffffffffffffffffffffffffffffff1673ffffffffffffffffffffffffffffffffffffffff166340c10f1930846040518363ffffffff1660e01b81526004016107e1929190611b1d565b600060405180830381600087803b1580156107fb57600080fd5b505af115801561080f573d6000803e3d6000fd5b50505050600360009054906101000a900473ffffffffffffffffffffffffffffffffffffffff1673ffffffffffffffffffffffffffffffffffffffff1663095ea7b3600460009054906101000a900473ffffffffffffffffffffffffffffffffffffffff16846040518363ffffffff1660e01b8152600401610892929190611b1d565b6020604051808303816000875af11580156108b1573d6000803e3d6000fd5b505050506040513d601f19601f820116820180604052508101906108d59190611b72565b50600460009054906101000a900473ffffffffffffffffffffffffffffffffffffffff1673ffffffffffffffffffffffffffffffffffffffff1663bfb8c8ab836040518263ffffffff1660e01b81526004016109319190611334565b600060405180830381600087803b15801561094b57600080fd5b505af115801561095f573d6000803e3d6000fd5b505050507fd40af1d00d33d86c9ac5a4665bb6b5fb3884c72074c3ee4d6640e437201bf12285836001426040516109999493929190611b9f565b60405180910390a150505050610c2e565b6009546008546109ba9190611abc565b811015610c2d576000816008546109d19190611abc565b90506000600360009054906101000a900473ffffffffffffffffffffffffffffffffffffffff1673ffffffffffffffffffffffffffffffffffffffff166318160ddd6040518163ffffffff1660e01b8152600401602060405180830381865afa158015610a42573d6000803e3d6000fd5b505050506040513d601f19601f82011682018060405250810190610a669190611af0565b905060006008548284610a799190611899565b610a839190611a62565b905060006064600a84610a969190611899565b610aa09190611a62565b905080821115610aae578091505b6000600460009054906101000a900473ffffffffffffffffffffffffffffffffffffffff1673ffffffffffffffffffffffffffffffffffffffff16635937d2f6846040518263ffffffff1660e01b8152600401610b0b9190611334565b6020604051808303816000875af1158015610b2a573d6000803e3d6000fd5b505050506040513d601f19601f82011682018060405250810190610b4e9190611af0565b90506000811115610be957600360009054906101000a900473ffffffffffffffffffffffffffffffffffffffff1673ffffffffffffffffffffffffffffffffffffffff16639dc29fac30836040518363ffffffff1660e01b8152600401610bb6929190611b1d565b600060405180830381600087803b158015610bd057600080fd5b505af1158015610be4573d6000803e3d6000fd5b505050505b7fd40af1d00d33d86c9ac5a4665bb6b5fb3884c72074c3ee4d6640e437201bf1228682600042604051610c1f9493929190611b9f565b60405180910390a150505050505b5b505b610c3861130a565b565b60008060009054906101000a900473ffffffffffffffffffffffffffffffffffffffff16905090565b600a81565b600360009054906101000a900473ffffffffffffffffffffffffffffffffffffffff1681565b603c81565b600a81565b60065481565b60095481565b600a5481565b600080600267ffffffffffffffff811115610cc857610cc76115ef565b5b604051908082528060200260200182016040528015610cf65781602001602082028036833780820191505090505b509050600360009054906101000a900473ffffffffffffffffffffffffffffffffffffffff1681600081518110610d3057610d2f611be4565b5b602002602001019073ffffffffffffffffffffffffffffffffffffffff16908173ffffffffffffffffffffffffffffffffffffffff1681525050600760009054906101000a900473ffffffffffffffffffffffffffffffffffffffff1681600181518110610da157610da0611be4565b5b602002602001019073ffffffffffffffffffffffffffffffffffffffff16908173ffffffffffffffffffffffffffffffffffffffff1681525050600560009054906101000a900473ffffffffffffffffffffffffffffffffffffffff1673ffffffffffffffffffffffffffffffffffffffff1663d06ca61f670de0b6b3a7640000836040518363ffffffff1660e01b8152600401610e40929190611d0c565b600060405180830381865afa925050508015610e7f57506040513d6000823e3d601f19601f82011682018060405250810190610e7c9190611e09565b60015b610e8d576000915050610ebe565b64e8d4a5100081600181518110610ea757610ea6611be4565b5b6020026020010151610eb99190611899565b925050505b90565b610ec9610f90565b600073ffffffffffffffffffffffffffffffffffffffff168173ffffffffffffffffffffffffffffffffffffffff1603610f38576040517f08c379a0000000000000000000000000000000000000000000000000000000008152600401610f2f90611ec4565b60405180910390fd5b610f418161100e565b50565b600560009054906101000a900473ffffffffffffffffffffffffffffffffffffffff1681565b600260019054906101000a900473ffffffffffffffffffffffffffffffffffffffff1681565b610f98611313565b73ffffffffffffffffffffffffffffffffffffffff16610fb6610c3a565b73ffffffffffffffffffffffffffffffffffffffff161461100c576040517f08c379a000000000000000000000000000000000000000000000000000000000815260040161100390611f30565b60405180910390fd5b565b60008060009054906101000a900473ffffffffffffffffffffffffffffffffffffffff169050816000806101000a81548173ffffffffffffffffffffffffffffffffffffffff021916908373ffffffffffffffffffffffffffffffffffffffff1602179055508173ffffffffffffffffffffffffffffffffffffffff168173ffffffffffffffffffffffffffffffffffffffff167f8be0079c531659141344cd1fd0a4f28419497f9722a3daafe3b4186f6b6457e060405160405180910390a35050565b600080836000015160070b12806110f057506000836040015160030b135b8061112157507fffffffffffffffffffffffffffffffffffffffffffffffffffffffffffffff01836040015160030b125b15611161576040517f08c379a000000000000000000000000000000000000000000000000000000000815260040161115890611f9c565b60405180910390fd5b600083604001517fffffffffffffffffffffffffffffffffffffffffffffffffffffffffffffffff6111939190611fbc565b90508060ff168360ff16106111d75780836111ae9190612006565b60ff16600a6111bd919061216e565b846000015160070b6111cf9190611899565b915050611208565b82816111e39190612006565b60ff16600a6111f2919061216e565b846000015160070b6112049190611a62565b9150505b92915050565b600260015403611253576040517f08c379a000000000000000000000000000000000000000000000000000000000815260040161124a90612205565b60405180910390fd5b6002600181905550565b6112656103e5565b156112a5576040517f08c379a000000000000000000000000000000000000000000000000000000000815260040161129c90612271565b60405180910390fd5b565b6112af61125d565b6001600260006101000a81548160ff0219169083151502179055507f62e78cea01bee320cd4e420270b5ea74000d11b0c9f74754ebdbfc544b05a2586112f3611313565b604051611300919061140a565b60405180910390a1565b60018081905550565b600033905090565b6000819050919050565b61132e8161131b565b82525050565b60006020820190506113496000830184611325565b92915050565b600073ffffffffffffffffffffffffffffffffffffffff82169050919050565b6000819050919050565b600061139461138f61138a8461134f565b61136f565b61134f565b9050919050565b60006113a682611379565b9050919050565b60006113b88261139b565b9050919050565b6113c8816113ad565b82525050565b60006020820190506113e360008301846113bf565b92915050565b60006113f48261134f565b9050919050565b611404816113e9565b82525050565b600060208201905061141f60008301846113fb565b92915050565b60008115159050919050565b61143a81611425565b82525050565b60006020820190506114556000830184611431565b92915050565b60006114668261139b565b9050919050565b6114768161145b565b82525050565b6000602082019050611491600083018461146d565b92915050565b6000819050919050565b6114aa81611497565b82525050565b60006020820190506114c560008301846114a1565b92915050565b6000604051905090565b600080fd5b600080fd5b6114e8816113e9565b81146114f357600080fd5b50565b600081359050611505816114df565b92915050565b600060208284031215611521576115206114d5565b5b600061152f848285016114f6565b91505092915050565b60006115438261139b565b9050919050565b61155381611538565b82525050565b600060208201905061156e600083018461154a565b92915050565b600061157f8261139b565b9050919050565b61158f81611574565b82525050565b60006020820190506115aa6000830184611586565b92915050565b60006040820190506115c560008301856114a1565b6115d26020830184611325565b9392505050565b600080fd5b6000601f19601f8301169050919050565b7f4e487b7100000000000000000000000000000000000000000000000000000000600052604160045260246000fd5b611627826115de565b810181811067ffffffffffffffff82111715611646576116456115ef565b5b80604052505050565b60006116596114cb565b9050611665828261161e565b919050565b60008160070b9050919050565b6116808161166a565b811461168b57600080fd5b50565b60008151905061169d81611677565b92915050565b600067ffffffffffffffff82169050919050565b6116c0816116a3565b81146116cb57600080fd5b50565b6000815190506116dd816116b7565b92915050565b60008160030b9050919050565b6116f9816116e3565b811461170457600080fd5b50565b600081519050611716816116f0565b92915050565b6117258161131b565b811461173057600080fd5b50565b6000815190506117428161171c565b92915050565b60006080828403121561175e5761175d6115d9565b5b611768608061164f565b905060006117788482850161168e565b600083015250602061178c848285016116ce565b60208301525060406117a084828501611707565b60408301525060606117b484828501611733565b60608301525092915050565b6000608082840312156117d6576117d56114d5565b5b60006117e484828501611748565b91505092915050565b600082825260208201905092915050565b7f526562616c616e6365723a20696e76616c696420707269636500000000000000600082015250565b60006118346019836117ed565b915061183f826117fe565b602082019050919050565b6000602082019050818103600083015261186381611827565b9050919050565b7f4e487b7100000000000000000000000000000000000000000000000000000000600052601160045260246000fd5b60006118a48261131b565b91506118af8361131b565b92508282026118bd8161131b565b915082820484148315176118d4576118d361186a565b5b5092915050565b7f526562616c616e6365723a20707269636520636f6e666964656e636520746f6f60008201527f206c6f7700000000000000000000000000000000000000000000000000000000602082015250565b60006119376024836117ed565b9150611942826118db565b604082019050919050565b600060208201905081810360008301526119668161192a565b9050919050565b60006119788261131b565b91506119838361131b565b925082820190508082111561199b5761199a61186a565b5b92915050565b7f526562616c616e6365723a20746f6f20736f6f6e20746f20726562616c616e6360008201527f6500000000000000000000000000000000000000000000000000000000000000602082015250565b60006119fd6021836117ed565b9150611a08826119a1565b604082019050919050565b60006020820190508181036000830152611a2c816119f0565b9050919050565b7f4e487b7100000000000000000000000000000000000000000000000000000000600052601260045260246000fd5b6000611a6d8261131b565b9150611a788361131b565b925082611a8857611a87611a33565b5b828204905092915050565b6000604082019050611aa86000830185611325565b611ab56020830184611325565b9392505050565b6000611ac78261131b565b9150611ad28361131b565b9250828203905081811115611aea57611ae961186a565b5b92915050565b600060208284031215611b0657611b056114d5565b5b6000611b1484828501611733565b91505092915050565b6000604082019050611b3260008301856113fb565b611b3f6020830184611325565b9392505050565b611b4f81611425565b8114611b5a57600080fd5b50565b600081519050611b6c81611b46565b92915050565b600060208284031215611b8857611b876114d5565b5b6000611b9684828501611b5d565b91505092915050565b6000608082019050611bb46000830187611325565b611bc16020830186611325565b611bce6040830185611431565b611bdb6060830184611325565b95945050505050565b7f4e487b7100000000000000000000000000000000000000000000000000000000600052603260045260246000fd5b6000819050919050565b6000611c38611c33611c2e84611c13565b61136f565b61131b565b9050919050565b611c4881611c1d565b82525050565b600081519050919050565b600082825260208201905092915050565b6000819050602082019050919050565b611c83816113e9565b82525050565b6000611c958383611c7a565b60208301905092915050565b6000602082019050919050565b6000611cb982611c4e565b611cc38185611c59565b9350611cce83611c6a565b8060005b83811015611cff578151611ce68882611c89565b9750611cf183611ca1565b925050600181019050611cd2565b5085935050505092915050565b6000604082019050611d216000830185611c3f565b8181036020830152611d338184611cae565b90509392505050565b600080fd5b600067ffffffffffffffff821115611d5c57611d5b6115ef565b5b602082029050602081019050919050565b600080fd5b6000611d85611d8084611d41565b61164f565b90508083825260208201905060208402830185811115611da857611da7611d6d565b5b835b81811015611dd15780611dbd8882611733565b845260208401935050602081019050611daa565b5050509392505050565b600082601f830112611df057611def611d3c565b5b8151611e00848260208601611d72565b91505092915050565b600060208284031215611e1f57611e1e6114d5565b5b600082015167ffffffffffffffff811115611e3d57611e3c6114da565b5b611e4984828501611ddb565b91505092915050565b7f4f776e61626c653a206e6577206f776e657220697320746865207a65726f206160008201527f6464726573730000000000000000000000000000000000000000000000000000602082015250565b6000611eae6026836117ed565b9150611eb982611e52565b604082019050919050565b60006020820190508181036000830152611edd81611ea1565b9050919050565b7f4f776e61626c653a2063616c6c6572206973206e6f7420746865206f776e6572600082015250565b6000611f1a6020836117ed565b9150611f2582611ee4565b602082019050919050565b60006020820190508181036000830152611f4981611f0d565b9050919050565b7f496e76616c696420707269636500000000000000000000000000000000000000600082015250565b6000611f86600d836117ed565b9150611f9182611f50565b602082019050919050565b60006020820190508181036000830152611fb581611f79565b9050919050565b6000611fc7826116e3565b9150611fd2836116e3565b9250828202611fe0816116e3565b9150808214611ff257611ff161186a565b5b5092915050565b600060ff82169050919050565b600061201182611ff9565b915061201c83611ff9565b9250828203905060ff8111156120355761203461186a565b5b92915050565b60008160011c9050919050565b6000808291508390505b60018511156120925780860481111561206e5761206d61186a565b5b600185161561207d5780820291505b808102905061208b8561203b565b9450612052565b94509492505050565b6000826120ab5760019050612167565b816120b95760009050612167565b81600181146120cf57600281146120d957612108565b6001915050612167565b60ff8411156120eb576120ea61186a565b5b8360020a9150848211156121025761210161186a565b5b50612167565b5060208310610133831016604e8410600b841016171561213d5782820a9050838111156121385761213761186a565b5b612167565b61214a8484846001612048565b925090508184048111156121615761216061186a565b5b81810290505b9392505050565b60006121798261131b565b91506121848361131b565b92506121b17fffffffffffffffffffffffffffffffffffffffffffffffffffffffffffffffff848461209b565b905092915050565b7f5265656e7472616e637947756172643a207265656e7472616e742063616c6c00600082015250565b60006121ef601f836117ed565b91506121fa826121b9565b602082019050919050565b6000602082019050818103600083015261221e816121e2565b9050919050565b7f5061757361626c653a2070617573656400000000000000000000000000000000600082015250565b600061225b6010836117ed565b915061226682612225565b602082019050919050565b6000602082019050818103600083015261228a8161224e565b905091905056fea2646970667358221220c9cb302ff1c72e63c94eb4de10a6fa50c155aa18e0a39f7bfceec2b4ec5795ae64736f6c63430008140033",
  "linkReferences": {},
  "deployedLinkReferences": {}
}