{
  "_format": "hh-sol-artifact-1",
  "contractName": "Rebalancer",
  "sourceName": "contracts/Rebalancer.sol",
  "abi": [
    {
      "inputs": [
        {
          "internalType": "address",
          "name": "_pyth",
          "type": "address"
        },
        {
          "internalType": "bytes32",
          "name": "_audUsdPriceId",
          "type": "bytes32"
        },
        {
          "internalType": "address",
          "name": "_audb",
          "type": "address"
        }
      ],
      "stateMutability": "nonpayable",
      "type": "constructor"
    },
    {
      "anonymous": false,
      "inputs": [
        {
          "indexed": true,
          "internalType": "address",
          "name": "previousOwner",
          "type": "address"
        },
        {
          "indexed": true,
          "internalType": "address",
          "name": "newOwner",
          "type": "address"
        }
      ],
      "name": "OwnershipTransferred",
      "type": "event"
    },
    {
      "anonymous": false,
      "inputs": [
        {
          "indexed": false,
          "internalType": "uint256",
          "name": "currentPrice",
          "type": "uint256"
        },
        {
          "indexed": false,
          "internalType": "uint256",
          "name": "adjustment",
          "type": "uint256"
        },
        {
          "indexed": false,
          "internalType": "bool",
          "name": "isMint",
          "type": "bool"
        }
      ],
      "name": "Rebalanced",
      "type": "event"
    },
    {
      "inputs": [],
      "name": "audUsdPriceId",
      "outputs": [
        {
          "internalType": "bytes32",
          "name": "",
          "type": "bytes32"
        }
      ],
      "stateMutability": "view",
      "type": "function"
    },
    {
      "inputs": [],
      "name": "audb",
      "outputs": [
        {
          "internalType": "contract AUDB",
          "name": "",
          "type": "address"
        }
      ],
      "stateMutability": "view",
      "type": "function"
    },
    {
      "inputs": [],
      "name": "deviationThreshold",
      "outputs": [
        {
          "internalType": "uint256",
          "name": "",
          "type": "uint256"
        }
      ],
      "stateMutability": "view",
      "type": "function"
    },
    {
      "inputs": [],
      "name": "getMarketPrice",
      "outputs": [
        {
          "internalType": "uint256",
          "name": "",
          "type": "uint256"
        }
      ],
      "stateMutability": "view",
      "type": "function"
    },
    {
      "inputs": [],
      "name": "owner",
      "outputs": [
        {
          "internalType": "address",
          "name": "",
          "type": "address"
        }
      ],
      "stateMutability": "view",
      "type": "function"
    },
    {
      "inputs": [],
      "name": "peg",
      "outputs": [
        {
          "internalType": "uint256",
          "name": "",
          "type": "uint256"
        }
      ],
      "stateMutability": "view",
      "type": "function"
    },
    {
      "inputs": [],
      "name": "pyth",
      "outputs": [
        {
          "internalType": "contract IPyth",
          "name": "",
          "type": "address"
        }
      ],
      "stateMutability": "view",
      "type": "function"
    },
    {
      "inputs": [],
      "name": "rebalance",
      "outputs": [],
      "stateMutability": "nonpayable",
      "type": "function"
    },
    {
      "inputs": [],
      "name": "renounceOwnership",
      "outputs": [],
      "stateMutability": "nonpayable",
      "type": "function"
    },
    {
      "inputs": [
        {
          "internalType": "address",
          "name": "newOwner",
          "type": "address"
        }
      ],
      "name": "transferOwnership",
      "outputs": [],
      "stateMutability": "nonpayable",
      "type": "function"
    }
  ],
  "bytecode": "0x6080604052670de0b6b3a7640000600555662386f26fc100006006553480156200002857600080fd5b50604051620016d1380380620016d183398181016040528101906200004e919062000278565b6200006e620000626200010760201b60201c565b6200010f60201b60201c565b6001808190555082600260006101000a81548173ffffffffffffffffffffffffffffffffffffffff021916908373ffffffffffffffffffffffffffffffffffffffff1602179055508160048190555080600360006101000a81548173ffffffffffffffffffffffffffffffffffffffff021916908373ffffffffffffffffffffffffffffffffffffffff160217905550505050620002d4565b600033905090565b60008060009054906101000a900473ffffffffffffffffffffffffffffffffffffffff169050816000806101000a81548173ffffffffffffffffffffffffffffffffffffffff021916908373ffffffffffffffffffffffffffffffffffffffff1602179055508173ffffffffffffffffffffffffffffffffffffffff168173ffffffffffffffffffffffffffffffffffffffff167f8be0079c531659141344cd1fd0a4f28419497f9722a3daafe3b4186f6b6457e060405160405180910390a35050565b600080fd5b600073ffffffffffffffffffffffffffffffffffffffff82169050919050565b60006200020582620001d8565b9050919050565b6200021781620001f8565b81146200022357600080fd5b50565b60008151905062000237816200020c565b92915050565b6000819050919050565b62000252816200023d565b81146200025e57600080fd5b50565b600081519050620002728162000247565b92915050565b600080600060608486031215620002945762000293620001d3565b5b6000620002a48682870162000226565b9350506020620002b78682870162000261565b9250506040620002ca8682870162000226565b9150509250925092565b6113ed80620002e46000396000f3fe608060405234801561001057600080fd5b506004361061009e5760003560e01c80639c4282ed116100665780639c4282ed14610111578063c775659f1461012f578063d94ad8371461014d578063f2fde38b1461016b578063f98d06f0146101875761009e565b80631f1cb62b146100a3578063660e16c3146100c1578063715018a6146100df5780637d7c2a1c146100e95780638da5cb5b146100f3575b600080fd5b6100ab6101a5565b6040516100b89190610a15565b60405180910390f35b6100c96101ab565b6040516100d69190610a15565b60405180910390f35b6100e7610265565b005b6100f1610279565b005b6100fb61061a565b6040516101089190610a71565b60405180910390f35b610119610643565b6040516101269190610aeb565b60405180910390f35b610137610669565b6040516101449190610b1f565b60405180910390f35b61015561066f565b6040516101629190610a15565b60405180910390f35b61018560048036038101906101809190610b75565b610675565b005b61018f6106f8565b60405161019c9190610bc3565b60405180910390f35b60055481565b600080600260009054906101000a900473ffffffffffffffffffffffffffffffffffffffff1673ffffffffffffffffffffffffffffffffffffffff166396834ad36004546040518263ffffffff1660e01b815260040161020b9190610b1f565b608060405180830381865afa158015610228573d6000803e3d6000fd5b505050506040513d601f19601f8201168201806040525081019061024c9190610dc5565b9050600061025b82601261071e565b9050809250505090565b61026d61085a565b61027760006108d8565b565b61028161085a565b61028961099c565b60006102936101ab565b90506000600360009054906101000a900473ffffffffffffffffffffffffffffffffffffffff1673ffffffffffffffffffffffffffffffffffffffff166318160ddd6040518163ffffffff1660e01b8152600401602060405180830381865afa158015610304573d6000803e3d6000fd5b505050506040513d601f19601f820116820180604052508101906103289190610df2565b905060065460055461033a9190610e4e565b821115610442576000600554836103519190610e82565b9050600060055483836103649190610eb6565b61036e9190610f27565b9050600360009054906101000a900473ffffffffffffffffffffffffffffffffffffffff1673ffffffffffffffffffffffffffffffffffffffff166340c10f1930836040518363ffffffff1660e01b81526004016103cd929190610f58565b600060405180830381600087803b1580156103e757600080fd5b505af11580156103fb573d6000803e3d6000fd5b505050507fdc0059e80d42df4720e3b192305597f0caca2c3d12687fd62c1bb75d60666f428482600160405161043393929190610f9c565b60405180910390a1505061060e565b6006546005546104529190610e82565b82101561060d576000826005546104699190610e82565b90506000600554838361047c9190610eb6565b6104869190610f27565b90506000600360009054906101000a900473ffffffffffffffffffffffffffffffffffffffff1673ffffffffffffffffffffffffffffffffffffffff166370a08231306040518263ffffffff1660e01b81526004016104e59190610a71565b602060405180830381865afa158015610502573d6000803e3d6000fd5b505050506040513d601f19601f820116820180604052508101906105269190610df2565b905081811015610534578091505b600082111561060957600360009054906101000a900473ffffffffffffffffffffffffffffffffffffffff1673ffffffffffffffffffffffffffffffffffffffff16639dc29fac30846040518363ffffffff1660e01b815260040161059a929190610f58565b600060405180830381600087803b1580156105b457600080fd5b505af11580156105c8573d6000803e3d6000fd5b505050507fdc0059e80d42df4720e3b192305597f0caca2c3d12687fd62c1bb75d60666f428583600060405161060093929190610f9c565b60405180910390a15b5050505b5b50506106186109eb565b565b60008060009054906101000a900473ffffffffffffffffffffffffffffffffffffffff16905090565b600360009054906101000a900473ffffffffffffffffffffffffffffffffffffffff1681565b60045481565b60065481565b61067d61085a565b600073ffffffffffffffffffffffffffffffffffffffff168173ffffffffffffffffffffffffffffffffffffffff16036106ec576040517f08c379a00000000000000000000000000000000000000000000000000000000081526004016106e390611056565b60405180910390fd5b6106f5816108d8565b50565b600260009054906101000a900473ffffffffffffffffffffffffffffffffffffffff1681565b600080836000015160070b128061073c57506000836040015160030b135b8061076d57507fffffffffffffffffffffffffffffffffffffffffffffffffffffffffffffff01836040015160030b125b156107ad576040517f08c379a00000000000000000000000000000000000000000000000000000000081526004016107a4906110c2565b60405180910390fd5b600083604001517fffffffffffffffffffffffffffffffffffffffffffffffffffffffffffffffff6107df91906110e2565b90508060ff168360ff16106108235780836107fa919061112c565b60ff16600a6108099190611294565b846000015160070b61081b9190610eb6565b915050610854565b828161082f919061112c565b60ff16600a61083e9190611294565b846000015160070b6108509190610f27565b9150505b92915050565b6108626109f4565b73ffffffffffffffffffffffffffffffffffffffff1661088061061a565b73ffffffffffffffffffffffffffffffffffffffff16146108d6576040517f08c379a00000000000000000000000000000000000000000000000000000000081526004016108cd9061132b565b60405180910390fd5b565b60008060009054906101000a900473ffffffffffffffffffffffffffffffffffffffff169050816000806101000a81548173ffffffffffffffffffffffffffffffffffffffff021916908373ffffffffffffffffffffffffffffffffffffffff1602179055508173ffffffffffffffffffffffffffffffffffffffff168173ffffffffffffffffffffffffffffffffffffffff167f8be0079c531659141344cd1fd0a4f28419497f9722a3daafe3b4186f6b6457e060405160405180910390a35050565b6002600154036109e1576040517f08c379a00000000000000000000000000000000000000000000000000000000081526004016109d890611397565b60405180910390fd5b6002600181905550565b60018081905550565b600033905090565b6000819050919050565b610a0f816109fc565b82525050565b6000602082019050610a2a6000830184610a06565b92915050565b600073ffffffffffffffffffffffffffffffffffffffff82169050919050565b6000610a5b82610a30565b9050919050565b610a6b81610a50565b82525050565b6000602082019050610a866000830184610a62565b92915050565b6000819050919050565b6000610ab1610aac610aa784610a30565b610a8c565b610a30565b9050919050565b6000610ac382610a96565b9050919050565b6000610ad582610ab8565b9050919050565b610ae581610aca565b82525050565b6000602082019050610b006000830184610adc565b92915050565b6000819050919050565b610b1981610b06565b82525050565b6000602082019050610b346000830184610b10565b92915050565b6000604051905090565b600080fd5b610b5281610a50565b8114610b5d57600080fd5b50565b600081359050610b6f81610b49565b92915050565b600060208284031215610b8b57610b8a610b44565b5b6000610b9984828501610b60565b91505092915050565b6000610bad82610ab8565b9050919050565b610bbd81610ba2565b82525050565b6000602082019050610bd86000830184610bb4565b92915050565b600080fd5b6000601f19601f8301169050919050565b7f4e487b7100000000000000000000000000000000000000000000000000000000600052604160045260246000fd5b610c2c82610be3565b810181811067ffffffffffffffff82111715610c4b57610c4a610bf4565b5b80604052505050565b6000610c5e610b3a565b9050610c6a8282610c23565b919050565b60008160070b9050919050565b610c8581610c6f565b8114610c9057600080fd5b50565b600081519050610ca281610c7c565b92915050565b600067ffffffffffffffff82169050919050565b610cc581610ca8565b8114610cd057600080fd5b50565b600081519050610ce281610cbc565b92915050565b60008160030b9050919050565b610cfe81610ce8565b8114610d0957600080fd5b50565b600081519050610d1b81610cf5565b92915050565b610d2a816109fc565b8114610d3557600080fd5b50565b600081519050610d4781610d21565b92915050565b600060808284031215610d6357610d62610bde565b5b610d6d6080610c54565b90506000610d7d84828501610c93565b6000830152506020610d9184828501610cd3565b6020830152506040610da584828501610d0c565b6040830152506060610db984828501610d38565b60608301525092915050565b600060808284031215610ddb57610dda610b44565b5b6000610de984828501610d4d565b91505092915050565b600060208284031215610e0857610e07610b44565b5b6000610e1684828501610d38565b91505092915050565b7f4e487b7100000000000000000000000000000000000000000000000000000000600052601160045260246000fd5b6000610e59826109fc565b9150610e64836109fc565b9250828201905080821115610e7c57610e7b610e1f565b5b92915050565b6000610e8d826109fc565b9150610e98836109fc565b9250828203905081811115610eb057610eaf610e1f565b5b92915050565b6000610ec1826109fc565b9150610ecc836109fc565b9250828202610eda816109fc565b91508282048414831517610ef157610ef0610e1f565b5b5092915050565b7f4e487b7100000000000000000000000000000000000000000000000000000000600052601260045260246000fd5b6000610f32826109fc565b9150610f3d836109fc565b925082610f4d57610f4c610ef8565b5b828204905092915050565b6000604082019050610f6d6000830185610a62565b610f7a6020830184610a06565b9392505050565b60008115159050919050565b610f9681610f81565b82525050565b6000606082019050610fb16000830186610a06565b610fbe6020830185610a06565b610fcb6040830184610f8d565b949350505050565b600082825260208201905092915050565b7f4f776e61626c653a206e6577206f776e657220697320746865207a65726f206160008201527f6464726573730000000000000000000000000000000000000000000000000000602082015250565b6000611040602683610fd3565b915061104b82610fe4565b604082019050919050565b6000602082019050818103600083015261106f81611033565b9050919050565b7f496e76616c696420707269636500000000000000000000000000000000000000600082015250565b60006110ac600d83610fd3565b91506110b782611076565b602082019050919050565b600060208201905081810360008301526110db8161109f565b9050919050565b60006110ed82610ce8565b91506110f883610ce8565b925082820261110681610ce8565b915080821461111857611117610e1f565b5b5092915050565b600060ff82169050919050565b60006111378261111f565b91506111428361111f565b9250828203905060ff81111561115b5761115a610e1f565b5b92915050565b60008160011c9050919050565b6000808291508390505b60018511156111b85780860481111561119457611193610e1f565b5b60018516156111a35780820291505b80810290506111b185611161565b9450611178565b94509492505050565b6000826111d1576001905061128d565b816111df576000905061128d565b81600181146111f557600281146111ff5761122e565b600191505061128d565b60ff84111561121157611210610e1f565b5b8360020a91508482111561122857611227610e1f565b5b5061128d565b5060208310610133831016604e8410600b84101617156112635782820a90508381111561125e5761125d610e1f565b5b61128d565b611270848484600161116e565b9250905081840481111561128757611286610e1f565b5b81810290505b9392505050565b600061129f826109fc565b91506112aa836109fc565b92506112d77fffffffffffffffffffffffffffffffffffffffffffffffffffffffffffffffff84846111c1565b905092915050565b7f4f776e61626c653a2063616c6c6572206973206e6f7420746865206f776e6572600082015250565b6000611315602083610fd3565b9150611320826112df565b602082019050919050565b6000602082019050818103600083015261134481611308565b9050919050565b7f5265656e7472616e637947756172643a207265656e7472616e742063616c6c00600082015250565b6000611381601f83610fd3565b915061138c8261134b565b602082019050919050565b600060208201905081810360008301526113b081611374565b905091905056fea264697066735822122016708c17b2f06679f7a839c2f233b0a4ead7d97ca69e1317439580e82fa6edff64736f6c63430008140033",
  "linkReferences": {},
  "deployedLinkReferences": {}
}