{
  "_format": "hh-sol-artifact-1",
  "contractName": "Paymaster",
  "sourceName": "contracts/Paymaster.sol",
  "abi": [
    {
      "inputs": [
        {
          "internalType": "address",
          "name": "_audb",
          "type": "address"
        }
      ],
      "stateMutability": "nonpayable",
      "type": "constructor"
    },
    {
      "anonymous": false,
      "inputs": [
        {
          "indexed": true,
          "internalType": "address",
          "name": "user",
          "type": "address"
        },
        {
          "indexed": false,
          "internalType": "uint256",
          "name": "costInAudb",
          "type": "uint256"
        },
        {
          "indexed": false,
          "internalType": "uint256",
          "name": "costInAvax",
          "type": "uint256"
        }
      ],
      "name": "GasPaid",
      "type": "event"
    },
    {
      "anonymous": false,
      "inputs": [
        {
          "indexed": true,
          "internalType": "address",
          "name": "previousOwner",
          "type": "address"
        },
        {
          "indexed": true,
          "internalType": "address",
          "name": "newOwner",
          "type": "address"
        }
      ],
      "name": "OwnershipTransferred",
      "type": "event"
    },
    {
      "inputs": [],
      "name": "audb",
      "outputs": [
        {
          "internalType": "contract IERC20",
          "name": "",
          "type": "address"
        }
      ],
      "stateMutability": "view",
      "type": "function"
    },
    {
      "inputs": [],
      "name": "deposit",
      "outputs": [],
      "stateMutability": "payable",
      "type": "function"
    },
    {
      "inputs": [],
      "name": "exchangeRate",
      "outputs": [
        {
          "internalType": "uint256",
          "name": "",
          "type": "uint256"
        }
      ],
      "stateMutability": "view",
      "type": "function"
    },
    {
      "inputs": [],
      "name": "owner",
      "outputs": [
        {
          "internalType": "address",
          "name": "",
          "type": "address"
        }
      ],
      "stateMutability": "view",
      "type": "function"
    },
    {
      "inputs": [
        {
          "internalType": "bytes",
          "name": "context",
          "type": "bytes"
        },
        {
          "internalType": "uint256",
          "name": "actualGasCost",
          "type": "uint256"
        },
        {
          "internalType": "uint256",
          "name": "actualUserOpFeePerGas",
          "type": "uint256"
        }
      ],
      "name": "postOp",
      "outputs": [],
      "stateMutability": "nonpayable",
      "type": "function"
    },
    {
      "inputs": [],
      "name": "renounceOwnership",
      "outputs": [],
      "stateMutability": "nonpayable",
      "type": "function"
    },
    {
      "inputs": [
        {
          "internalType": "uint256",
          "name": "_rate",
          "type": "uint256"
        }
      ],
      "name": "setExchangeRate",
      "outputs": [],
      "stateMutability": "nonpayable",
      "type": "function"
    },
    {
      "inputs": [
        {
          "internalType": "address",
          "name": "newOwner",
          "type": "address"
        }
      ],
      "name": "transferOwnership",
      "outputs": [],
      "stateMutability": "nonpayable",
      "type": "function"
    },
    {
      "inputs": [
        {
          "internalType": "address",
          "name": "userSender",
          "type": "address"
        },
        {
          "internalType": "uint256",
          "name": "requiredPreFund",
          "type": "uint256"
        }
      ],
      "name": "validatePaymasterUserOp",
      "outputs": [
        {
          "internalType": "bytes",
          "name": "context",
          "type": "bytes"
        },
        {
          "internalType": "uint256",
          "name": "validationData",
          "type": "uint256"
        }
      ],
      "stateMutability": "nonpayable",
      "type": "function"
    },
    {
      "inputs": [
        {
          "internalType": "address payable",
          "name": "to",
          "type": "address"
        },
        {
          "internalType": "uint256",
          "name": "amount",
          "type": "uint256"
        }
      ],
      "name": "withdraw",
      "outputs": [],
      "stateMutability": "nonpayable",
      "type": "function"
    },
    {
      "inputs": [
        {
          "internalType": "address",
          "name": "token",
          "type": "address"
        },
        {
          "internalType": "uint256",
          "name": "amount",
          "type": "uint256"
        }
      ],
      "name": "withdrawTokens",
      "outputs": [],
      "stateMutability": "nonpayable",
      "type": "function"
    },
    {
      "stateMutability": "payable",
      "type": "receive"
    }
  ],
  "bytecode": "0x60806040523480156200001157600080fd5b5060405162001381380380620013818339818101604052810190620000379190620001e5565b620000576200004b620000af60201b60201c565b620000b760201b60201c565b80600160006101000a81548173ffffffffffffffffffffffffffffffffffffffff021916908373ffffffffffffffffffffffffffffffffffffffff16021790555068042c96f409591400006002819055505062000217565b600033905090565b60008060009054906101000a900473ffffffffffffffffffffffffffffffffffffffff169050816000806101000a81548173ffffffffffffffffffffffffffffffffffffffff021916908373ffffffffffffffffffffffffffffffffffffffff1602179055508173ffffffffffffffffffffffffffffffffffffffff168173ffffffffffffffffffffffffffffffffffffffff167f8be0079c531659141344cd1fd0a4f28419497f9722a3daafe3b4186f6b6457e060405160405180910390a35050565b600080fd5b600073ffffffffffffffffffffffffffffffffffffffff82169050919050565b6000620001ad8262000180565b9050919050565b620001bf81620001a0565b8114620001cb57600080fd5b50565b600081519050620001df81620001b4565b92915050565b600060208284031215620001fe57620001fd6200017b565b5b60006200020e84828501620001ce565b91505092915050565b61115a80620002276000396000f3fe6080604052600436106100a05760003560e01c80639c4282ed116100645780639c4282ed14610180578063d0e30db0146101ab578063db068e0e146101b5578063ee55b93e146101de578063f2fde38b14610207578063f3fef3a314610230576100a7565b806306b091f9146100ac5780633ba0b9a9146100d5578063715018a6146101005780638acfa3c5146101175780638da5cb5b14610155576100a7565b366100a757005b600080fd5b3480156100b857600080fd5b506100d360048036038101906100ce9190610976565b610259565b005b3480156100e157600080fd5b506100ea6102e4565b6040516100f791906109c5565b60405180910390f35b34801561010c57600080fd5b506101156102ea565b005b34801561012357600080fd5b5061013e60048036038101906101399190610976565b6102fe565b60405161014c929190610a70565b60405180910390f35b34801561016157600080fd5b5061016a6104db565b6040516101779190610aaf565b60405180910390f35b34801561018c57600080fd5b50610195610504565b6040516101a29190610b29565b60405180910390f35b6101b361052a565b005b3480156101c157600080fd5b506101dc60048036038101906101d79190610b44565b61052c565b005b3480156101ea57600080fd5b5061020560048036038101906102009190610bd6565b61053e565b005b34801561021357600080fd5b5061022e60048036038101906102299190610c4a565b6106b8565b005b34801561023c57600080fd5b5061025760048036038101906102529190610cb5565b61073b565b005b61026161078e565b8173ffffffffffffffffffffffffffffffffffffffff1663a9059cbb33836040518363ffffffff1660e01b815260040161029c929190610cf5565b6020604051808303816000875af11580156102bb573d6000803e3d6000fd5b505050506040513d601f19601f820116820180604052508101906102df9190610d56565b505050565b60025481565b6102f261078e565b6102fc600061080c565b565b6060600080670de0b6b3a76400006002548561031a9190610db2565b6103249190610e23565b905080600160009054906101000a900473ffffffffffffffffffffffffffffffffffffffff1673ffffffffffffffffffffffffffffffffffffffff1663dd62ed3e87306040518363ffffffff1660e01b8152600401610384929190610e54565b602060405180830381865afa1580156103a1573d6000803e3d6000fd5b505050506040513d601f19601f820116820180604052508101906103c59190610e92565b10156103e8576001604051806020016040528060008152509092509250506104d4565b80600160009054906101000a900473ffffffffffffffffffffffffffffffffffffffff1673ffffffffffffffffffffffffffffffffffffffff166370a08231876040518263ffffffff1660e01b81526004016104449190610aaf565b602060405180830381865afa158015610461573d6000803e3d6000fd5b505050506040513d601f19601f820116820180604052508101906104859190610e92565b10156104a8576001604051806020016040528060008152509092509250506104d4565b8481856040516020016104bd93929190610ebf565b604051602081830303815290604052600092509250505b9250929050565b60008060009054906101000a900473ffffffffffffffffffffffffffffffffffffffff16905090565b600160009054906101000a900473ffffffffffffffffffffffffffffffffffffffff1681565b565b61053461078e565b8060028190555050565b600080600086868101906105529190610ef6565b9250925092506000670de0b6b3a7640000600254876105719190610db2565b61057b9190610e23565b9050600160009054906101000a900473ffffffffffffffffffffffffffffffffffffffff1673ffffffffffffffffffffffffffffffffffffffff166323b872dd8530846040518463ffffffff1660e01b81526004016105dc93929190610f49565b6020604051808303816000875af11580156105fb573d6000803e3d6000fd5b505050506040513d601f19601f8201168201806040525081019061061f9190610d56565b61065e576040517f08c379a000000000000000000000000000000000000000000000000000000000815260040161065590610fdd565b60405180910390fd5b8373ffffffffffffffffffffffffffffffffffffffff167fc34a4660c18505a3cc0299553e73cd78f1de9b3ae9714a1dddd2fea59fa50f8f82886040516106a6929190610ffd565b60405180910390a25050505050505050565b6106c061078e565b600073ffffffffffffffffffffffffffffffffffffffff168173ffffffffffffffffffffffffffffffffffffffff160361072f576040517f08c379a000000000000000000000000000000000000000000000000000000000815260040161072690611098565b60405180910390fd5b6107388161080c565b50565b61074361078e565b8173ffffffffffffffffffffffffffffffffffffffff166108fc829081150290604051600060405180830381858888f19350505050158015610789573d6000803e3d6000fd5b505050565b6107966108d0565b73ffffffffffffffffffffffffffffffffffffffff166107b46104db565b73ffffffffffffffffffffffffffffffffffffffff161461080a576040517f08c379a000000000000000000000000000000000000000000000000000000000815260040161080190611104565b60405180910390fd5b565b60008060009054906101000a900473ffffffffffffffffffffffffffffffffffffffff169050816000806101000a81548173ffffffffffffffffffffffffffffffffffffffff021916908373ffffffffffffffffffffffffffffffffffffffff1602179055508173ffffffffffffffffffffffffffffffffffffffff168173ffffffffffffffffffffffffffffffffffffffff167f8be0079c531659141344cd1fd0a4f28419497f9722a3daafe3b4186f6b6457e060405160405180910390a35050565b600033905090565b600080fd5b600080fd5b600073ffffffffffffffffffffffffffffffffffffffff82169050919050565b600061090d826108e2565b9050919050565b61091d81610902565b811461092857600080fd5b50565b60008135905061093a81610914565b92915050565b6000819050919050565b61095381610940565b811461095e57600080fd5b50565b6000813590506109708161094a565b92915050565b6000806040838503121561098d5761098c6108d8565b5b600061099b8582860161092b565b92505060206109ac85828601610961565b9150509250929050565b6109bf81610940565b82525050565b60006020820190506109da60008301846109b6565b92915050565b600081519050919050565b600082825260208201905092915050565b60005b83811015610a1a5780820151818401526020810190506109ff565b60008484015250505050565b6000601f19601f8301169050919050565b6000610a42826109e0565b610a4c81856109eb565b9350610a5c8185602086016109fc565b610a6581610a26565b840191505092915050565b60006040820190508181036000830152610a8a8185610a37565b9050610a9960208301846109b6565b9392505050565b610aa981610902565b82525050565b6000602082019050610ac46000830184610aa0565b92915050565b6000819050919050565b6000610aef610aea610ae5846108e2565b610aca565b6108e2565b9050919050565b6000610b0182610ad4565b9050919050565b6000610b1382610af6565b9050919050565b610b2381610b08565b82525050565b6000602082019050610b3e6000830184610b1a565b92915050565b600060208284031215610b5a57610b596108d8565b5b6000610b6884828501610961565b91505092915050565b600080fd5b600080fd5b600080fd5b60008083601f840112610b9657610b95610b71565b5b8235905067ffffffffffffffff811115610bb357610bb2610b76565b5b602083019150836001820283011115610bcf57610bce610b7b565b5b9250929050565b60008060008060608587031215610bf057610bef6108d8565b5b600085013567ffffffffffffffff811115610c0e57610c0d6108dd565b5b610c1a87828801610b80565b94509450506020610c2d87828801610961565b9250506040610c3e87828801610961565b91505092959194509250565b600060208284031215610c6057610c5f6108d8565b5b6000610c6e8482850161092b565b91505092915050565b6000610c82826108e2565b9050919050565b610c9281610c77565b8114610c9d57600080fd5b50565b600081359050610caf81610c89565b92915050565b60008060408385031215610ccc57610ccb6108d8565b5b6000610cda85828601610ca0565b9250506020610ceb85828601610961565b9150509250929050565b6000604082019050610d0a6000830185610aa0565b610d1760208301846109b6565b9392505050565b60008115159050919050565b610d3381610d1e565b8114610d3e57600080fd5b50565b600081519050610d5081610d2a565b92915050565b600060208284031215610d6c57610d6b6108d8565b5b6000610d7a84828501610d41565b91505092915050565b7f4e487b7100000000000000000000000000000000000000000000000000000000600052601160045260246000fd5b6000610dbd82610940565b9150610dc883610940565b9250828202610dd681610940565b91508282048414831517610ded57610dec610d83565b5b5092915050565b7f4e487b7100000000000000000000000000000000000000000000000000000000600052601260045260246000fd5b6000610e2e82610940565b9150610e3983610940565b925082610e4957610e48610df4565b5b828204905092915050565b6000604082019050610e696000830185610aa0565b610e766020830184610aa0565b9392505050565b600081519050610e8c8161094a565b92915050565b600060208284031215610ea857610ea76108d8565b5b6000610eb684828501610e7d565b91505092915050565b6000606082019050610ed46000830186610aa0565b610ee160208301856109b6565b610eee60408301846109b6565b949350505050565b600080600060608486031215610f0f57610f0e6108d8565b5b6000610f1d86828701610ca0565b9350506020610f2e86828701610961565b9250506040610f3f86828701610961565b9150509250925092565b6000606082019050610f5e6000830186610aa0565b610f6b6020830185610aa0565b610f7860408301846109b6565b949350505050565b600082825260208201905092915050565b7f5061796d656e74206661696c6564000000000000000000000000000000000000600082015250565b6000610fc7600e83610f80565b9150610fd282610f91565b602082019050919050565b60006020820190508181036000830152610ff681610fba565b9050919050565b600060408201905061101260008301856109b6565b61101f60208301846109b6565b9392505050565b7f4f776e61626c653a206e6577206f776e657220697320746865207a65726f206160008201527f6464726573730000000000000000000000000000000000000000000000000000602082015250565b6000611082602683610f80565b915061108d82611026565b604082019050919050565b600060208201905081810360008301526110b181611075565b9050919050565b7f4f776e61626c653a2063616c6c6572206973206e6f7420746865206f776e6572600082015250565b60006110ee602083610f80565b91506110f9826110b8565b602082019050919050565b6000602082019050818103600083015261111d816110e1565b905091905056fea264697066735822122086715afbaea0c3e7d5c4410f296c3b86a8b632fe4e4ceaa2322ee3bc06bec9ce64736f6c63430008140033",
  "linkReferences": {},
  "deployedLinkReferences": {}
}