{
  "_format": "hh-sol-artifact-1",
  "contractName": "Paymaster",
  "sourceName": "contracts/Paymaster.sol",
  "abi": [
    {
      "inputs": [
        {
          "internalType": "address",
          "name": "_audb",
          "type": "address"
        }
      ],
      "stateMutability": "nonpayable",
      "type": "constructor"
    },
    {
      "anonymous": false,
      "inputs": [
        {
          "indexed": true,
          "internalType": "address",
          "name": "previousOwner",
          "type": "address"
        },
        {
          "indexed": true,
          "internalType": "address",
          "name": "newOwner",
          "type": "address"
        }
      ],
      "name": "OwnershipTransferred",
      "type": "event"
    },
    {
      "inputs": [],
      "name": "audb",
      "outputs": [
        {
          "internalType": "contract IERC20",
          "name": "",
          "type": "address"
        }
      ],
      "stateMutability": "view",
      "type": "function"
    },
    {
      "inputs": [],
      "name": "exchangeRate",
      "outputs": [
        {
          "internalType": "uint256",
          "name": "",
          "type": "uint256"
        }
      ],
      "stateMutability": "view",
      "type": "function"
    },
    {
      "inputs": [],
      "name": "owner",
      "outputs": [
        {
          "internalType": "address",
          "name": "",
          "type": "address"
        }
      ],
      "stateMutability": "view",
      "type": "function"
    },
    {
      "inputs": [],
      "name": "renounceOwnership",
      "outputs": [],
      "stateMutability": "nonpayable",
      "type": "function"
    },
    {
      "inputs": [
        {
          "internalType": "uint256",
          "name": "_rate",
          "type": "uint256"
        }
      ],
      "name": "setExchangeRate",
      "outputs": [],
      "stateMutability": "nonpayable",
      "type": "function"
    },
    {
      "inputs": [
        {
          "internalType": "address",
          "name": "newOwner",
          "type": "address"
        }
      ],
      "name": "transferOwnership",
      "outputs": [],
      "stateMutability": "nonpayable",
      "type": "function"
    },
    {
      "inputs": [
        {
          "internalType": "bytes32",
          "name": "",
          "type": "bytes32"
        },
        {
          "internalType": "uint256",
          "name": "maxCost",
          "type": "uint256"
        }
      ],
      "name": "validatePaymasterUserOp",
      "outputs": [
        {
          "internalType": "bytes",
          "name": "context",
          "type": "bytes"
        },
        {
          "internalType": "uint256",
          "name": "validationData",
          "type": "uint256"
        }
      ],
      "stateMutability": "view",
      "type": "function"
    },
    {
      "inputs": [
        {
          "internalType": "address payable",
          "name": "to",
          "type": "address"
        },
        {
          "internalType": "uint256",
          "name": "amount",
          "type": "uint256"
        }
      ],
      "name": "withdraw",
      "outputs": [],
      "stateMutability": "nonpayable",
      "type": "function"
    },
    {
      "stateMutability": "payable",
      "type": "receive"
    }
  ],
  "bytecode": "0x608060405234801561001057600080fd5b50604051610b52380380610b52833981810160405281019061003291906101c4565b61004e61004361009560201b60201c565b61009d60201b60201c565b80600160006101000a81548173ffffffffffffffffffffffffffffffffffffffff021916908373ffffffffffffffffffffffffffffffffffffffff160217905550506101f1565b600033905090565b60008060009054906101000a900473ffffffffffffffffffffffffffffffffffffffff169050816000806101000a81548173ffffffffffffffffffffffffffffffffffffffff021916908373ffffffffffffffffffffffffffffffffffffffff1602179055508173ffffffffffffffffffffffffffffffffffffffff168173ffffffffffffffffffffffffffffffffffffffff167f8be0079c531659141344cd1fd0a4f28419497f9722a3daafe3b4186f6b6457e060405160405180910390a35050565b600080fd5b600073ffffffffffffffffffffffffffffffffffffffff82169050919050565b600061019182610166565b9050919050565b6101a181610186565b81146101ac57600080fd5b50565b6000815190506101be81610198565b92915050565b6000602082840312156101da576101d9610161565b5b60006101e8848285016101af565b91505092915050565b610952806102006000396000f3fe60806040526004361061007f5760003560e01c8063db068e0e1161004e578063db068e0e14610123578063e9bb53331461014c578063f2fde38b1461018a578063f3fef3a3146101b357610086565b80633ba0b9a91461008b578063715018a6146100b65780638da5cb5b146100cd5780639c4282ed146100f857610086565b3661008657005b600080fd5b34801561009757600080fd5b506100a06101dc565b6040516100ad91906104b1565b60405180910390f35b3480156100c257600080fd5b506100cb6101e2565b005b3480156100d957600080fd5b506100e26101f6565b6040516100ef919061050d565b60405180910390f35b34801561010457600080fd5b5061010d61021f565b60405161011a9190610587565b60405180910390f35b34801561012f57600080fd5b5061014a600480360381019061014591906105d3565b610245565b005b34801561015857600080fd5b50610173600480360381019061016e9190610636565b610257565b604051610181929190610706565b60405180910390f35b34801561019657600080fd5b506101b160048036038101906101ac9190610762565b610278565b005b3480156101bf57600080fd5b506101da60048036038101906101d591906107cd565b6102fb565b005b60025481565b6101ea61034e565b6101f460006103cc565b565b60008060009054906101000a900473ffffffffffffffffffffffffffffffffffffffff16905090565b600160009054906101000a900473ffffffffffffffffffffffffffffffffffffffff1681565b61024d61034e565b8060028190555050565b60606000806040518060200160405280600081525090915091509250929050565b61028061034e565b600073ffffffffffffffffffffffffffffffffffffffff168173ffffffffffffffffffffffffffffffffffffffff16036102ef576040517f08c379a00000000000000000000000000000000000000000000000000000000081526004016102e690610890565b60405180910390fd5b6102f8816103cc565b50565b61030361034e565b8173ffffffffffffffffffffffffffffffffffffffff166108fc829081150290604051600060405180830381858888f19350505050158015610349573d6000803e3d6000fd5b505050565b610356610490565b73ffffffffffffffffffffffffffffffffffffffff166103746101f6565b73ffffffffffffffffffffffffffffffffffffffff16146103ca576040517f08c379a00000000000000000000000000000000000000000000000000000000081526004016103c1906108fc565b60405180910390fd5b565b60008060009054906101000a900473ffffffffffffffffffffffffffffffffffffffff169050816000806101000a81548173ffffffffffffffffffffffffffffffffffffffff021916908373ffffffffffffffffffffffffffffffffffffffff1602179055508173ffffffffffffffffffffffffffffffffffffffff168173ffffffffffffffffffffffffffffffffffffffff167f8be0079c531659141344cd1fd0a4f28419497f9722a3daafe3b4186f6b6457e060405160405180910390a35050565b600033905090565b6000819050919050565b6104ab81610498565b82525050565b60006020820190506104c660008301846104a2565b92915050565b600073ffffffffffffffffffffffffffffffffffffffff82169050919050565b60006104f7826104cc565b9050919050565b610507816104ec565b82525050565b600060208201905061052260008301846104fe565b92915050565b6000819050919050565b600061054d610548610543846104cc565b610528565b6104cc565b9050919050565b600061055f82610532565b9050919050565b600061057182610554565b9050919050565b61058181610566565b82525050565b600060208201905061059c6000830184610578565b92915050565b600080fd5b6105b081610498565b81146105bb57600080fd5b50565b6000813590506105cd816105a7565b92915050565b6000602082840312156105e9576105e86105a2565b5b60006105f7848285016105be565b91505092915050565b6000819050919050565b61061381610600565b811461061e57600080fd5b50565b6000813590506106308161060a565b92915050565b6000806040838503121561064d5761064c6105a2565b5b600061065b85828601610621565b925050602061066c858286016105be565b9150509250929050565b600081519050919050565b600082825260208201905092915050565b60005b838110156106b0578082015181840152602081019050610695565b60008484015250505050565b6000601f19601f8301169050919050565b60006106d882610676565b6106e28185610681565b93506106f2818560208601610692565b6106fb816106bc565b840191505092915050565b6000604082019050818103600083015261072081856106cd565b905061072f60208301846104a2565b9392505050565b61073f816104ec565b811461074a57600080fd5b50565b60008135905061075c81610736565b92915050565b600060208284031215610778576107776105a2565b5b60006107868482850161074d565b91505092915050565b600061079a826104cc565b9050919050565b6107aa8161078f565b81146107b557600080fd5b50565b6000813590506107c7816107a1565b92915050565b600080604083850312156107e4576107e36105a2565b5b60006107f2858286016107b8565b9250506020610803858286016105be565b9150509250929050565b600082825260208201905092915050565b7f4f776e61626c653a206e6577206f776e657220697320746865207a65726f206160008201527f6464726573730000000000000000000000000000000000000000000000000000602082015250565b600061087a60268361080d565b91506108858261081e565b604082019050919050565b600060208201905081810360008301526108a98161086d565b9050919050565b7f4f776e61626c653a2063616c6c6572206973206e6f7420746865206f776e6572600082015250565b60006108e660208361080d565b91506108f1826108b0565b602082019050919050565b60006020820190508181036000830152610915816108d9565b905091905056fea264697066735822122019d65858bb510155063ab719f025b2917034c64902ccd7b040ffdbe356f838a564736f6c63430008140033",
  "linkReferences": {},
  "deployedLinkReferences": {}
}